:1000000002E6A3E4FE7C80ED5207EC600A5F60012B
:100010000EECC313FC80F3AF0622FF02E6C012D839
:100020004622FF028843856972856A73856B7485F1
:100030006C75856D7612D72B7F01220259BB8F2BF1
:100040008D2CE4F52DF52E900206E52BF09004ECB6
:10005000E52CF075F029A424B2F582E5F03403F51F
:1000600083E0B418004003021A6B900071F828284E
:10007000730200B90201C30203200203F90205BDA5
:1000800002071A0207E0021A6B020886021417021E
:1000900014600214CE02153C0215AA0216020216C2
:1000A000800216FE02177C0208FF0217FA02187C73
:1000B0000218FF021982021A0175F029E52CA42406
:1000C000AEF582E5F03403F583E030E675E52C7596
:1000D000F029A424AEF9740335F0FA7B017D4012B7
:1000E000E99075F029E52CA424AEF582E5F03403FF
:1000F000F583E05410FBAD2BAF2C12CD89E52C75A8
:10010000F029A424AEF9740335F0FA7B017D1012B6
:10011000E99075F029E52CA424C1F582E5F03403BB
:10012000F583E04420F52D752E41AF2C12E02074AC
:1001300078252CF9E43402FA7B017D0812E9BA0231
:100140001A6B75F029E52CA424AEF582E5F0340392
:10015000F583E030E32BE52C75F029A424AEF97487
:100160000335F0FA7B017D0812E99075F029E52C42
:10017000A424B2F582E5F03403F5837401F0021A89
:100180006B75F029E52CA424AEF582E5F03403F577
:1001900083E020E703021A6BE52C75F029A424AE56
:1001A000F9740335F0FA7B017D8012E99075F0292E
:1001B000E52CA424B2F582E5F03403F5837402F053
:1001C000021A6BE52CC454F024EDF582E43404F5F6
:1001D00083E0FF12E57475F029E52CA424C1F582B3
:1001E000E5F03403F583EFF0E52C75F029A424A0A5
:1001F000F9740335F0FA7B01C001E52C75F008A411
:1002000024B3F9740535F0A801FC7D01D0017E000E
:100210007F081224EEE52C75F002A4FFAEF0243E18
:10022000F974023EFA7B01C00174072FF974023E93
:10023000A801FC7D01D0017E007F021224EE75F042
:1002400029E52CA4249FF582E5F03403F583E064CE
:1002500004704E75F029E52CA424C1F582E5F03434
:1002600003F583E04420F52D74017E00A82C08805E
:1002700005C333CE33CED8F9FF900288E0FDE4EF1A
:100280005D7005752E268003752E2775F029E52CE7
:10029000A424B2F582E5F03403F5837409F0021A60
:1002A0006BE52B75F01BA42414F582E43401F5836F
:1002B000E4F0A3F0FDFCAF2C12B77EE52B75F01B2C
:1002C000A42416F582E43401F583EEF0A3EFF04E9A
:1002D0006038E52B75F01BA42416F582E43401F593
:1002E00083E0FEA3E0D39400EE648094804005AFE9
:1002F0002B12E2CF75F029E52CA424B2F582E5F0AB
:100300003403F5837403F0021A6B75F029E52CA40D
:1003100024B2F582E5F03403F583740AF0021A6B17
:1003200075F029E52CA424C1F582E5F03403F583AA
:100330007403F0E52C75F029A424A0F9740335F0BA
:10034000FA7B01C001E52C75F008A424B3F974050B
:1003500035F0A801FC7D01D0017E007F041224EE5F
:100360009000047D00E52C75F008A424B7F974050D
:1003700035F0FA7B01AE83AF82122A097B01E4FDDE
:10038000FCAF2C12A45DE52B75F01BA42414F582A0
:10039000E43401F583EEF0A3EFF04E6046E52B75F3
:1003A000F01BA42414F582E43401F583E0FEA3E0FD
:1003B000FFBEFF19BFFF1675F029E52CA424B2F586
:1003C00082E5F03403F5837413F0021A6B75F0299B
:1003D000E52CA424B2F582E5F03403F5837404F02F
:1003E000021A6B75F029E52CA424B2F582E5F034ED
:1003F00003F583740EF0021A6BAD2BAF2C12B0C64E
:100400008F30EF602E75F029E52CA424C1F582E52C
:10041000F03403F583E04420F52D85302E75F02966
:10042000E52CA424B2F582E5F03403F5837409F0D9
:10043000021A6B75F029E52CA4249FF582E5F034AF
:1004400003F583E07035AD2CAF2B12C83F75F02952
:10045000E52CA424C1F582E5F03403F583E04420C3
:10046000F52D752E2875F029E52CA424B2F582E52A
:10047000F03403F5837409F0021A6BE4F530E52CCF
:10048000C454F024F2F582E43404F58375F002E5F7
:1004900030122800E0FEA3E04E601475F029E52C30
:1004A000A424B2F582E5F03403F5837408F0220544
:1004B00030E530B404C875F029E52CA4249FF582FA
:1004C000E5F03403F583E0FF64016017EF64036037
:1004D00012EF6406600DEF64076008EF64056003C7
:1004E000020588E52B75F01BA42414F582E4340181
:1004F000F583E0FEA3E04E7055AD2CAF2B12C83F44
:1005000075F029E52CA424C1F582E5F03403F583C8
:10051000E04420F52D74017E00A82C088005C3332B
:10052000CE33CED8F9FF900288E0FDE4EF5D700590
:10053000752E018003752E0375F029E52CA424B2D5
:10054000F582E5F03403F5837409F0021A6B75F057
:1005500029E52CA424B2F582E5F03403F583E0FF0D
:1005600075F029E52CA424B3F582E5F03403F58376
:10057000EFF075F029E52CA424B2F582E5F0340300
:10058000F5837405F0021A6BAD2CAF2B12C83F75C2
:10059000F029E52CA424C1F582E5F03403F583E0CD
:1005A0004420F52D752E2A75F029E52CA424B2F5EA
:1005B00082E5F03403F5837409F0021A6B75F029B3
:1005C000E52CA4249FF582E5F03403F583E0703533
:1005D000AD2CAF2B12C83F75F029E52CA424C1F532
:1005E00082E5F03403F583E04420F52D752E267561
:1005F000F029E52CA424B2F582E5F03403F58374E8
:1006000009F0021A6B75F029E52CA4249FF582E508
:10061000F03403F583E0FF64026012EF6403600DC1
:10062000EF64066008EF640560030206E5E52B75DC
:10063000F01BA42414F582E43401F583E0FEA3E06A
:10064000D39400EE648094805035AD2CAF2B12C84B
:100650003F75F029E52CA424C1F582E5F03403F5BB
:1006600083E04420F52D752E0175F029E52CA42496
:10067000B2F582E5F03403F5837409F0021A6B7564
:10068000F029E52CA424B2F582E5F03403F583E0EB
:10069000FF75F029E52CA424B3F582E5F03403F5C9
:1006A00083EFF075F029E52CA424B2F582E5F0344F
:1006B00003F5837405F075F029E52CA424AEF582CA
:1006C000E5F03403F583E030E103021A6BE52C75A5
:1006D000F029A424AEF9740335F0FA7B017D2012D1
:1006E000E9BA021A6BAD2CAF2B12C83F75F029E5A1
:1006F0002CA424C1F582E5F03403F583E04420F511
:100700002D752E2A75F029E52CA424B2F582E5F08A
:100710003403F5837409F0021A6BE52B75F01BA402
:100720002414F582E43401F583E0FEA3E024FFFF06
:10073000EE34FFFE3395E0FDFC12C22B75600075B0
:10074000610475620075630075647712D8FAE52B51
:1007500075F01BA42414F582E43401F583E0FEA3B4
:10076000E024FFFFEE34FFFE3395E0FDFC12C22BC8
:10077000EF240EFFE43EFEE43DFDE43CFC7560002A
:1007800075610475620075630075647B12D8FA1296
:100790007A25EF7035AD2CAF2B12C83F75F029E5E7
:1007A0002CA424C1F582E5F03403F583E04420F560
:1007B0002D752E1275F029E52CA424B2F582E5F0F2
:1007C0003403F5837409F0021A6B75F029E52CA443
:1007D00024B2F582E5F03403F5837406F0021A6B57
:1007E000E52B75F01BA42414F582E43401F583E0B5
:1007F000FEA3E024FFFFEE34FFFE3395E0FDFC1284
:10080000C22BEF2406FFE43EFEE43DFDE43CFC7514
:10081000600075610875620075630075647712D8B1
:10082000FA7477252CF8E6FF12E99BEF70429006E8
:1008300079E06007752E3AE4F08003752E11AD2C37
:10084000AF2B12C83F75F029E52CA424C1F582E531
:10085000F03403F583E04420F52D75F029E52CA450
:1008600024B2F582E5F03403F5837409F0021A6BC3
:1008700075F029E52CA424B2F582E5F03403F58364
:100880007412F0021A6B75F029E52CA424B2F582DB
:10089000E5F03403F583E0FF75F029E52CA424B3DB
:1008A000F582E5F03403F583EFF0AD2CAF2B12D9D0
:1008B00053EF601675F029E52CA424B2F582E5F01B
:1008C0003403F5837412F0021A6BAD2CAF2B12C8EF
:1008D0003F75F029E52CA424C1F582E5F03403F539
:1008E00083E04420F52D752E0275F029E52CA42413
:1008F000B2F582E5F03403F5837409F0021A6B75E2
:10090000F029E52CA4249FF582E5F03403F583E07B
:1009100064067032AD2CAF2B12C83F75F029E52C60
:10092000A424C1F582E5F03403F583E04490F52D6D
:1009300075F029E52CA424B2F582E5F03403F583A3
:100940007409F0021A6B75600075610275620075BA
:1009500063007564347F007EEB7D037C0012D8FA5F
:10096000E535F47078047E00A82C088005C333CEEA
:1009700033CED8F9FFE4EF55347003020A73E4F57F
:1009800030AD2CAF2B12C83F75F029E52CA424C143
:10099000F582E5F03403F583E04420F52DE530449D
:1009A00080F52E75F029E52CA424B2F582E5F0340B
:1009B00003F5837409F0E530131313541F2426F54F
:1009C00082E43400F583E0FFE5305407FE7401A8AB
:1009D00006088002C333D8FC4FF0021A6BE52B7572
:1009E000F01BA42414F582E43401F583E0FEA3E0B7
:1009F00024FFFFEE34FFFE3395E0FDFC12C22BEF27
:100A00002412FFE43EFEE43DFDE43CFC756000750D
:100A1000610175620075630075643012D8FAE530C3
:100A2000C39401404EE530D3947F5047E53075F0D4
:100A300002A4FFE42FFFE5F034EBFEE43403FDE411
:100A400033FC756000756102756200756300756442
:100A50003412D8FAE535B4FF1A74017E00A82C08C8
:100A60008005C333CE33CED8F9FFE4EF55346003AD
:100A7000020981E52CC454F024F1F582E43404F534
:100A800083E030E203020B2DE52C75F030A4FFE487
:100A9000EF2409FFE5F03401FEE433FDE43480FC8B
:100AA00075600075610175620075630075643012D0
:100AB000D8FAE53020E23E7478252CF9E43402FAC5
:100AC0007B017D0412E9BA75F029E52CA424C1F557
:100AD00082E5F03403F583E04490F52DE4F52E75BE
:100AE000F029E52CA424B2F582E5F03403F58374F3
:100AF00009F0021A6BE52CC454F024F1F582E434B9
:100B000004F583E04404F075F029E52CA424C1F534
:100B100082E5F03403F583E04490F52DE4F52EE50D
:100B20002C2421F52FFBAD2EAF2D123932E52C24CC
:100B300021F52FE52B75F01BA42414F582E4340174
:100B4000F583E0FCA3E0FDAF2C1296B4EF24FE6029
:100B500047147003020C00147003020C2E1470036F
:100B6000020C9524046003020CC075F029E52CA446
:100B700024C1F582E5F03403F583E04410F52D75CA
:100B80002E0875F029E52CA424B2F582E5F0340393
:100B9000F5837409F0020CC075F029E52CA424C17A
:100BA000F582E5F03403F583E04410F52D752E0948
:100BB00075F029E52CA424B2F582E5F03403F58321
:100BC0007409F0E52B75F01BA42412F9740135F0BB
:100BD000FA7B017D0112E9BAE52B75F01BA4241202
:100BE000F9740135F0FA7B017D8012E9BA74782539
:100BF0002CF9E43402FA7B017D0412E9BA020CC03C
:100C000075F029E52CA424C1F582E5F03403F583C1
:100C1000E04410F52D752E0975F029E52CA424B2B9
:100C2000F582E5F03403F5837409F0020CC075F029
:100C300029E52CA424C1F582E5F03403F583E044D2
:100C400010F52D752E0A75F029E52CA424B2F58235
:100C5000E5F03403F5837409F0E52B75F01BA4244B
:100C600012F9740135F0FA7B017D0112E9BAE52B26
:100C700075F01BA42412F9740135F0FA7B017D8014
:100C800012E9BA7478252CF9E43402FA7B017D0468
:100C900012E9BA802B75F029E52CA424C1F582E570
:100CA000F03403F583E04420F52D752E3B75F029D3
:100CB000E52CA424B2F582E5F03403F5837409F041
:100CC00075F029E52CA424B2F582E5F03403F58310
:100CD000E064097003021A6BE52B75F01BA4241461
:100CE000F582E43401F583E0FCA3E0FDE52B75F02B
:100CF0001BA42416F582E43401F583E0FAA3E0FB9B
:100D0000AF2C126F21EF24FE24FD4003020D90242E
:100D1000C260362442706675F029E52CA424C1F522
:100D200082E5F03403F583E04470F52D752E0BAFAA
:100D30002C12E84C75F029E52CA424B2F582E5F0DC
:100D40003403F5837409F08047AD2CAF2B12C83FF4
:100D500075F029E52CA424C1F582E5F03403F58370
:100D6000E04420F52D752E4375F029E52CA424B21E
:100D7000F582E5F03403F5837409F0801375F029EA
:100D8000E52CA424B2F582E5F03403F5837409F070
:100D900075F029E52CA424B2F582E5F03403F5833F
:100DA000E064097003021A6BE52B75F01BA4241490
:100DB000F582E43401F583E0FEA3E024FFFFEE3486
:100DC000FFFE3395E0FDFC12C22BEF2405FFE43E4D
:100DD000FEE43DFDE43CFC75600075610175620058
:100DE00075630075643112D8FAE4F532F533E52CF9
:100DF000C454F024F1F582E43404F583E020E303E5
:100E0000020E8EE53120E703020E8EE52B75F01BF6
:100E1000A42414F582E43401F583E0FEA3E024FF6A
:100E2000FFEE34FFFEEF25E0FFEE33FE3395E0FDED
:100E3000FCE42FFFE43EFEED3403FDE43CFC756072
:100E40000075610275620075630075643212D8FA2C
:100E5000E53345327035AD2CAF2B12C83F75F02904
:100E6000E52CA424C1F582E5F03403F583E04420A9
:100E7000F52D752E1375F029E52CA424B2F582E525
:100E8000F03403F5837409F0021A6B433280AF2B00
:100E900012ADD0EF6035AD2CAF2B12C83F75F029E5
:100EA000E52CA424C1F582E5F03403F583E0442069
:100EB000F52D752E3475F029E52CA424B2F582E5C4
:100EC000F03403F5837409F0021A6B753001E52BD9
:100ED00075F01BA42414F582E43401F583E0FEA32D
:100EE000E024FFFFEE34FFFE3395E0FDFC12C22B41
:100EF000EF2414FFE43EFEE43DFDE43CFC7560009D
:100F000075610175620075630075647712D8FA78AF
:100F100077E6FFC39401400FEFD3947F500912E2AC
:100F200032EF6003E4F530E530700302111FE52C69
:100F3000C454F024FAF582E43404F583E0FF12E2AD
:100F400032EF7003020FC9E52B75F01BA42414F5D2
:100F500082E43401F583E0FEA3E024FFFBEE34FFDE
:100F6000FAAD2CAF2B12937DEF705E745F252CF9D8
:100F7000E43402FA7B017D0112E9BAE52CC454F095
:100F800024F1F582E43404F583E030E507D201E48E
:100F9000F5308035AD2CAF2B12C83F75F029E52C0C
:100FA000A424C1F582E5F03403F583E04420F52D57
:100FB000752E3175F029E52CA424B2F582E5F034C4
:100FC00003F5837409F0021A6BE52C25E02491F5F2
:100FD00082E43406F583E0FF12E232EF7003021080
:100FE00060E52B75F01BA42414F582E43401F5832D
:100FF000E0FEA3E024FFFDEE34FFFCAF2C12A1D8ED
:10100000EF705D745F252CF9E43402FA7B017D02F8
:1010100012E9BAE52C25E02490F582E43406F58344
:10102000E030E107D200E4F5308035AD2CAF2B1273
:10103000C83F75F029E52CA424C1F582E5F03403FE
:10104000F583E04420F52D752E3275F029E52CA4AA
:1010500024B2F582E5F03403F5837409F0021A6BCB
:10106000E52B75F01BA42414F582E43401F583E02C
:10107000FEA3E024FFFDEE34FFFCAF2C12B9D075C7
:10108000F029E52CA424C3F582E5F03403F583E0D0
:10109000FF12E232EF700302111F30060302111F2C
:1010A000E52B75F01BA42414F582E43401F583E0EC
:1010B000FEA3E024FFFDEE34FFFCAF2C12CC28EFA2
:1010C000705D745F252CF9E43402FA7B017D041213
:1010D000E9BA75F029E52CA424C2F582E5F03403C1
:1010E000F583E030E104D2028035AD2CAF2B12C87D
:1010F0003F75F029E52CA424C1F582E5F03403F511
:1011000083E04420F52D752E3375F029E52CA424B9
:10111000B2F582E5F03403F5837409F0021A6BE549
:101120003230E75053327FE533153370021532E524
:101130002B75F01BA42414F582E43401F583E0FE42
:10114000A3E024FFFFEE34FFFEEF25E0FFEE33FEC9
:101150003395E0FDFCE42FFFE43EFEED3403FDE4B7
:101160003CFC754E00754F0275500075510075526C
:101170003212D6CBE52B75F01BA42412F97401357D
:10118000F0FA7B017D0112E9BA75F029E52CA4245F
:10119000B3F582E5F03403F583E06408704375F03D
:1011A00029E52CA424C1F582E5F03403F583E0445D
:1011B00011FFAB2F7D05123932E52B75F01BA424EE
:1011C00012F9740135F0FA7B017D8012E9BA747866
:1011D000252CF9E43402FA7B017D0412E9BA0213EA
:1011E0007F30004375F029E52CA424C1F582E5F099
:1011F0003403F583E04410FFAB2F7D03123932E551
:101200002B75F01BA42412F9740135F0FA7B017DD3
:101210008012E9BA7478252CF9E43402FA7B017D56
:101220000412E9BA02133D30014375F029E52CA4FC
:1012300024C1F582E5F03403F583E04410FFAB2FC1
:101240007D02123932E52B75F01BA42412F97401CA
:1012500035F0FA7B017D8012E9BA7478252CF9E427
:101260003402FA7B017D0412E9BA02133D300243D5
:1012700075F029E52CA424C1F582E5F03403F5834B
:10128000E04410FFAB2F7D04123932E52B75F01BC3
:10129000A42412F9740135F0FA7B017D8012E9BAB9
:1012A0007478252CF9E43402FA7B017D0412E9BA42
:1012B00002133D900679E06044E4F075F029E52CD6
:1012C000A424C1F582E5F03403F583E04410FFABBC
:1012D0002F7D06123932E52B75F01BA42412F97408
:1012E0000135F0FA7B017D8012E9BA7478252CF97A
:1012F000E43402FA7B017D8012E9BA801B75F02983
:10130000E52CA424C1F582E5F03403F583E0441014
:10131000FFAB2F7D01123932E52B75F01BA424128F
:10132000F9740135F0FA7B017D8012E9BA747825F1
:101330002CF9E43402FA7B017D0412E9BAE531307C
:10134000E115E52B75F01BA42412F9740135F0FAB0
:101350007B017D0212E9BAE53130E30F7478252C68
:10136000F582E43402F583E04410F0E53130E60F15
:101370007478252CF582E43402F583E04420F0E50E
:101380002B75F01BA42412F582E43401F583E030C0
:10139000E245E52B75F01BA42412F9740135F0FA2F
:1013A0007B017D0412E990E52B75F01BA42413F951
:1013B000740135F0FA7B017D0412E9BA75F029E574
:1013C0002CA424C1F582E5F03403F583E04410FF3A
:1013D000AB2F7D0712393275F029E52CA424B3F523
:1013E00082E5F03403F583E0B4081675F029E52CA6
:1013F000A424B2F582E5F03403F5837409F0021AEF
:101400006B75F029E52CA424B2F582E5F03403F5E0
:10141000837409F0021A6B75F029E52CA4249FF55A
:1014200082E5F03403F583E06407601975F029E57F
:101430002CA424AEF582E5F03403F583E020E30527
:10144000AF2C12E020C200C201C20275F029E52CC7
:10145000A424B2F582E5F03403F583E4F0021A6BBC
:101460007D707C17AF2C12B77EE52B75F01BA42482
:1014700016F582E43401F583EEF0A3EFF04E603808
:10148000E52B75F01BA42416F582E43401F583E006
:10149000FEA3E0D39400EE648094804005AF2B124D
:1014A000E2CF75F029E52CA424B2F582E5F03403EF
:1014B000F5837403F0021A6B75F029E52CA424B2AD
:1014C000F582E5F03403F583740BF0021A6B7DE0CE
:1014D0007C2EAF2C12B77EE52B75F01BA42416F5DD
:1014E00082E43401F583EEF0A3EFF04E6038E52B93
:1014F00075F01BA42416F582E43401F583E0FEA305
:10150000E0D39400EE648094804005AF2B12E2CFCC
:1015100075F029E52CA424B2F582E5F03403F583B7
:101520007403F0021A6B75F029E52CA424B2F5823D
:10153000E5F03403F583740CF0021A6B7D507C46A1
:10154000AF2C12B77EE52B75F01BA42416F582E4B0
:101550003401F583EEF0A3EFF04E6038E52B75F023
:101560001BA42416F582E43401F583E0FEA3E0D346
:101570009400EE648094804005AF2B12E2CF75F0AA
:1015800029E52CA424B2F582E5F03403F583740335
:10159000F0021A6B75F029E52CA424B2F582E5F06F
:1015A0003403F583740DF0021A6B7DC07C5DAF2CA3
:1015B00012B77EE52B75F01BA42416F582E43401E6
:1015C000F583EEF0A3EFF04E6022E52B75F01BA43F
:1015D0002416F582E43401F583E0FEA3E0D3940001
:1015E000EE648094804005AF2B12E2CF75F029E5C0
:1015F0002CA424B2F582E5F03403F5837403F002E1
:101600001A6B7B017D707C17AF2C12A45DE52B75E6
:10161000F01BA42414F582E43401F583EEF0A3EF6B
:10162000F04E6046E52B75F01BA42414F582E434DB
:1016300001F583E0FEA3E0FFBEFF19BFFF1675F0C2
:1016400029E52CA424B2F582E5F03403F583741364
:10165000F0021A6B75F029E52CA424B2F582E5F0AE
:101660003403F5837404F0021A6B75F029E52CA499
:1016700024B2F582E5F03403F583740FF0021A6B9F
:101680007B017DE07C2EAF2C12A45DE52B75F01B59
:10169000A42414F582E43401F583EEF0A3EFF04EB8
:1016A0006046E52B75F01BA42414F582E43401F5A3
:1016B00083E0FEA3E0FFBEFF19BFFF1675F029E52A
:1016C0002CA424B2F582E5F03403F5837413F00200
:1016D0001A6B75F029E52CA424B2F582E5F03403E9
:1016E000F5837404F0021A6B75F029E52CA424B27A
:1016F000F582E5F03403F5837410F0021A6B7B0178
:101700007D507C46AF2C12A45DE52B75F01BA42404
:1017100014F582E43401F583EEF0A3EFF04E604659
:10172000E52B75F01BA42414F582E43401F583E065
:10173000FEA3E0FFBEFF19BFFF1675F029E52CA43C
:1017400024B2F582E5F03403F5837413F0021A6BCA
:1017500075F029E52CA424B2F582E5F03403F58375
:101760007404F0021A6B75F029E52CA424B2F582FA
:10177000E5F03403F5837411F0021A6B7B017DC030
:101780007C5DAF2C12A45DE52B75F01BA42414F531
:1017900082E43401F583EEF0A3EFF04E6046E52BD2
:1017A00075F01BA42414F582E43401F583E0FEA354
:1017B000E0FFBEFF19BFFF1675F029E52CA424B287
:1017C000F582E5F03403F5837413F0021A6B75F0BB
:1017D00029E52CA424B2F582E5F03403F5837404E2
:1017E000F0021A6B75F029E52CA424B2F582E5F01D
:1017F0003403F5837413F0021A6B7B02E4FDFCAF33
:101800002C12A45DE52B75F01BA42414F582E4349E
:1018100001F583EEF0A3EFF04E604BE52B75F01B66
:10182000A42414F582E43401F583E0FEA3E0F4700F
:1018300002EEF4601BE52C75F029A424AEF97403C4
:1018400035F0FA7B017D0212E9BA9006797402F054
:1018500075F029E52CA424B2F582E5F03403F58374
:101860007404F0021A6B75F029E52CA424B2F582F9
:10187000E5F03403F5837414F0021A6B7B027D707B
:101880007C17AF2C12A45DE52B75F01BA42414F576
:1018900082E43401F583EEF0A3EFF04E604BE52BCC
:1018A00075F01BA42414F582E43401F583E0FEA353
:1018B000E0F47002EEF4601BE52C75F029A424AE70
:1018C000F9740335F0FA7B017D0212E9BA900679CA
:1018D0007402F075F029E52CA424B2F582E5F03409
:1018E00003F5837404F0021A6B75F029E52CA42427
:1018F000B2F582E5F03403F5837415F0021A6B7BC0
:10190000027DE07C2EAF2C12A45DE52B75F01BA4AC
:101910002414F582E43401F583EEF0A3EFF04E6079
:101920004BE52B75F01BA42414F582E43401F583F8
:10193000E0FEA3E0F47002EEF4601BE52C75F029E4
:10194000A424AEF9740335F0FA7B017D0212E9BAE2
:101950009006797402F075F029E52CA424B2F58282
:10196000E5F03403F5837404F0021A6B75F029E591
:101970002CA424B2F582E5F03403F5837416F0024A
:101980001A6B7B027D507C46AF2C12A45DE52B7553
:10199000F01BA42414F582E43401F583EEF0A3EFE8
:1019A000F04E6048E52B75F01BA42414F582E43456
:1019B00001F583E0FEA3E0F47002EEF4601BE52C79
:1019C00075F029A424AEF9740335F0FA7B017D0289
:1019D00012E9BA9006797402F075F029E52CA42476
:1019E000B2F582E5F03403F5837404F075F029E56F
:1019F0002CA424B2F582E5F03403F5837417F0804B
:101A00006A7B027DC07C5DAF2C12A45DE52B75F076
:101A10001BA42414F582E43401F583EEF0A3EFF067
:101A20004E6035E52B75F01BA42414F582E43401D7
:101A3000F583E0FEA3E0F47002EEF4601BE52C7584
:101A4000F029A424AEF9740335F0FA7B017D02126B
:101A5000E9BA9006797402F075F029E52CA424B255
:101A6000F582E5F03403F5837404F0E52D452E602E
:101A70000EE52C2421F52FFBAD2EAF2D123932228D
:101A8000E4F52B742C252BF582E43402F583E0FF7A
:101A900064096004EFB419067E007F0180047E00B3
:101AA0007F00EF4E70477486252BF582E43403F5F2
:101AB00083E0B4011B742C252BF582E43402F583FA
:101AC0007420F07437252BF582E43400F583E4F0BC
:101AD0007486252BF582E43403F583E0B4020E749A
:101AE0002C252BF582E43402F5837418F0748625D6
:101AF0002BF582E43403F583E0B4010D7486252BC5
:101B0000F582E43403F583E4F0742C252BF582E4AC
:101B10003402F583E012280C1B4F001C15011C53E6
:101B2000021D8B031DC4081E22091F710A1FAF0B63
:101B30001DC40C1E220D20551020A011215F122162
:101B4000AA1322BA18233C192394200000241174EC
:101B500037252BF582E43400F583E0FFB4011174DE
:101B60002C252BF582E43402F5837401F002241154
:101B7000EFB40811742C252BF582E43402F583743C
:101B800008F00224117437252BF582E43400F58324
:101B9000E0FFB40C11742C252BF582E43402F5839C
:101BA0007408F0022411EFB40E11742C252BF58269
:101BB000E43402F583740AF00224117437252BF5FE
:101BC00082E43400F583E0FFB41211742C252BF568
:101BD00082E43402F5837412F0022411EFB40A1186
:101BE000742C252BF582E43402F583740AF0022468
:101BF000117437252BF582E43400F583E06410601E
:101C000003022411742C252BF582E43402F583742D
:101C100010F00224117414252BF582E43400F583AE
:101C2000E0600302241190056D7431F0E4900570BA
:101C3000F0AF2B12E8C9900572EFF07D01AF2B12C7
:101C4000D111742C252BF582E43402F5837402F053
:101C5000022411E52B25E02403F582E43400F5830A
:101C6000E0FEA3E04E7011742C252BF582E43402C3
:101C7000F5837403F0021D327486252BF582E4345B
:101C800003F583E0B40111742C252BF582E43402B2
:101C9000F5837402F0021D327437252BF582E4348B
:101CA00000F583E0FFB40810742C252BF582E43492
:101CB00002F5837408F0807AEFB40C10742C252B95
:101CC000F582E43402F5837408F080667437252BBE
:101CD000F582E43400F583E0FFB40E10742C252B5C
:101CE000F582E43402F583740AF08046EFB41210F2
:101CF000742C252BF582E43402F5837412F08032C3
:101D00007437252BF582E43400F583E0FFB40A1024
:101D1000742C252BF582E43402F583740AF08012CA
:101D2000EFB4100E742C252BF582E43402F5837485
:101D300010F07486252BF582E43403F583E0640407
:101D400060030224117486252BF582E43403F583A5
:101D5000E4F090056D7432F0E4900570F0AF2B1252
:101D6000E8C9900572EFF0E4FDAF2B12D111743782
:101D7000252BF582E43400F583E4F0742C252BF553
:101D800082E43402F583E4F002241190056D74328C
:101D9000F0E4900570F0AF2B12E8C9900572EFF0F7
:101DA000E4FDAF2B12D1117437252BF582E43400FA
:101DB000F583E4F0742C252BF582E43402F583E4FA
:101DC000F00224117414252BF582E43400F583E02D
:101DD000600302241190056D7431F0E4900570F0F9
:101DE000AF2B12E8C9900572EFF07D01AF2B12D135
:101DF00011742C252BF582E43402F583E0B408112C
:101E0000742C252BF582E43402F5837409F0022446
:101E100011742C252BF582E43402F583740DF00245
:101E20002411E52B25E02403F582E43400F583E456
:101E3000F0A3F0047E00A82B088005C333CE33CE78
:101E4000D8F9FF9005F7E0FDE4EF5D6003021ED1D5
:101E50007437252BF582E43400F583E0FFB40110DC
:101E6000742C252BF582E43402F5837401F0803163
:101E7000EFB41210742C252BF582E43402F5837430
:101E800012F0801D7437252BF582E43400F583E0D1
:101E9000B40E0E742C252BF582E43402F583740AFB
:101EA000F0742C252BF582E43402F583E06409708C
:101EB0004A7437252BF582E43400F583E0640A7018
:101EC0003A742C252BF582E43402F583740AF080F1
:101ED0002A7437252BF582E43400F583E0B40E1B19
:101EE0007437252BF582E43400F583E4F0742C2557
:101EF0002BF582E43402F583740AF07437252BF550
:101F000082E43400F583E0B4100E742C252BF582A6
:101F1000E43402F5837410F07486252BF582E434E2
:101F200003F583E0640460030224117486252BF515
:101F300082E43403F583E4F090056D7432F0E490AC
:101F40000570F0AF2B12E8C9900572EFF0E4FDAF19
:101F50002B12D1117437252BF582E43400F583E47C
:101F6000F0742C252BF582E43402F583E4F002248E
:101F7000117414252BF582E43400F583E06003022C
:101F8000241190056D7432F0E4900570F0AF2B12BF
:101F9000E8C9900572EFF0E4FDAF2B12D111742C5B
:101FA000252BF582E43402F583740BF002241174BE
:101FB00037252BF582E43400F583E0FFB40111747A
:101FC0002C252BF582E43402F5837401F0022411F0
:101FD000EFB40811742C252BF582E43402F58374D8
:101FE00008F00224117437252BF582E43400F583C0
:101FF000E0FFB40C11742C252BF582E43402F58338
:102000007408F0022411EFB40E11742C252BF58204
:10201000E43402F583740AF00224117437252BF599
:1020200082E43400F583E0FFB41211742C252BF503
:1020300082E43402F5837412F0022411EF6410601C
:1020400003022411742C252BF582E43402F58374E9
:1020500010F00224117414252BF582E43400F5836A
:10206000E0600302241190056D7432F0E490057075
:10207000F0AF2B12E8C9900572EFF0E4FDAF2B1220
:10208000D1117437252BF582E43400F583E4F07424
:102090002C252BF582E43402F5837411F00224110F
:1020A0007437252BF582E43400F583E0FFB401108A
:1020B000742C252BF582E43402F5837401F08065DD
:1020C000EFB40810742C252BF582E43402F58374E8
:1020D00008F080517437252BF582E43400F583E055
:1020E000FFB40C10742C252BF582E43402F58374B4
:1020F00008F08031EFB40E10742C252BF582E434F7
:1021000002F583740AF0801D7437252BF582E434C0
:1021100000F583E0B4120E742C252BF582E4340212
:10212000F5837412F07437252BF582E43400F583BF
:10213000E0FFB40A11742C252BF582E43402F583F8
:10214000740AF0022411EF64106003022411742C4D
:10215000252BF582E43402F5837412F00224117405
:1021600014252BF582E43400F583E060030224118A
:1021700090056D7431F0E4900570F0AF2B12E8C952
:10218000900572EFF07D01AF2B12D1117437252B22
:10219000F582E43400F583E4F0742C252BF582E419
:1021A0003402F5837413F00224117437252BF58261
:1021B000E43400F583E0FFB40110742C252BF58284
:1021C000E43402F5837401F08065EFB40810742CD8
:1021D000252BF582E43402F5837408F080517437BE
:1021E000252BF582E43400F583E0FFB40C10742C49
:1021F000252BF582E43402F5837408F08031EFB4C6
:102200000E10742C252BF582E43402F583740AF049
:10221000801D7437252BF582E43400F583E0B41279
:102220000E742C252BF582E43402F5837410F074BF
:1022300037252BF582E43400F583E0FFB40A1074EF
:102240002C252BF582E43402F583740AF08012EF1A
:10225000B4100E742C252BF582E43402F58374122D
:10226000F07486252BF582E43403F583E064046082
:10227000030224117486252BF582E43403F583E4EC
:10228000F090056D7432F0E4900570F0AF2B12E819
:10229000C9900572EFF0E4FDAF2B12D11174372510
:1022A0002BF582E43400F583E4F0742C252BF582C1
:1022B000E43402F583E4F00224117480252BF582C6
:1022C000E43402F583E064AA70487480252BF5821B
:1022D000E43402F583E4F07486252BF582E43403BC
:1022E000F5837403F090056D7451F0E4900570F07F
:1022F000AF2B12E8C9900572EFF07D01AF2B12D120
:1023000011742C252BF582E43402F5837419F00244
:1023100024117480252BF582E43402F583E4F074F3
:1023200037252BF582E43400F583E4F0742C252B5B
:10233000F582E43402F583E4F00224117486252B3F
:10234000F582E43403F583E064046003022411742D
:1023500086252BF582E43403F583E4F090056D7453
:1023600052F0E4900570F0AF2B12E8C9900572EFBF
:10237000F0E4FDAF2B12D1117437252BF582E43434
:1023800000F583E4F0742C252BF582E43402F58308
:10239000E4F0807D7480252BF582E43402F583E03F
:1023A000645670467480252BF582E43402F583E48C
:1023B000F07486252BF582E43403F583E4F0900570
:1023C0006D7451F0E4900570F0AF2B12E8C99005E0
:1023D00072EFF07D01AF2B12D111742C252BF582F9
:1023E000E43402F5837402F080277480252BF58293
:1023F000E43402F583E4F07437252BF582E43400ED
:10240000F583E4F0742C252BF582E43402F583E4A3
:10241000F0052BE52BC394085003021A8322E70929
:10242000F608DFFA8046E709F208DFFA803E888284
:102430008C83E709F0A3DFFA8032E309F608DFFABC
:102440008078E309F208DFFA807088828C83E309E0
:10245000F0A3DFFA806489828A83E0A3F608DFFABA
:10246000805889828A83E0A3F208DFFA804C80D208
:1024700080FA80C680D4806980F28033801080A684
:1024800080EA809A80A880DA80E280CA80338982DC
:102490008A83ECFAE493A3C8C582C8CCC583CCF088
:1024A000A3C8C582C8CCC583CCDFE9DEE7800D892F
:1024B000828A83E493A3F608DFF9ECFAA9F0EDFB36
:1024C0002289828A83ECFAE0A3C8C582C8CCC5837E
:1024D000CCF0A3C8C582C8CCC583CCDFEADEE880D7
:1024E000DB89828A83E493A3F208DFF980CC88F049
:1024F000EF60010E4E60C388F0ED2402B40400507A
:10250000B9F582EB2402B4040050AF2323458223A3
:1025100090246E73BB010689828A83E0225002E711
:1025200022BBFE02E32289828A83E49322BB010C50
:10253000E58229F582E5833AF583E0225006E92514
:1025400082F8E622BBFE06E92582F8E222E582292E
:10255000F582E5833AF583E49322BB010989828AF7
:1025600083F8E028F022500327F722BBFE05F8E3AA
:1025700028F3228A838982F8E4932822BB010FF88A
:10258000E58229F582E5833AF583E028F0225009B7
:10259000C58229F8E58226F622BBFE09C58229F804
:1025A000E22582F222F8EA2583F583E9932822BB0B
:1025B000010689828A83F0225002F722BBFE01F3D2
:1025C00022F8BB010DE58229F582E5833AF583E81F
:1025D000F0225006E92582C8F622BBFE05E92582D5
:1025E000C8F222EF8DF0A4A8F0CF8CF0A428CE8DF5
:1025F000F0A42EFE22C2D5EC30E709B2D5E4C39D8B
:10260000FDE49CFCEE30E715B2D5E4C39FFFE49EE9
:10261000FE122BD7C3E49DFDE49CFC8003122BD754
:1026200030D507C3E49FFFE49EFE22C5F0F8A3E087
:1026300028F0C5F0F8E582158270021583E038F0C5
:1026400022E88FF0A4CC8BF0A42CFCE98EF0A42C13
:10265000FC8AF0EDA42CFCEA8EF0A4CDA8F08BF05F
:10266000A42DCC3825F0FDE98FF0A42CCD35F0FC5D
:10267000EB8EF0A4FEA9F0EB8FF0A4CFC5F02ECD29
:1026800039FEE43CFCEAA42DCE35F0FDE43CFC220E
:1026900075F008758200EF2FFFEE33FECD33CDCC01
:1026A00033CCC58233C5829BED9AEC99E582984084
:1026B0000CF582EE9BFEED9AFDEC99FC0FD5F0D661
:1026C000E4CEFBE4CDFAE4CCF9A88222B800C1B98B
:1026D0000059BA002DEC8BF084CFCECDFCE5F0CBC9
:1026E000F97818EF2FFFEE33FEED33FDEC33FCEB02
:1026F00033FB10D703994004EB99FB0FD8E5E4F9BD
:10270000FA227818EF2FFFEE33FEED33FDEC33FCA9
:10271000C933C910D7059BE99A4007EC9BFCE99A9D
:10272000F90FD8E0E4C9FAE4CCFB2275F010EF2FE2
:10273000FFEE33FEED33FDCC33CCC833C810D707E2
:102740009BEC9AE899400AED9BFDEC9AFCE899F81D
:102750000FD5F0DAE4CDFBE4CCFAE4C8F922EB9F24
:10276000F5F0EA9E42F0E99D42F0E89C45F022E84F
:10277000600FECC313FCED13FDEE13FEEF13FFD857
:10278000F1227401FF3395E0FEFDFCA3A3A3E02F2B
:10279000FFF0E582158270021583E03EFEF0E582CF
:1027A000158270021583E03DFDF0E582158270020E
:1027B0001583E03CFCF022ECF608EDF608EEF60896
:1027C000EFF622ECF0A3EDF0A3EEF0A3EFF022A8D9
:1027D000828583F0D083D0821227E61227E6122763
:1027E000E61227E6E473E493A3C583C5F0C583C866
:1027F000C582C8F0A3C583C5F0C583C8C582C822F9
:10280000A42582F582E5F03583F58322D083D0823A
:10281000F8E4937012740193700DA3A393F87401FC
:1028200093F5828883E4737402936860EFA3A3A393
:1028300080DFD083D082F8E4937012740193700D1E
:10284000A3A393F8740193F5828883E473740293CD
:10285000B5F0067403936860E9A3A3A3A380D8E34B
:10286000F5F009E208B5F06BDFF58067E3F5F009F4
:10287000E608B5F05EDFF5805A87F009E608B5F0A6
:1028800052DFF6804E87F009E208B5F046DFF680A9
:102890004288828C8387F009E0A3B5F036DFF680AA
:1028A0003288828C8387F009E493A3B5F025DFF5A5
:1028B000802188828C83E3F5F009E0A3B5F014DF72
:1028C000F5801088828C83E3F5F009E493A3B5F0DA
:1028D00002DFF402298E808780E9809080D4803ED8
:1028E0008015806E807E809D80B7808D80A3805112
:1028F0008074803C02299A89828A83ECFAE493F5F9
:10290000F0A3C8C582C8CCC583CCE493A3C8C58254
:10291000C8CCC583CCB5F076DFE3DEE18070898278
:102920008A83E493F5F0A3E208B5F062DFF4805EF9
:1029300089828A83E0F5F0A3E608B5F051DFF580DF
:102940004D89828A83E0F5F0A3E208B5F040DFF517
:10295000803C89828A83E493F5F0A3E608B5F02EE3
:10296000DFF4802A8002805789828A83ECFAE4931C
:10297000F5F0A3C8C582C8CCC583CCE0A3C8C58286
:10298000C8CCC583CCB5F006DFE4DEE280007FFF73
:10299000B5F0020F2240027F012289828A83ECFA7D
:1029A000E0F5F0A3C8C582C8CCC583CCE0A3C8C5F8
:1029B00082C8CCC583CCB5F0D5DFE5DEE380CF8916
:1029C000828A83ECFAE0F5F0A3C8C582C8CCC5833F
:1029D000CCE493A3C8C582C8CCC583CCB5F0AFDF27
:1029E000E4DEE280A988F0EF60010E4E60ABED24DA
:1029F00002B404005098F582EB2402B40400508E17
:102A000023234582239028D673EF4E6012EF600196
:102A10000EEDBB010B89828A83F0A3DFFCDEFA2274
:102A200089F05007F709DFFCA9F022BBFEFCF3098F
:102A3000DFFCA9F022E709F608DFFA807BE9D398EA
:102A400050F3E92FF9E82FF819E718F6DFFA806854
:102A5000E709F208DFFA806080E388828C83E70967
:102A6000F0A3DFFA8052E309F608DFFA804AE9D3DF
:102A700098500EE92FF9E82FF819E318F2DFFA80E1
:102A800037E309F208DFFA802F88828C83E309F0AC
:102A9000A3DFFA802389828A83E0A3F608DFFA8025
:102AA0001789828A83E493A3F208DFF9800A898276
:102AB0008A83E0A3F208DFFA022B4780B180F98015
:102AC000A580C680DC80F180738010808380E980DF
:102AD00087808780D980E180BC8073D3E998EA9CA5
:102AE0005039E92FF582EA3BF583E82FF8EC3BFCFF
:102AF0000582D5820215831582E493C8C582C8CCAD
:102B0000C583CC0582D5820215831582F0C8C582A3
:102B1000C8CCC583CCDFD9DED7802E89828A83ECEE
:102B2000FAE493A3C8C582C8CCC583CCF0A3C8C5BA
:102B300082C8CCC583CCDFE9DEE7800D89828A8339
:102B4000E493A3F608DFF9ECFAA9F0EDFB22D3E950
:102B500098EA9C5038E92FF582EA3BF583E82FF894
:102B6000EC3BFC0582D5820215831582E0C8C58244
:102B7000C8CCC583CC0582D5820215831582F0C8E6
:102B8000C582C8CCC583CCDFDADED880BC89828A16
:102B900083ECFAE0A3C8C582C8CCC583CCF0A3C837
:102BA000C582C8CCC583CCDFEADEE8809C809888EB
:102BB000F08E83EF60010E4E608DED2402B40400B0
:102BC0005085F582EB2402B4040050E123234582B2
:102BD000AB8323902ABB73BC000BBE0029EF8DF0A2
:102BE00084FFADF022E4CCF875F008EF2FFFEE3350
:102BF000FEEC33FCEE9DEC984005FCEE9DFE0FD5FF
:102C0000F0E9E4CEFD22EDF8F5F0EE8420D21CFED2
:102C1000ADF075F008EF2FFFED33FD40079850063B
:102C2000D5F0F222C398FD0FD5F0EA228F3E7854FA
:102C30007C007D007BFF7AE979C97E007F02122447
:102C4000EEE4F54375F029E53EA424B4F582E5F001
:102C50003403F583E024FC601524FE602A24062456
:102C6000F850087003022D15022D397F0022E53E31
:102C7000C454F024EEF582E43404F583E064046087
:102C80000302339F7F0122E53EC454F024EEF58217
:102C9000E43404F583E0FF64016008EF640260033C
:102CA00002339F75F029E53EA424BCF582E5F0349B
:102CB00003F583E05438FF7DFF1200038F3FE53FAB
:102CC00030E0037F002275F029E53EA424BCF582A4
:102CD000E5F03403F583E05407FF7DFF1200038F16
:102CE0003FE53F20E0037F0022E53E75F029A42464
:102CF000B5F9740335F0FA7B017D01129F4475F03C
:102D000029E53EA424BCF582E5F03403F583E054C4
:102D10000FF07F0122E53EC454F024EEF582E43446
:102D200004F583E06403600302339FAF3E12E18B3E
:102D3000EF700302339F7F0122AF3E900288E0FED6
:102D4000A807088002C313D8FC540125E0FEE42440
:102D500000F55BEE34F0F55AE43403F559E433F54D
:102D600058E53E75F040A4FFE4EF255BFFE5F03544
:102D70005AFEE43559FDE43558FC75600075610173
:102D800075620075630075644112D8FA75F029E523
:102D90003EA424B4F582E5F03403F583E0FF6541F9
:102DA0006047EF6440703F75F029E53EA424B5F517
:102DB00082E5F03403F583E0FFC4540FFF75F0297A
:102DC000E53EA424C7F582E5F03403F583EFF07502
:102DD000F029E53EA424B5F582E5F03403F583E05F
:102DE000540FF07F01227F0022E53E75F040A4FFE2
:102DF000E4EF255BFFE5F0355AFEE43559FDE43597
:102E000058FCEF2401FFE43EFEE43DFDE43CFC758C
:102E1000600075610175620075630075645712D8B2
:102E2000FAE53E75F040A4FFE4EF255BFFE5F035E1
:102E30005AFEE43559FDE43558FCEF2402FFE43E28
:102E4000FEE43DFDE43CFC75600075613C7A05796B
:102E50007375620175630575647312D8FAE4F54001
:102E6000E540C39557400302339FE54075F00AA43F
:102E70002473F582E43405F583E012280C30AF4268
:102E800030AF442E9F453297462E9F4F32D9522F56
:102E900017532FCF572F175830AF5A0000339AE4EB
:102EA000F53FF54275F029E53EA424B5F582E5F03D
:102EB0003403F583E5822542F582E43583F583E02A
:102EC000FFE54075F00AA42475F582E43405F58326
:102ED000E5822542F582E43583F583E0FD120003A7
:102EE000EF253FF53F0542E542C3940840B6E54073
:102EF00075F00AA42473F582E43405F583E0B44543
:102F00000BE53F20E00302339A7F0022E53F30E0EB
:102F10000302339A7F0022E53E75F029A424B5F917
:102F2000740335F0FA7B0178447C007D007E007FDD
:102F3000081224EEE54075F00AA42473F582E43407
:102F400005F583E0B453057543028003754301E53D
:102F50004075F00AA42475F9740535F0FA7B01C0B8
:102F600003C001E53E75F029A424B5F9740335F0DA
:102F70008B5FF5608961D001D00312E362E5407593
:102F8000F00AA42473F9740535F0FA7B01C003C07C
:102F900001E53E75F029A424B5F9740335F08B5F83
:102FA000F5608961D001D00312D0338F3FE53E75C3
:102FB000F029A424B5F9740335F0A801FC7D017B48
:102FC000007A0079447E007F081224EE02339AE5ED
:102FD0003E75F029A424B5F9740335F0FA7B017825
:102FE000447C007D007E007F081224EEE54075F0F1
:102FF0000AA42475F9740535F0FA7B01C003C001F9
:10300000E53E75F029A424B5F9740335F08B5FF51E
:10301000608961D001D00312E36275F029E53EA416
:1030200024BCF582E5F03403F583C083C082E0FF61
:10303000E54075F00AA4247CF582E43405F583E0CC
:10304000FEEF5ED082D083F0E54075F00AA4247CC8
:10305000F582E43405F583E0523F75F029E53EA49E
:1030600024BCF582E5F03403F583E0FF653F601D85
:10307000E543B40115E53F540FFEBE0F0A053FE5D9
:103080003F6F60097F00227F00227F0022E53E75AE
:10309000F029A424B5F9740335F0A801FC7D017B67
:1030A000007A0079447E007F081224EE02339AE50C
:1030B0004004F541E541C395575066E54175F00A76
:1030C000A42473F582E43405F583E06446704EF57C
:1030D00042E54075F00AA42475F582E43405F583D1
:1030E000E5822542F582E43583F583C083C082E022
:1030F000FFE54175F00AA42475F582E43405F583F3
:10310000E5822542F582E43583F583E0FEEF4ED07B
:1031100082D083F00542E542B408B68004054180C0
:10312000937E007F087D007B007A00794C122A098B
:10313000E54075F00AA42473F582E43405F583E0D4
:10314000645A600302320AE54075F00AA42475F956
:10315000740535F0755F01F5608961E53E75F0290C
:10316000A424B5F9740335F0756201F56389647BB5
:10317000007A00794C12BEDFE541C3955740030247
:10318000339A78447C007D007B007A00794C7E0085
:103190007F081224EEE54075F00AA42475F9740541
:1031A00035F0FA7B01C003C001E54175F00AA424A3
:1031B00075F9740535F08B5FF5608961D001D00336
:1031C00012E3627E007F027D007B007A0079541258
:1031D0002A09E54175F00AA42475F9740535F0FA59
:1031E0007B01C0031B8B5F756000756144D00312C7
:1031F000E36278547C007D007B007A00794A7E008F
:103200007F021224EE054002339AE53E75F029A4B0
:1032100024B5F9740335F0FA7B0178447C007D0015
:103220007E007F081224EEE54075F00AA42475F9AB
:10323000740535F0FA7B01C003C001E53E75F02945
:10324000A424B5F9740335F08B5FF5608961D00172
:10325000D00312E3627B007A00794CE54075F00AF6
:10326000A42473F582E43405F583E0F560853E61BE
:10327000AD4012B911E53E75F029A424B5F97403E7
:1032800035F0A801FC7D017B007A0079447E007F47
:10329000081224EE02339AE54075F00AA42475F969
:1032A000740535F0FA7B01C003C001E53E75F029D5
:1032B000A424B5F9740335F08B5FF5608961D00102
:1032C000D00312E3627B007A007954756046853E34
:1032D00061AD4012B91102339AE53E75F029A4247C
:1032E000B5F9740335F0FA7B0178447C007D007EEB
:1032F000007F081224EEE54075F00AA42475F974E5
:103300000535F0FA7B01C003C001E53E75F029A444
:1033100024B5F9740335F08B5FF5608961D001D075
:103320000312E3627E007F087D007B007A00794C07
:10333000122A097B007A00794C756052853E61AD96
:103340004012B911AF4012DDC08F41E54154076012
:1033500010E541131313541FFFC374079FF54180F9
:103360000EE541131313541FFFC374089FF54175F5
:103370003F07E541C3953F5021744C2541F9E4FADC
:10338000FBC001744C253FF9E4F55FF5608961D01D
:103390000112E619153F054180D80540022E60E56F
:1033A0004065577041E53E75F002A4243EF9740271
:1033B00035F0A801FC7D017B007A0079547E007F06
:1033C000021224EEE53E75F029A424B5F974033504
:1033D000F0A801FC7D017B007A00794C7E007F081B
:1033E0001224EE7F01227F00229003367437F0A36F
:1033F00074C1F09005F6E0FF900001E04F900338B3
:10340000F0E4F52D90003FE0FFE52DC39F502C74B4
:1034100086252DF582E43403F583E0D3940040172C
:1034200090033AE0FFAE2D7401A806088002C33372
:10343000D8FC4F90033AF0052D80C9E490033CF08E
:10344000F52D900036E0FFE52DC39F400302354681
:10345000E4F530E52D75F00FA4244AF582E434003C
:10346000F583E024FD600E14602114601E24FE60CC
:10347000042407702AE52D540325E0FF7401A807F2
:10348000088002C333D8FCF5308014E52D540325A1
:10349000E0FF7402A807088002C333D8FCF530E5CA
:1034A0002D1313543F243DF582E43403F583E045A6
:1034B00030F0E4F5307453252DF582E43402F583C1
:1034C000E014602114601E1460071460042404706A
:1034D00025E52D5407FF7401A807088002C333D8DF
:1034E000FCF5308011E52D5407FFE4A807088002A1
:1034F000C333D8FCF530E52D131313541FFF2440BC
:10350000F582E43403F583E04530F0E4F530E52D51
:1035100075F00FA4244EF582E43400F583E0B40383
:1035200012E52D5407FE7401A806088002C333D8A3
:10353000FCF53074422FF582E43403F583E0453026
:10354000F0052D023442900002E024FE601424FBBA
:10355000501824FD501C2409701E9003497401F07A
:1035600080169003497402F0800E9003497403F0B2
:1035700080069003497404F0300507900349E04445
:1035800080F09003C8E0FFC454F0FF90039FE05424
:103590000F4F900344F090041AE0FFC454F0FF90E2
:1035A00003F1E0540F4F900345F090046CE0FFC42A
:1035B00054F0FF900443E0540F4F900346F0900402
:1035C000BEE0FFC454F0FF900495E0540F4F900309
:1035D00047F090039EE0900348F0900299E07F004E
:1035E000FEA3E07C002400FFEC3ECF24FFCF34FF9D
:1035F000FEE48F348E33F532F5317F207E4EFDAB05
:1036000034AA33A932A831C312275E4009E4F53445
:10361000F533F532F5317E007F247D007B017A039E
:10362000794A122A09E5342401FFE43533F5368F4F
:1036300037F5388F39E47FFF7EFFFDFCAB34AA33CA
:10364000A932A831C312275E7003023790E4F52D2A
:1036500090068CE0FEA3E0FFE4FCFDAB34AA33A9A6
:1036600032A831C312275E700302377EE47F10FE5A
:10367000FDFCA831122641E42FFFE43EFEED341498
:10368000FDEC3480FCC006C007756000756110E574
:103690002D75F010A4244AF9740335F0756201F514
:1036A000638964D007D00612D8FAE5342401FFE418
:1036B0003533FEE52D25E02436F8A60608A607E4F6
:1036C0007F1F7E4EFDFCAB34AA33A932A831C31252
:1036D000275E400BE4F534F533F532F5318015E51E
:1036E000342401F534E43533F533E43532F532E48E
:1036F0003531F531AE33AF34900250EEF0A3EFF038
:10370000787776FFE42FFFE43EFEE4341AFDE434DC
:1037100080FC754E00754F01755000755100755253
:103720007712D6CBE47877F6900250E0FEA3E0FF64
:103730004E6025E4EF24FFFFEE34FFFEE43419FD74
:10374000E43480FC754E00754F01755000755100D2
:1037500075527712D6CB801A754E00754F01755091
:10376000007551007552777F1F7E4E7D1A7C801246
:10377000D6CB052DE52DC394025003023650E53615
:1037800090036AF0A3E537F0E538A3F0A3E539F03C
:10379000900297E0D394035003023931E4F52D9061
:1037A0000297E024FAFFE52DC39F400302393174EC
:1037B0009B252DF582E43402F583E07F00FE749CA6
:1037C000252DF582E43402F583E07C002400FFEC33
:1037D0003ECF24FFCF34FFFEE48F348E33F532F535
:1037E00031C2D7E5345407FFE404A807088002C3B8
:1037F00033D8FCF52EE4F52F900277E0FFE52FC3D8
:103800009F4003023928E52FC454F0FEE42400F55C
:103810003DEE3480F53CE43402F53BE433F53AE424
:103820007B08FAF9F8AF34AE33AD32AC311226CCA6
:10383000EF253DFFEE353CFEED353BFDEC353AFC2A
:1038400075600075610175620075630075647712BB
:10385000D8FAE52F30E0087535F075301080067520
:10386000350F753001E52FC313252D249DF582E416
:103870003402F583E05535B5303B7877E6452EF6D2
:10388000E47B08FAF9F8AF34AE33AD32AC3112262E
:10389000CCEF253DFFEE353CFEED353BFDEC353AFA
:1038A000FC754E00754F01755000755100755277CB
:1038B00012D6CB806EE53025E0F530E52FC3132519
:1038C0002D249DF582E43402F583E0553565307092
:1038D0005275F029E52FA424C3F582E5F03403F5F1
:1038E00083E0FF12E232EF603AE52EF4787756F685
:1038F000E47B08FAF9F8AF34AE33AD32AC311226BE
:10390000CCEF253DFFEE353CFEED353BFDEC353A89
:10391000FC754E00754F017550007551007552775A
:1039200012D6CB052F0237F87406252DF52D023758
:103930009F228F408D418B42E4F544F543E540548E
:10394000F024E0605024F070030239D924F07003B1
:10395000023A3C24F07003023A7124D07003023A18
:10396000A524F07003023AFC24806003023AFFE5CC
:103970004124FE24FD5012600D24FD24FD5010242E
:103980000A6003023AFF754301854143023AFF751D
:103990004305023AFFE54124FE602014601724F23B
:1039A000601F14602214602524F224FD5025242376
:1039B0006003023AFF754311023AFF754312023A5F
:1039C000FF754313023AFF754314023AFF7543151E
:1039D000023AFF754316023AFFE54012280C3A00FE
:1039E000313A06323A0C333A12343A18353A1E3626
:1039F0003A24373A2A383A363A3A303C00003AFF0D
:103A0000754321023AFF754322023AFF75432302B0
:103A10003AFF754325023AFF754327023AFF754383
:103A200028023AFF754329023AFF75432B023AFFF9
:103A300075432D023AFF754330023AFFE54024BC3E
:103A4000601724FD601914601C14601F24066003B5
:103A5000023AFF754331023AFF754332023AFF756D
:103A60004333023AFF754334023AFF754335023A55
:103A7000FFE54024AE601514601714601914601B34
:103A800014601D240570787543418073754342802E
:103A90006E75434380697543448064754345805F18
:103AA000754347805AE540247FB408005051903A4E
:103AB000BC75F003A4C58325F0C58373023AD40214
:103AC0003AD9023ADE023AE3023AE8023AED023A21
:103AD000F2023AF77543718026754372802175436F
:103AE00073801C7543748017754375801275437617
:103AF000800D75437780087543788003754381E5B1
:103B00004212280C3B8F013B8F113B94123B9913BF
:103B10003B9E143BA3153BA8163BAD173BB2183B8D
:103B20008F213B94223B99233B9E243BA3253BA81A
:103B3000263BAD273BB2283B8F413B94423B994308
:103B40003B9E443BA3453BA8463BAD473BB2483B6D
:103B5000B7493BBE4A3BC54B3BCC4C3B8F513B949A
:103B6000523B99533B9E543BA3553BA8563BAD5704
:103B70003BB2583B8F613B94623B99633B9E643BF5
:103B8000A3653BA8663BAD673BB26800003BD175BF
:103B90004401803D75440280387544048033754487
:103BA00008802E7544108029754420802475444077
:103BB000801F754480801A75440105438013754445
:103BC000020543800C7544040543800575440805CF
:103BD00043900013E030E006900025E07029E543B3
:103BE0006025FFE4EF248FFFE43402FEE433FDE4BC
:103BF0003480FC7560007561017562007563007545
:103C0000644512D8FA8006754401754501E54555AD
:103C1000447003023E257E007F107D007B007A0009
:103C20007977122A09900021E0FF5470FE25E0FE0A
:103C300090001FE04E7877F6A3E0FEC454F0FEEF4C
:103C4000540F4E08F690001CE008F6A3E008F6A317
:103C5000E008F608A64008A64108A642E540B4617F
:103C600015E541C39406400EE541940C50089002BE
:103C700006E0FF12D180E540D3941F4073E54094E5
:103C800030506DE54164016035E5416402602FE527
:103C900041642A6029E54164266023E54164276088
:103CA0001DE54164036017E54164356011E5416439
:103CB00037600BE54164396005E541B43A2A900468
:103CC000ECE075F008A424B3F9740535F0FA7B0133
:103CD000787F7C007D007E007F081224EEE5406442
:103CE00023600D12776F8008900206E0FF12D180EA
:103CF000E540C39420400FE540D3948F5008E54041
:103D00005470FFBF7008900206E0FF12D180900649
:103D10008CE0FEA3E0FFE4FCFD7B10FAF9F812262C
:103D200041E42FFFE43EFEED3414FDEC3480FC75DD
:103D30004E00754F1075500075510075527712D6B0
:103D4000CBE4F54690068CE0FEA3E0FFE4E42FFF11
:103D5000EE3450FEE4341AFDE43480FC754E0075F8
:103D60004F0175500075510075524612D6CBC39065
:103D7000068DE0941F90068CE0944E4006E4F0A37C
:103D8000F0800E90068DE004F0700690068CE00442
:103D9000F090068CE0F548A3E0F5497E007F107DA9
:103DA000FF7B007A007977122A0990068CE0FEA347
:103DB000E0FFE4E42FFFEE3450FEE4341AFDE43477
:103DC00080FC754E00754F0175500075510075529D
:103DD0007712D6CBE4F547AE48AF49E4FCFD7B1043
:103DE000FAF9F8122641E42FFFE43EFEED3414FD0B
:103DF000EC3480FC754E00754F1075500075510005
:103E000075527712D6CB0549E54970020548C3942F
:103E10001FE548944E4005E4F548F5490547E54758
:103E2000C3940440B2228B3C8A3D893EAB3FAA40FA
:103E3000A941122514540FFEAF061EEF6010AB3CD3
:103E4000AA3DA93E740112255A30D7EC80EAAB3F57
:103E5000AA40A94112251454F0FFC4540FFE74FF68
:103E60002541F54174FF3540F540AF061EEF601562
:103E7000AB3CAA3DA93E740A12255A30D7EC7D010D
:103E800012E15180E5AB3FAA40A941122514540F1D
:103E9000FEAF061EEF6015AB3CAA3DA93E7464124E
:103EA000255A30D7EC7D0112E15180E5AB3FAA40A5
:103EB000A94112251454F0FFC4540FFE74FF25418C
:103EC000F54174FF3540F540AF061EEF602BAB3C6B
:103ED000AA3DA93E74E812255A30D7057D0112E1AA
:103EE00051AB3CAA3DA93E90FFFF740312257C30E4
:103EF000D7D67D0212E15180CFAB3FAA40A9411233
:103F00002514540FFEAF061EEF602BAB3CAA3DA953
:103F10003E741012255A30D7057D0112E151AB3C99
:103F2000AA3DA93E90FFFF742712257C30D7D67D8D
:103F30000212E15180CFAB3FAA40A941122514548F
:103F4000F0FFC4540FFE74FF2541F54174FF354066
:103F5000F540AF061EEF6041AB3CAA3DA93E74A000
:103F600012255A30D7057D0112E151AB3CAA3DA97B
:103F70003E90FFFF748612257C30D7057D0212E14A
:103F800051AB3CAA3DA93E90FFFE740112257C3046
:103F9000D7C07D0312E15180B9AB3FAA40A94112BD
:103FA0002514540FFEAF061EEF6041AB3CAA3DA99D
:103FB0003E744012255A30D7057D0112E151AB3CC9
:103FC000AA3DA93E90FFFF744212257C30D7057DA3
:103FD0000212E151AB3CAA3DA93E90FFFE740F12C4
:103FE000257C30D7C07D0312E15180B9AB3FAA4098
:103FF000A94112251454F0FFC4540FFE74FF25414B
:10400000F54174FF3540F540AF061EEF6041AB3C13
:10401000AA3DA93E748012255A30D7057D0112E1D0
:1040200051AB3CAA3DA93E90FFFF749612257C300F
:10403000D7057D0212E151AB3CAA3DA93E90FFFE9F
:10404000749812257C30D7C07D0312E15180B9AB42
:104050003FAA40A941122514540FFEAF061EEF607F
:1040600044AB3CAA3DA93E90FFFF74E112257C3091
:10407000D7057D0212E151AB3CAA3DA93E90FFFE5F
:1040800074F512257C30D7057D0312E151AB3CAAB3
:104090003DA93E90FFFD740512257C30D7BD7D04FF
:1040A00012E15180B6AB3FAA40A94112251454F049
:1040B000FFC4540FFE74FF2541F54174FF3540F5F0
:1040C00040AF061EEF6044AB3CAA3DA93E90FFFF07
:1040D00074CA12257C30D7057D0212E151AB3CAA8F
:1040E0003DA93E90FFFE749A12257C30D7057D03D2
:1040F00012E151AB3CAA3DA93E90FFFD743B122555
:104100007C30D7BD7D0412E15180B6AB3FAA40A9F7
:1041100041122514540FFEAF061EEF605AAB3CAAA5
:104120003DA93E90FFFF74E412257C30D7057D0247
:1041300012E151AB3CAA3DA93E90FFFE740B122543
:104140007C30D7057D0312E151AB3CAA3DA93E90DE
:10415000FFFD745412257C30D7057D0412E151AB6C
:104160003CAA3DA93E90FFFC740212257C30D7A7E3
:104170007D0512E15180A0AB3FAA40A94112251450
:1041800054F0FFC4540FFE74FF2541F54174FF3510
:1041900040F540AF061EEF605AAB3CAA3DA93E90E9
:1041A000FFFF74E812257C30D7057D0212E151AB88
:1041B0003CAA3DA93E90FFFE747612257C30D705BF
:1041C0007D0312E151AB3CAA3DA93E90FFFD74482E
:1041D00012257C30D7057D0412E151AB3CAA3DA9E4
:1041E0003E90FFFC741712257C30D7A77D0512E1A5
:1041F0005180A0AB3FAA40A941122514540FFEAF35
:10420000061EEF605AAB3CAA3DA93E90FFFF74101A
:1042100012257C30D7057D0212E151AB3CAA3DA9A5
:104220003E90FFFE74A512257C30D7057D0312E178
:1042300051AB3CAA3DA93E90FFFD74D412257C30C1
:10424000D7057D0412E151AB3CAA3DA93E90FFFC8D
:1042500074E812257C30D7A77D0512E15180A0AB10
:104260003FAA40A94112251454F0FFC4540FFE7414
:10427000FF2541F54174FF3540F540AF061EEF6064
:1042800070AB3CAA3DA93E90FFFF74A012257C3084
:10429000D7057D0212E151AB3CAA3DA93E90FFFE3D
:1042A000747212257C30D7057D0312E151AB3CAA14
:1042B0003DA93E90FFFD744E12257C30D7057D044C
:1042C00012E151AB3CAA3DA93E90FFFC74181225A7
:1042D0007C30D7057D0512E151AB3CAA3DA93E904B
:1042E000FFFB740912257C30D7917D0612E15180C5
:1042F0008A22E4F52B900277E0FFE52BC39F400371
:1043000002479675F029E52BA424ACF582E5F0343C
:1043100003F583E06404707075F029E52BA424ACE8
:10432000F582E5F03403F583E4F075F029E52BA47C
:1043300024ABF582E5F03403F583E0FF75F029E561
:104340002BA4249FF582E5F03403F583EFF075F09C
:1043500029E52BA4249FF582E5F03403F583E004DE
:10436000F52CE52B2421FBAD2C7F53123932900321
:104370009EE0FFAE2B7401A806088002C333D8FC70
:104380004F90039EF002449C75F029E52BA424ACC9
:10439000F582E5F03403F583E06401600302449C98
:1043A00090039EE0FFAE2B7401A806088002C33381
:1043B000D8FCF45F90039EF075F029E52BA424ACA3
:1043C000F582E5F03403F583E4F075F029E52BA4DC
:1043D00024AAF582E5F03403F583E064026047E542
:1043E0002BC454F024EFF582E43404F583E0FF7528
:1043F000F029E52BA4249FF582E5F03403F583EF43
:10440000F0E52BC454F024EFF582E43404F583E0A6
:1044100004F52CE52B2421FBAD2C7F54123932AF4F
:104420002B12E8A7807675F029E52BA4249FF5824E
:10443000E5F03403F5837405F075F029E52BA42429
:104440009FF582E5F03403F583E004F52CE52B2499
:1044500021FBAD2C7F541239327B017A0079137D18
:104460000212E9BAE52B75F030A4FFE4EF2420FF37
:10447000E5F03401FEE433FDE43480FC7560007542
:1044800061017A057973756201756305756473124C
:10449000D8FA900573E0FDAF2B12E896748A252BAD
:1044A000F582E43402F583E0FF700302465424FEF3
:1044B000700302459624FE7003024596240324FBF4
:1044C00050087003024596024654EF640170587517
:1044D000F029E52BA4249FF582E5F03403F58374DD
:1044E00005F07B017A0079137D0212E9BAE52B759C
:1044F000F030A4FFE4EF2420FFE5F03401FEE433C4
:10450000FDE43480FC7560007561017A057973758E
:10451000620175630575647312D8FA900573E0FD46
:10452000AF2B12E8968042748A252BF582E4340280
:10453000F583E0B4031575F029E52BA4249FF582DB
:10454000E5F03403F5837406F0801E75F029E52B41
:10455000A4249FF582E5F03403F5837407F07B0112
:104560007A0079137D0412E9BA75F029E52BA424A9
:104570009FF582E5F03403F583E004FDE52B24216B
:10458000FB7F3A123932748A252BF582E43402F526
:1045900083E4F0024654748A252BF582E43402F554
:1045A00083E4F075F029E52BA424AAF582E5F03424
:1045B00003F583E064026029E52BC454F024EFF591
:1045C00082E43404F583E0FF75F029E52BA4249FF1
:1045D000F582E5F03403F583EFF0AF2B12E8A78006
:1045E0005675F029E52BA4249FF582E5F03403F5F8
:1045F000837405F07B017A0079137D0212E9BAE534
:104600002B75F030A4FFE4EF2420FFE5F03401FE29
:10461000E433FDE43480FC7560007561017A05794E
:104620007375620175630575647312D8FA9005732A
:10463000E0FDAF2B12E89675F029E52BA4249FF539
:1046400082E5F03403F583E004FDE52B2421FB7FB4
:104650003A12393275F029E52BA424AAF582E5F047
:104660003403F583E064016003024726E52BC4545C
:10467000F024F0F582E43404F583E0C3942050582C
:1046800075F029E52BA4249FF582E5F03403F5832A
:104690007405F07B017A0079137D0212E9BAE52BEB
:1046A00075F030A4FFE4EF2420FFE5F03401FEE4D0
:1046B00033FDE43480FC7560007561017A0579731F
:1046C00075620175630575647312D8FA900573E01D
:1046D000FDAF2B12E896801E75F029E52BA4249FD0
:1046E000F582E5F03403F5837407F07B017A0079F5
:1046F000137D0412E9BA75F029E52BA4249FF582F5
:10470000E5F03403F583E004FDE52B2421FB7F4332
:1047100012393275F029E52BA424AAF582E5F0348C
:1047200003F5837402F075F029E52BA424AAF58221
:10473000E5F03403F583E064037056E52BC454F0D0
:1047400024EFF582E43404F583E0FF75F029E52BCE
:10475000A4249FF582E5F03403F583EFF075F0298A
:10476000E52BA4249FF582E5F03403F583E004FDF6
:10477000E52B2421FB7F4412393275F029E52BA467
:1047800024AAF582E5F03403F583E4F0AF2B12E8B8
:10479000A7052B0242F5229004E9E0601314F070A3
:1047A0000F531BF7F519F5189001D5F0D29CC2B242
:1047B00090021FE0600214F0900225E0600214F005
:1047C000900678E0600214F090022AE0600214F093
:1047D000900224E0600214F0E4F53590003FE0FF21
:1047E000E535C39F502074142535F582E43400F577
:1047F00083E0600E74142535F582E43400F583E01F
:1048000014F0053580D5E4F535900277E0FFE53505
:10481000C39F40030248B475F029E535A424C0F5D0
:1048200082E5F03403F583E070030248AF75F029A8
:10483000E535A424C0F582E5F03403F583E014F0F7
:10484000706DE53575F029A424AEF9740335F0FADE
:104850007B017D0112E9BAE535B40800505190485A
:1048600065F828287302487D02488602488F02486E
:10487000980248A10248A50248A90248ADE4900266
:1048800034F0C2108029E4900571F0C2118020E458
:10489000900571F0C2128017E4900234F0C21380C8
:1048A0000EC218800AC2198006C21A8002C21B05F5
:1048B000350248099004E8E004F0C3946250030212
:1048C0004B5FE4F0900025E0600214F0E4F53590D1
:1048D0000277E0FFE535C39F503FE53575F006A44C
:1048E00024D7F582E43401F583E06029E53575F0DD
:1048F00006A424D7F582E43401F583E014F0E5350D
:1049000075F006A424D7F582E43401F583E0700540
:10491000AF3512001E053580B6900235E0600214F6
:10492000F0E4F536900277E0FFE536C39F400302DE
:1049300049EF75F029E536A424A9F582E5F03403A2
:10494000F583E0601375F029E536A424A9F582E526
:10495000F03403F583E014F0E4F537E53675F00F35
:10496000A424F9F582E43405F583E5822537F58240
:10497000E43583F583E06066E53675F00FA424F92D
:10498000F582E43405F583E5822537F582E4358345
:10499000F583E014F0E53675F00FA424F9F582E410
:1049A0003405F583E5822537F582E43583F583E028
:1049B000702CE53675F029A424AEF9740335F0FAAD
:1049C0007B017D4012E9BAE5376013E53675F029C1
:1049D000A424AEF9740335F0FA7D1012E9BA053754
:1049E000E537C39402500302495B0536024924E4CB
:1049F000F536900040E0FFE536C39F502CE53625A4
:104A0000E0247AF582E43406F583E0FEA3E04E600C
:104A100014E53625E0247AF582E43406F58374FF44
:104A2000F5F012262B053680C9E4F536900036E005
:104A3000FFE536C39F5054E53675F00FA42447F5C3
:104A400082E43400F583E0FEA3E04E6016E536759F
:104A5000F00FA42447F582E43400F58374FFF5F0E9
:104A600012262BE53675F00FA4244FF582E43400AE
:104A7000F583E06012E53675F00FA4244FF582E46B
:104A80003400F583E014F0053680A1E4F53690009B
:104A90003FE0FFE536C39F502CE53625E02403F5C3
:104AA00082E43400F583E0FEA3E04E6014E5362591
:104AB000E02403F582E43400F58374FFF5F0122658
:104AC0002B053680C9E4F535900040E0FFE535C39D
:104AD0009F4003024B5FE53575F01BA42407F58268
:104AE000E43401F583E0FEA3E04E6016E53575F091
:104AF0001BA42407F582E43401F58374FFF5F0125A
:104B0000262BE53575F01BA4240BF582E43401F562
:104B100083E0FEA3E04E6016E53575F01BA4240B80
:104B2000F582E43401F58374FFF5F012262BE535A8
:104B300075F01BA4240DF582E43401F583E0FEA397
:104B4000E04E6016E53575F01BA4240DF582E434C3
:104B500001F58374FFF5F012262B0535024AC822B1
:104B60008F368C378D38753F01E4F53CF53DF53EC9
:104B7000E536F47003024F0FC3E5389440E53794EF
:104B8000005033E538AE377803C333CE33CED8F98F
:104B9000FFE4EF2404FFEE3408FEE433FDE4348048
:104BA000FC75600075610175620075630075643A9B
:104BB00012D8FA024CBAC3E53894A0E537940050F5
:104BC0003AE53824C0FFE53734FFFEEF7803C333FE
:104BD000CE33CED8F9FFE4EF2404FFEE341CFEE41C
:104BE00033FDE43480FC7560007561017562007509
:104BF000630075643A12D8FA024CBAC3E53894E0FF
:104C0000E53794005039E5382460FFE53734FFFE7E
:104C1000EF7803C333CE33CED8F9FFE4EF2404FF9B
:104C2000EE3420FEE433FDE43480FC7560007561F1
:104C30000175620075630075643A12D8FA807BC30F
:104C4000E5389420E53794015039E5382420FFE514
:104C50003734FFFEEF7803C333CE33CED8F9FFE409
:104C6000EF2404FFEE3422FEE433FDE43480FC75CF
:104C7000600075610175620075630075643A12D851
:104C8000FA8037E53824E0FFE53734FEFEEF78039D
:104C9000C333CE33CED8F9FFE4EF2404FFEE34243F
:104CA000FEE433FDE43480FC7560007561017562DB
:104CB0000075630075643A12D8FAAF3A12E2328F87
:104CC0003AE5367003024EB5E53A7003024E41AF45
:104CD00038AE3712A6D3787CE630E011753C6378A5
:104CE00077E6F53DAF38AE3712C62D8F3EC3E538B7
:104CF0009440E53794004003024D94E538AE377890
:104D000003CEC313CE13D8F9F5397877E664816002
:104D10005B787AE624EE602D046003024E2A74016B
:104D20007E00A839088005C333CE33CED8F9FF9072
:104D300006A3E0FDE4EF5D6006753F01024E2AE444
:104D4000F53F024E2A74017E00A839088005C3335E
:104D5000CE33CED8F9FF9006A3E0FDE4EF5D600608
:104D6000E4F53F024E2A753F01024E2A74017E008F
:104D7000A839088005C333CE33CED8F9FF9006C9D1
:104D8000E0FDE4EF5D6003024F027D01AF3912E305
:104D900032024E2AE53824C0FFE53734FFFEEF78B3
:104DA00003CEC313CE13D8F9F5397877E664816062
:104DB00044787AE624EE602004706FE53975F00FD0
:104DC000A42442F582E43400F583E030E105E4F503
:104DD0003F8057753F018052E53975F00FA424429A
:104DE000F582E43400F583E030E105753F01803A57
:104DF000E4F53F803574017E00A839088005C3338F
:104E0000CE33CED8F9FF9006A0E0FCA3E0FDEC5E27
:104E1000FAED5F4A6003024F02753F01EC4EFEED72
:104E20004FFF9006A0EEF0A3EFF0787AE6FF18E6C9
:104E3000FD7C00853744853845AB3F127F04024F27
:104E400002AF38AE3712A6D3E53824C0FFE53734B9
:104E5000FFFEEF7803CEC313CE13D8F9F539787778
:104E6000E664816003024F02047E00A839088005D1
:104E7000C333CE33CED8F9FF9006A0E0FCA3E0FD0B
:104E8000EC5EFAED5F4A607AE4F53FEFF4FFEEF492
:104E9000FEEC5EFEED5FFF9006A0EEF0A3EFF07873
:104EA0007AE6FF18E6FD7C00853744853845AB3F40
:104EB000127F04804DAF38AE3712A6D3E538AE3737
:104EC0007803CEC313CE13D8F9F539FF74017E00F1
:104ED000A807088005C333CE33CED8F9FF9006C9A2
:104EE000E0FDE4EF5D601BE4FDAF3912E332787A58
:104EF000E6FF18E6FD7C00853744853845E4FB1263
:104F00007F04E53CB46308AB3EAD3DFF123932226D
:104F1000E4F535900036E0FFE535C39F40030252CB
:104F2000A4E53575F00FA4244AF582E43400F58336
:104F3000E0B40A00400302527C904F40F8282873E6
:104F4000024F5E02500A0250450250F302512D02F8
:104F5000517302518802519D0251B2025219E53536
:104F600075F00FA4244BF582E43400F583E064026D
:104F7000706CE53575F00FA42441F582E43400F53A
:104F800083E07045E53575F008A4FFE4EF2406FFE3
:104F9000E5F03404FEE433FDE43480FC7560007514
:104FA000610275620075630075643612D8FAAF3716
:104FB000AE3612E7E5E53575F00FA42447F582E437
:104FC0003400F583EEF0A3EFF0E53575F00FA4247F
:104FD0004AF582E43400F5837408F002529FE53507
:104FE00075F00FA4244BF582E43400F583E06403EC
:104FF000600302529FE53575F00FA4244AF582E460
:105000003400F5837405F002529FAF3512E7CBEF01
:10501000600CE5352441FBE4FD7F34123932E5357F
:1050200075F00FA4244AF582E43400F5837402F08D
:10503000E53575F00FA42442F582E43400F583745D
:1050400002F002529FE53575F00FA4244BF582E47F
:105050003400F583E06401706EE53575F00FA4242B
:1050600041F582E43400F583E064017045E535756F
:10507000F008A4FFE4EF2406FFE5F03404FEE43377
:10508000FDE43480FC756000756102756200756333
:105090000075643612D8FAAF37AE3612E7E5E5355B
:1050A00075F00FA42447F582E43400F583EEF0A3F5
:1050B000EFF0E53575F00FA4244AF582E43400F5ED
:1050C000837409F002529FE53575F00FA4244BF567
:1050D00082E43400F583E06403600302529FE53507
:1050E00075F00FA4244AF582E43400F5837405F0CA
:1050F00002529FAF3512E7CBEF600CE5352441FB40
:10510000E4FD7F33123932E53575F00FA4244AF5FA
:1051100082E43400F583E4F0E53575F00FA4244211
:10512000F582E43400F5837401F002529FE5357591
:10513000F00FA4244BF582E43400F583E0FFB402C1
:1051400015E53575F00FA4244AF582E43400F583A3
:105150007406F002529FEF6401600302529FE5352E
:1051600075F00FA4244AF582E43400F5837407F047
:1051700002529FE53575F00FA4244AF582E434000D
:10518000F5837404F002529FE53575F00FA4244AAC
:10519000F582E43400F5837401F002529FE5357521
:1051A000F00FA4244AF582E43400F5837403F0027E
:1051B000529FE53575F00FA4244BF582E43400F5D9
:1051C00083E0B40126E53575F00FA4244AF582E4A6
:1051D0003400F583E4F0E53575F00FA42442F58240
:1051E000E43400F5837401F002529FE53575F00F49
:1051F000A42447F582E43400F583E0FEA3E04E608A
:105200000302529FE53575F00FA4244AF582E43479
:1052100000F5837401F002529FE53575F00FA42468
:105220004BF582E43400F583E0B40226E53575F0F1
:105230000FA4244AF582E43400F5837402F0E535C6
:1052400075F00FA42442F582E43400F5837402F073
:10525000804DE53575F00FA42447F582E43400F560
:1052600083E0FEA3E04E7037E53575F00FA4244AC5
:10527000F582E43400F5837403F08023E53575F09E
:105280000FA4244AF582E43400F583E4F0E5357593
:10529000F00FA42442F582E43400F5837401F00594
:1052A00035024F13228F2BE4FFE52BB40800505535
:1052B0009052B7F82828730252CF0252D60252DD1C
:1052C0000252E40252EB0252F20252F9025300A2DD
:1052D00010E433FF802FA211E433FF8028A212E4F0
:1052E00033FF8021A213E433FF801AA218E433FFB6
:1052F0008013A219E433FF800CA21AE433FF800567
:10530000A21BE433FFEF700302563875F029E52B3A
:10531000A424B4F582E5F03403F583E4F075390193
:10532000F52CE52CC39450504475F029E52BA424AA
:10533000B5F582E5F03403F583E054F8F53A64D02E
:105340006005E53AB4B01DE4F539E53AC4540FF50B
:1053500037E4F52DAF2B129019052DE52DC39405DB
:1053600040F28009AF2B129019052C80B5E5396009
:10537000030254ECFE7F08FDFB7A007977122A09BC
:10538000E4F53B753903F52C75F029E52BA424B51C
:10539000F582E5F03403F583E0FFC4540F6237EF84
:1053A00054F8FFBFF81FE4F52DAF2B129019052D0F
:1053B000E52DC3940540F2E539640360030254EF20
:1053C000F5390254EFE4F52DE52D64047003025421
:1053D0006AE53B600302546AC2D77877E6FF25E0AE
:1053E000F608E6FF25E0F630D70518E64401F67822
:1053F00079E6FF25E0F630D70518E64401F6787A1D
:10540000E6FF25E0F630D70518E64401F6787BE69E
:10541000FF25E0F630D70518E64401F6787CE6FF74
:1054200025E0F630D70518E64401F6787DE6FF253D
:10543000E0F630D70518E64401F6787EE6FF25E071
:10544000F630D70518E64401F675F029E52BA424BB
:10545000B5F582E5F03403F583E030E706787EE6C3
:105460004401F6AF2B1290198068787EE6540FB491
:105470001000503F90547BF82828730254AB02541C
:10548000B00254B00254AB0254B00254AB0254AB5D
:105490000254B00254B00254AB0254AB0254B002F6
:1054A00054AB0254B00254B00254AB753880800340
:1054B000E4F53875F029E52BA424B5F582E5F03440
:1054C00003F583E0548065386003753902AF2B1211
:1054D0009019052DE52DC3940550030253C8052CE2
:1054E000E52CC3940F50030253888003753901E5FE
:1054F0003960030255EE75F029E52BA424B5F58239
:10550000E5F03403F583E0FFC4540F653760030210
:1055100055EEFE7F08FDFB7A00792F122A09E4F58B
:105520002E742F252EF9E4FAFBFDAF2E12DFE17465
:105530002F252EF9E4FAFB0DAF2E12DFE1052EE543
:105540002EC3940840DB78777C007D007B007A00D6
:10555000792F7E007F081224EE9000087D00E52B55
:1055600075F029A424A0F9740335F0FA7B01AE8309
:10557000AF82122A09E52BC454F024EDF582E434FD
:1055800004F583E0B40C0F7E007F057D007B007A7C
:10559000007977122A09E53AB4B01E7878E6FFC49C
:1055A000540FFE75F029E52BA424C7F582E5F034ED
:1055B00003F583EEF0EF540FF6E52B75F029A424E4
:1055C000A7F9740335F0FA7B01C0031B8B3F7540CC
:1055D0000075417ED003123E26E52B75F029A424E8
:1055E000AEF9740335F0FA7B017D0812E9BA900038
:1055F0000B7D00E52B75F029A424B5F9740335F073
:10560000FA7B01AE83AF82122A09E52B14601214D3
:10561000601714601C2403701FC210E4900234F061
:1056200022C211E4900571F022C212E4900571F0DB
:1056300022C213E4900234F022E4753380F532F58F
:1056400031F530E47F607EEBFDFCAB33AA32A9314B
:10565000A830C312275E5031AF33AE32AD31AC301B
:10566000753C00753D80753EFF1299BE75A61E758E
:10567000A6E1E5332480F533E43532F532E4353103
:10568000F531E43530F53080BAE4F533F532753173
:1056900002F5307FA57E3E7D027C00AB33AA32A9A5
:1056A00031A830C312275E5031AF33AE32AD31ACCA
:1056B00030753C00753D80753EFF1299BE75A61E83
:1056C00075A6E1E5332480F533E43532F532E4356F
:1056D00031F531E43530F53080B9753300753280FD
:1056E0007531027530007FA57EFE7D027C00AB33F4
:1056F000AA32A931A830C312275E5031AF33AE327F
:10570000AD31AC30753C00753D80753EFF1299BEE1
:1057100075A61E75A6E1E5332480F533E43532F530
:1057200032E43531F531E43530F53080B9E4F53324
:10573000F532753103F5307F607EEA7D037C00AB86
:1057400033AA32A931A830C312275E5031AF33AE2D
:1057500032AD31AC30753C00753D80753EFF12991D
:10576000BE75A61E75A6E1E5332480F533E4353217
:10577000F532E43531F531E43530F53080B9E4F512
:1057800033F532F531F530E4FFFE7D14FCAB33AA7E
:1057900032A931A830C312275E5028AF33AE32ADE4
:1057A00031AC3012E4C875A61E75A6E1E42533F5C8
:1057B00033E5323410F532E43531F531E43530F586
:1057C0003080C47533007532E27531187530007F52
:1057D000007EF07D187C00AB33AA32A931A830C31B
:1057E00012275E5028AF33AE32AD31AC3012E49D9B
:1057F00075A61E75A6E1E42533F533E5323402F5CE
:1058000032E43531F531E43530F53080C27FFF7E4A
:10581000FF7D197C00AB33AA32A931A830C312270F
:105820005E5028AF33AE32AD31AC3012E4C875A64D
:105830001E75A6E1E42533F533E5323410F532E484
:105840003531F531E43530F53080C27533007532CD
:10585000A075311A7530007FFF7EFF7D1F7C00AB85
:1058600033AA32A931A830C312275E5028AF33AE15
:1058700032AD31AC3012E4C875A61E75A6E1E42540
:1058800033F533E5323410F532E43531F531E435B2
:1058900030F53080C2E4F534AF3412BA8D0534E50A
:1058A00034C3940840F2E4F534AF3412BB490534F4
:1058B000E534C3940840F275A61E75A6E112D66AB7
:1058C00012DBF012DC8E12D1EEE4F534AF347E0040
:1058D00012C5170534E534C3940840F0E4F534AF3D
:1058E000341286080534E534C3940840F212DA0015
:1058F00012DC3F75A61E75A6E1753300753208757A
:1059000031007530807FFF7E337D007C80AB33AA11
:1059100032A931A830C312275E502BAF33AE32AD5F
:1059200031AC30753C02753D00E4F53E1299BEE4A1
:105930002533F533E5323402F532E43531F531E41F
:105940003530F53080BF75A61E75A6E1753C007533
:105950003D80E4F53EFF7E05FD7C801299BE12E895
:1059600039E49004EAF0A3F0900023F0A3F090054E
:105970006EF0A3F012E6F612E72C12E76212CCA04A
:1059800012CFC3753C00753D80E4F53EFF7EEB7D94
:1059900003FC1299BE753C00753D80E4F53E7F80A6
:1059A0007EEB7D03FC1299BE753C00753D80E4F5ED
:1059B0003EFF7E07FD7C801299BE22C0E0C0F0C091
:1059C00083C082C0D075D010AA9E9005F5E0700308
:1059D000025C0AEA20E103025AE22090047F01807F
:1059E000027F00AB172092047F0180027F00AC177A
:1059F000900234E014607124FD7003025AA624045E
:105A00006003025AE29003BFE0FF25E0F04BF09004
:105A1000043AE0FF25E0F04CF0539EFD9003BFE018
:105A2000541FFF641A6003BF16149003B4E4F0908F
:105A3000023404F0900226E024049003C0F09004A5
:105A40003AE0541FFF641A6008EF64166003025ABC
:105A5000E290042FE4F09002347404F0900226E007
:105A6000240490043BF0807A201077900226E024F2
:105A7000049003C0F0E4FF12D8A1EB60079003BFCD
:105A8000E04401F09003B4E004F064057054F03099
:105A90002E06C22ED210804A9003BFE0541F641F0E
:105AA0007040D22E803C201339900226E0240490CE
:105AB000043BF07F0312D8A1EC600790043AE04465
:105AC00001F090042FE004F0B40517E4F03037063D
:105AD000C237D213800C90043AE0541FFFBF1F025C
