:1000000002E766E4FE7C80ED5207EC600A5F600167
:100010000EECC313FC80F3AF0622FF02E7BB12D73E
:100020001622FF025591EFC394085005EF2451FFAB
:1000300022EF2459FF22FFFFFFFFFF0296BBFFFFC5
:10004000FFFFFFFFFFFFFFFFFFFFFFFFFFFFFFFFC0
:10005000FFFFFFFFFFFFFFFFFFFFFFFFFFFFFFFFB0
:10006000FFFFFFFFFFFFFFFFFFFFFFFFFFFFFFFFA0
:10007000FFFFFFFFFFFFFFFFFFFFFFFFFFFFFFFF90
:100080008F2C8D2DE4F52EF52F90017AE52CF09034
:10009000039BE52DF075F029A42405F582E43403D3
:1000A000F583E0B4180040030219F89000B2F82874
:1000B00028730200FA0201FD02035402042902051A
:1000C000DF0207300208110219F80208BD0213C34B
:1000D0000214090214750214E102154D0215A4025E
:1000E000161F02169A0217150209310217900218FC
:1000F0001002189102191202198FE52D75F029A42A
:100100002401F582E43403F583E030E673E52D75D0
:10011000F029A42401F9740335F0FA7B017D401223
:10012000EAF4E52D75F029A42401F582E43403F501
:1001300083E05410FBAD2CAF2D12CBCEE52D75F026
:1001400029A42401F9740335F0FA7B017D1012EA29
:10015000F4E52D75F029A42414F582E43403F58325
:10016000E04420F52E752F41AF2D12E12874DB25D8
:100170002DF9E43401FA7B017D0812EB140219F821
:10018000E52D75F029A42401F582E43403F583E01C
:1001900030E32AE52D75F029A42401F9740335F024
:1001A000FA7B017D0812EAF4E52D75F029A42405F7
:1001B000F582E43403F5837401F00219F8E52D7536
:1001C000F029A42401F582E43403F583E020E70359
:1001D0000219F8E52D75F029A42401F9740335F00E
:1001E000FA7B017D8012EAF4E52D75F029A424053F
:1001F000F582E43403F5837402F00219F8E52DC4A6
:1002000054F0249CF582E43403F583E0FF12E525E5
:10021000E52D75F029A42414F582E43403F583EF69
:10022000F0E52D75F029A424F3F9740235F0FA7B7A
:1002300001C001E52D75F008A424E1F9740435F03E
:10024000A801FC7D01D0017E007F081223EBE52D83
:1002500075F002A4FFAEF024A5F974013EFA7B010B
:10026000C001747B2FF974013EA801FC7D01D0010F
:100270007E007F021223EBE52D75F029A424F2F510
:1002800082E43402F583E06404704CE52D75F029B6
:10029000A42414F582E43403F583E04420F52E749D
:1002A000017E00A82D088005C333CE33CED8F9FFD8
:1002B0009001DFE0FDE4EF5D7005752F268003758A
:1002C0002F27E52D75F029A42405F582E43403F5E4
:1002D000837409F00219F8E52C75F01BA4240CF5C1
:1002E00082E43401F583E4F0A3F0FDFCAF2D12B5F8
:1002F00018E52C75F01BA4240EF582E43401F58377
:10030000EEF0A3EFF04E6037E52C75F01BA4240E41
:10031000F582E43401F583E0FEA3E0D39400EE64BB
:100320008094804005AF2C12E360E52D75F029A480
:100330002405F582E43403F5837403F00219F8E52B
:100340002D75F029A42405F582E43403F583740A9D
:10035000F00219F8E52D75F029A42414F582E4348F
:1003600003F5837403F0E52D75F029A424F3F974E3
:100370000235F0FA7B01C001E52D75F008A424E1F7
:10038000F9740435F0A801FC7D01D0017E007F04E2
:100390001223EB9000047D00E52D75F008A424E500
:1003A000F9740435F0FA7B01AE83AF821229067B23
:1003B00001E4FDFCAF2D12A401E52C75F01BA42473
:1003C0000CF582E43401F583EEF0A3EFF04E6044C7
:1003D000E52C75F01BA4240CF582E43401F583E0D0
:1003E000FEA3E0FFBEFF18BFFF15E52D75F029A4A1
:1003F0002405F582E43403F5837413F00219F8E55B
:100400002D75F029A42405F582E43403F5837404E2
:10041000F00219F8E52D75F029A42405F582E434DD
:1004200003F583740EF00219F8AD2CAF2D12B1BA9A
:100430008F31EF602CE52D75F029A42414F582E4AA
:100440003403F583E04420F52E85312FE52D75F03A
:1004500029A42405F582E43403F5837409F0021914
:10046000F8E52D75F029A424F2F582E43402F58331
:10047000E07033AD2DAF2C12C361E52D75F029A4CA
:100480002414F582E43403F583E04420F52E752F1F
:1004900028E52D75F029A42405F582E43403F583BD
:1004A0007409F00219F8E4F531E52DC454F024A1E3
:1004B000F582E43403F58375F002E5311226FDE0A0
:1004C000FEA3E04E6013E52D75F029A42405F58206
:1004D000E43403F5837408F0220531E531B404C92E
:1004E000E52D75F029A424F2F582E43402F583E0C9
:1004F000FF64016017EF64036012EF6406600DEFA4
:1005000064076008EF640560030205ACE52C75F034
:100510001BA4240CF582E43401F583E0FEA3E04E35
:100520007053AD2DAF2C12C361E52D75F029A424B5
:1005300014F582E43403F583E04420F52E74017E43
:1005400000A82D088005C333CE33CED8F9FF900123
:10055000DFE0FDE4EF5D7005752F018003752F036B
:10056000E52D75F029A42405F582E43403F58374A0
:1005700009F00219F8E52D75F029A42405F582E4A7
:100580003403F583E0FFE52D75F029A42406F582F8
:10059000E43403F583EFF0E52D75F029A42405F587
:1005A00082E43403F5837405F00219F8AD2DAF2C05
:1005B00012C361E52D75F029A42414F582E43403F7
:1005C000F583E04420F52E752F2AE52D75F029A43A
:1005D0002405F582E43403F5837409F00219F8E583
:1005E0002D75F029A424F2F582E43402F583E0703D
:1005F00033AD2DAF2C12C361E52D75F029A4241461
:10060000F582E43403F583E04420F52E752F26E5CA
:100610002D75F029A42405F582E43403F5837409CB
:10062000F00219F8E52D75F029A424F2F582E434DE
:1006300002F583E0FF64026012EF6403600DEF6473
:10064000066008EF640560030206FDE52C75F01BEB
:10065000A4240CF582E43401F583E0FEA3E0D394F6
:1006600000EE648094805033AD2DAF2C12C361E551
:100670002D75F029A42414F582E43403F583E044B5
:1006800020F52E752F01E52D75F029A42405F5829E
:10069000E43403F5837409F00219F8E52D75F029A7
:1006A000A42405F582E43403F583E0FFE52D75F01D
:1006B00029A42406F582E43403F583EFF0E52D75D3
:1006C000F029A42405F582E43403F5837405F0E5EC
:1006D0002D75F029A42401F582E43403F583E0307C
:1006E000E1030219F8E52D75F029A42401F974033A
:1006F00035F0FA7B017D2012EB140219F8AD2DAF15
:100700002C12C361E52D75F029A42414F582E4347C
:1007100003F583E04420F52E752F2AE52D75F02989
:10072000A42405F582E43403F5837409F00219F872
:10073000E52C75F01BA4240CF582E43401F583E06C
:10074000FEA3E024FFFFEE34FFFE3395E0FDFCE462
:100750007B17FAF9F812253EE42FFFEE3480FEED08
:100760003408FDEC3480FC755F0075600475610031
:1007700075620075637612D771E52C75F01BA424A1
:100780000CF582E43401F583E0FEA3E024FFFFEEE4
:1007900034FFFE3395E0FDFCE47B17FAF9F81225EF
:1007A0003EEF240EFFEE3480FEED3408FDEC348085
:1007B000FC755F0075600475610075620075637A91
:1007C00012D7711278F6EF7033AD2DAF2C12C361D2
:1007D000E52D75F029A42414F582E43403F583E0B3
:1007E0004420F52E752F12E52D75F029A42405F56A
:1007F00082E43403F5837409F00219F8E52D75F0ED
:1008000029A42405F582E43403F5837406F0021963
:10081000F8E52C75F01BA4240CF582E43401F58373
:10082000E0FEA3E024FFFFEE34FFFE3395E0FDFC85
:10083000E47B17FAF9F812253EEF2406FFEE348028
:10084000FEED3408FDEC3480FC755F0075600475C6
:10085000610075620075637612D7717476252DF884
:10086000E6FF12EAFFEF704090064DE06007752F3B
:100870003AE4F08003752F11AD2DAF2C12C361E562
:100880002D75F029A42414F582E43403F583E044A3
:1008900020F52EE52D75F029A42405F582E4340316
:1008A000F5837409F00219F8E52D75F029A42405E3
:1008B000F582E43403F5837412F00219F8E52D751E
:1008C000F029A42405F582E43403F583E0FFE52D47
:1008D00075F029A42406F582E43403F583EFF0AD26
:1008E0002DAF2C12D822EF6015E52D75F029A42428
:1008F00005F582E43403F5837412F00219F8AD2D86
:10090000AF2C12C361E52D75F029A42414F582E4FF
:100910003403F583E04420F52E752F02E52D75F0A4
:1009200029A42405F582E43403F5837409F002193F
:10093000F8E52D75F029A424F2F582E43402F5835C
:10094000E064067030AD2DAF2C12C361E52D75F05B
:1009500029A42414F582E43403F583E04490F52EB1
:10096000E52D75F029A42405F582E43403F583749C
:1009700009F00219F8755F00756002756100756213
:10098000007563357F007EEB7D037C0012D771E537
:1009900036F47076047E00A82D088005C333CE336C
:1009A000CED8F9FFE4EF55357003020AA9E4F5311A
:1009B000AD2DAF2C12C361E52D75F029A42414F5DB
:1009C00082E43403F583E04420F52EE5314480F5DC
:1009D0002FE52D75F029A42405F582E43403F58371
:1009E0007409F0E531131313541F2426F582E434FF
:1009F00000F583E0FFE5315407FE7401A806088086
:100A000002C333D8FC4FF00219F8E52C75F01BA493
:100A1000240CF582E43401F583E0FEA3E024FFFF1B
:100A2000EE34FFFE3395E0FDFCE47B17FAF9F81293
:100A3000253EEF2412FFEE3480FEED3408FDEC3449
:100A400080FC755F007560017561007562007563FB
:100A50003112D771E531C39401404EE531D3947F13
:100A60005047E53175F002A4FFE42FFFE5F034EBC9
:100A7000FEE43403FDE433FC755F007560027561CC
:100A80000075620075633512D771E536B4FF1A74CC
:100A9000017E00A82D088005C333CE33CED8F9FFE0
:100AA000E4EF553560030209B0E52DC454F024A0ED
:100AB000F582E43403F583E020E23C74DB252DF974
:100AC000E43401FA7B017D0412EB14E52D75F02965
:100AD000A42414F582E43403F583E04490F52EE475
:100AE000F52FE52D75F029A42405F582E43403F5EE
:100AF000837409F00219F8E52D2421F530E52C75F1
:100B0000F01BA4240CF582E43401F583E0FCA3E09F
:100B1000FDAF2D12952CEF24FE6045147003020BDF
:100B2000C6147003020BF2147003020C5724046005
:100B300003020C80E52D75F029A42414F582E43419
:100B400003F583E04410F52E752F08E52D75F02987
:100B5000A42405F582E43403F5837409F0020C80C3
:100B6000E52D75F029A42414F582E43403F583E01F
:100B70004410F52E752F09E52D75F029A42405F5EF
:100B800082E43403F5837409F0E52C75F01BA4248A
:100B90000AF9740135F0FA7B017D0112EB14E52CA2
:100BA00075F01BA4240AF9740135F0FA7B017D80ED
:100BB00012EB1474DB252DF9E43401FA7B017D047A
:100BC00012EB14020C80E52D75F029A42414F58293
:100BD000E43403F583E04410F52E752F09E52D75F7
:100BE000F029A42405F582E43403F5837409F002A6
:100BF0000C80E52D75F029A42414F582E43403F566
:100C000083E04410F52E752F0AE52D75F029A424F4
:100C100005F582E43403F5837409F0E52C75F01BC7
:100C2000A4240AF9740135F0FA7B017D0112EB145A
:100C3000E52C75F01BA4240AF9740135F0FA7B0148
:100C40007D8012EB1474DB252DF9E43401FA7B016D
:100C50007D0412EB148029E52D75F029A42414F5E8
:100C600082E43403F583E04420F52E752F3BE52D17
:100C700075F029A42405F582E43403F5837409F0A2
:100C8000E52D75F029A42405F582E43403F583E00D
:100C9000640970030219F8E52C75F01BA4240CF507
:100CA00082E43401F583E0FCA3E0FDE52C75F01B44
:100CB000A4240EF582E43401F583E0FAA3E0FBAF4F
:100CC0002D126B8AEF24FE24FD507C24C260342454
:100CD000427062E52D75F029A42414F582E43403F2
:100CE000F583E04470F52E752F0BAF2D12E9E6E584
:100CF0002D75F029A42405F582E43403F5837409E5
:100D0000F08044AD2DAF2C12C361E52D75F029A400
:100D10002414F582E43403F583E04420F52E752F86
:100D200043E52D75F029A42405F582E43403F58309
:100D30007409F08012E52D75F029A42405F582E4EC
:100D40003403F5837409F0E52D75F029A42405F525
:100D500082E43403F583E0640970030219F8E52C9A
:100D600075F01BA4240CF582E43401F583E0FEA3A6
:100D7000E024FFFFEE34FFFE7C007D171224E0EE3E
:100D80003395E0FDFCEF2405FFEE3480FEED3408E2
:100D9000FDEC3480FC755F00756001756100756263
:100DA0000075633212D771E4F533F534E52DC45480
:100DB000F024A0F582E43403F583E020E303020E7F
:100DC0004AE53220E703020E4AE52C75F01BA42405
:100DD0000CF582E43401F583E0FEA3E024FFFFEE8E
:100DE00034FFFEEF25E0FFEE33FE3395E0FDFCE43B
:100DF0002FFFE43EFEED3403FDE43CFC755F00751F
:100E0000600275610075620075633312D771E53455
:100E100045337033AD2DAF2C12C361E52D75F0292C
:100E2000A42414F582E43403F583E04420F52E7500
:100E30002F13E52D75F029A42405F582E43403F57C
:100E4000837409F00219F8433380AF2C12C101EF0B
:100E50006033AD2DAF2C12C361E52D75F029A424AC
:100E600014F582E43403F583E04420F52E752F3425
:100E7000E52D75F029A42405F582E43403F5837487
:100E800009F00219F8753101E52C75F01BA4240C4A
:100E9000F582E43401F583E0FEA3E024FFFFEE34A5
:100EA000FFFE7C007D171224E0EE3395E0FDFCEFA1
:100EB0002414FFEE3480FEED3408FDEC3480FC7524
:100EC0005F0075600175610075620075637612D709
:100ED000717876E6FFC39401400FEFD3947F5009F9
:100EE00012E2F7EF6003E4F531E53170030210D64A
:100EF000E52DC454F024A9F582E43403F583E0FF22
:100F000012E2F7EF7003020F89E52C75F01BA424A1
:100F10000CF582E43401F583E0FEA3E024FFFBEE50
:100F200034FFFAAD2DAF2C1291F2EF705C74C62530
:100F30002DF9E43401FA7B017D0112EB14E52DC497
:100F400054F024A0F582E43403F583E030E507D2C1
:100F500011E4F5318033AD2DAF2C12C361E52D7551
:100F6000F029A42414F582E43403F583E04420F549
:100F70002E752F31E52D75F029A42405F582E43472
:100F800003F5837409F00219F8E52D25E0245BF5DB
:100F900082E43406F583E0FF12E2F7EF70030210FB
:100FA0001EE52C75F01BA4240CF582E43401F583B6
:100FB000E0FEA3E024FFFDEE34FFFCAF2D12A18282
:100FC000EF705B74C6252DF9E43401FA7B017D02D4
:100FD00012EB14E52D25E0245AF582E43406F5835E
:100FE000E030E107D210E4F5318033AD2DAF2C12A3
:100FF000C361E52D75F029A42414F582E43403F5CA
:1010000083E04420F52E752F32E52D75F029A424B8
:1010100005F582E43403F5837409F00219F8E52C30
:1010200075F01BA4240CF582E43401F583E0FEA3E3
:10103000E024FFFDEE34FFFCAF2D12B8EBE52D757B
:10104000F029A42416F582E43403F583E0FF12E2CC
:10105000F7EF70030210D620167CE52C75F01BA468
:10106000240CF582E43401F583E0FEA3E024FFFDC7
:10107000EE34FFFCAF2D12AD15EF705A74C6252D5E
:10108000F9E43401FA7B017D0412EB14E52D75F0CF
:1010900029A42415F582E43403F583E030E104D279
:1010A000128033AD2DAF2C12C361E52D75F029A44C
:1010B0002414F582E43403F583E04420F52E752FE3
:1010C00033E52D75F029A42405F582E43403F58376
:1010D0007409F00219F8E53330E75053337FE534F3
:1010E000153470021533E52C75F01BA4240CF58221
:1010F000E43401F583E0FEA3E024FFFFEE34FFFEBD
:10110000EF25E0FFEE33FE3395E0FDFCE42FFFE436
:101110003EFEED3403FDE43CFC754F007550027556
:10112000510075520075533312D59BE52C75F01B99
:10113000A4240AF9740135F0FA7B017D0112EB1445
:10114000E52D75F029A42406F582E43403F583E047
:1011500064087042E52D75F029A42414F582E43466
:1011600003F583E04411FFAB307D0512388AE52C8E
:1011700075F01BA4240AF9740135F0FA7B017D8017
:1011800012EB1474DB252DF9E43401FA7B017D04A4
:1011900012EB1402132F301042E52D75F029A42410
:1011A00014F582E43403F583E04410FFAB307D0393
:1011B00012388AE52C75F01BA4240AF9740135F065
:1011C000FA7B017D8012EB1474DB252DF9E43401E8
:1011D000FA7B017D0412EB140212ED301142E52D71
:1011E00075F029A42414F582E43403F583E0441057
:1011F000FFAB307D0212388AE52C75F01BA4240A5F
:10120000F9740135F0FA7B017D8012EB1474DB2553
:101210002DF9E43401FA7B017D0412EB140212ED86
:10122000301242E52D75F029A42414F582E434032C
:10123000F583E04410FFAB307D0412388AE52C754D
:10124000F01BA4240AF9740135F0FA7B017D8012A9
:10125000EB1474DB252DF9E43401FA7B017D0412D3
:10126000EB140212ED90064DE06043E4F0E52D75BD
:10127000F029A42414F582E43403F583E04410FF3C
:10128000AB307D0612388AE52C75F01BA4240AF9D0
:10129000740135F0FA7B017D8012EB1474DB252D8F
:1012A000F9E43401FA7B017D8012EB14801AE52DFC
:1012B00075F029A42414F582E43403F583E0441086
:1012C000FFAB307D0112388AE52C75F01BA4240A8F
:1012D000F9740135F0FA7B017D8012EB1474DB2583
:1012E0002DF9E43401FA7B017D0412EB14E5323070
:1012F000E115E52C75F01BA4240AF9740135F0FA08
:101300007B017D0212EB14E53230E30F74DB252DF7
:10131000F582E43401F583E04410F0E53230E60F65
:1013200074DB252DF582E43401F583E04420F0E5FB
:101330002C75F01BA4240AF582E43401F583E03017
:10134000E244E52C75F01BA4240AF9740135F0FA87
:101350007B017D0412EAF4E52C75F01BA4240BF943
:10136000740135F0FA7B017D0412EB14E52D75F064
:1013700029A42414F582E43403F583E04410FFAB80
:10138000307D0712388AE52D75F029A42406F582F0
:10139000E43403F583E0B40815E52D75F029A424A1
:1013A00005F582E43403F5837409F00219F8E52D9C
:1013B00075F029A42405F582E43403F5837409F05B
:1013C0000219F8E52D75F029A424F2F582E434021F
:1013D000F583E064076018E52D75F029A42401F574
:1013E00082E43403F583E020E305AF2D12E128C247
:1013F00010C211C212E52D75F029A42405F582E46E
:101400003403F583E4F00219F87D707C17AF2D12D8
:10141000B518E52C75F01BA4240EF582E43401F513
:1014200083EEF0A3EFF04E6037E52C75F01BA4249B
:101430000EF582E43401F583E0FEA3E0D39400EEE0
:10144000648094804005AF2C12E360E52D75F0298F
:10145000A42405F582E43403F5837403F00219F83B
:10146000E52D75F029A42405F582E43403F5837491
:101470000BF00219F87DE07C2EAF2D12B518E52C8B
:1014800075F01BA4240EF582E43401F583EEF0A37D
:10149000EFF04E6037E52C75F01BA4240EF582E4C6
:1014A0003401F583E0FEA3E0D39400EE64809480E1
:1014B0004005AF2C12E360E52D75F029A42405F555
:1014C00082E43403F5837403F00219F8E52D75F016
:1014D00029A42405F582E43403F583740CF0021981
:1014E000F87D507C46AF2D12B518E52C75F01BA485
:1014F000240EF582E43401F583EEF0A3EFF04E60A4
:1015000037E52C75F01BA4240EF582E43401F58335
:10151000E0FEA3E0D39400EE648094804005AF2CFD
:1015200012E360E52D75F029A42405F582E4340367
:10153000F5837403F00219F8E52D75F029A424054C
:10154000F582E43403F583740DF00219F87DC07C54
:101550005DAF2D12B518E52C75F01BA4240EF58295
:10156000E43401F583EEF0A3EFF04E6022E52C7534
:10157000F01BA4240EF582E43401F583E0FEA3E021
:10158000D39400EE648094804005AF2C12E360E5B4
:101590002D75F029A42405F582E43403F583740342
:1015A000F00219F87B017D707C17AF2D12A401E5C4
:1015B0002C75F01BA4240CF582E43401F583EEF0C5
:1015C000A3EFF04E6044E52C75F01BA4240CF582CB
:1015D000E43401F583E0FEA3E0FFBEFF18BFFF1572
:1015E000E52D75F029A42405F582E43403F5837410
:1015F00013F00219F8E52D75F029A42405F582E40D
:101600003403F5837404F00219F8E52D75F029A46C
:101610002405F582E43403F583740FF00219F87B96
:10162000017DE07C2EAF2D12A401E52C75F01BA4EA
:10163000240CF582E43401F583EEF0A3EFF04E6064
:1016400044E52C75F01BA4240CF582E43401F583E9
:10165000E0FEA3E0FFBEFF18BFFF15E52D75F029E2
:10166000A42405F582E43403F5837413F00219F819
:10167000E52D75F029A42405F582E43403F583747F
:1016800004F00219F8E52D75F029A42405F582E48B
:101690003403F5837410F00219F87B017D507C4609
:1016A000AF2D12A401E52C75F01BA4240CF582E4E7
:1016B0003401F583EEF0A3EFF04E6044E52C75F0B5
:1016C0001BA4240CF582E43401F583E0FEA3E0FFC3
:1016D000BEFF18BFFF15E52D75F029A42405F5827E
:1016E000E43403F5837413F00219F8E52D75F0293D
:1016F000A42405F582E43403F5837404F00219F898
:10170000E52D75F029A42405F582E43403F58374EE
:1017100011F00219F87B017DC07C5DAF2D12A40190
:10172000E52C75F01BA4240CF582E43401F583EE5E
:10173000F0A3EFF04E6044E52C75F01BA4240CF5EB
:1017400082E43401F583E0FEA3E0FFBEFF18BFFF93
:1017500015E52D75F029A42405F582E43403F583FD
:101760007413F00219F8E52D75F029A42405F5820B
:10177000E43403F5837404F00219F8E52D75F029BB
:10178000A42405F582E43403F5837413F00219F8F8
:101790007B02E4FDFCAF2D12A401E52C75F01BA427
:1017A000240CF582E43401F583EEF0A3EFF04E60F3
:1017B0004AE52C75F01BA4240CF582E43401F58372
:1017C000E0FEA3E0F47002EEF4601BE52D75F02955
:1017D000A42401F9740335F0FA7B017D0212EB14A5
:1017E00090064D7402F0E52D75F029A42405F582CC
:1017F000E43403F5837404F00219F8E52D75F0293B
:10180000A42405F582E43403F5837414F00219F876
:101810007B027D707C17AF2D12A401E52C75F01BA7
:10182000A4240CF582E43401F583EEF0A3EFF04E2E
:10183000604AE52C75F01BA4240CF582E43401F514
:1018400083E0FEA3E0F47002EEF4601BE52D75F07A
:1018500029A42401F9740335F0FA7B017D0212EB0F
:101860001490064D7402F0E52D75F029A42405F5B9
:1018700082E43403F5837404F00219F8E52D75F061
:1018800029A42405F582E43403F5837415F00219C4
:10189000F87B027DE07C2EAF2D12A401E52C75F0C3
:1018A0001BA4240CF582E43401F583EEF0A3EFF0E1
:1018B0004E604AE52C75F01BA4240CF582E434013B
:1018C000F583E0FEA3E0F47002EEF4601BE52D75F5
:1018D000F029A42401F9740335F0FA7B017D02128A
:1018E000EB1490064D7402F0E52D75F029A4240543
:1018F000F582E43403F5837404F00219F8E52D75DC
:10190000F029A42405F582E43403F5837416F0026B
:1019100019F87B027D507C46AF2D12A401E52C7591
:10192000F01BA4240CF582E43401F583EEF0A3EF60
:10193000F04E6047E52C75F01BA4240CF582E434CE
:1019400001F583E0FEA3E0F47002EEF4601BE52DE8
:1019500075F029A42401F9740335F0FA7B017D02A6
:1019600012EB1490064D7402F0E52D75F029A424B5
:1019700005F582E43403F5837404F0E52D75F02950
:10198000A42405F582E43403F5837417F080697BA1
:10199000027DC07C5DAF2D12A401E52C75F01BA467
:1019A000240CF582E43401F583EEF0A3EFF04E60F1
:1019B00035E52C75F01BA4240CF582E43401F58385
:1019C000E0FEA3E0F47002EEF4601BE52D75F02953
:1019D000A42401F9740335F0FA7B017D0212EB14A3
:1019E00090064D7402F0E52D75F029A42405F582CA
:1019F000E43403F5837404F0E52E452F600EE52DE5
:101A00002421F530FBAD2FAF2E12388A22E4F52CBD
:101A1000749C252CF582E43401F583E0FF640960B1
:101A200004EFB419067E007F0180047E007F00EF82
:101A30004E704774D9252CF582E43402F583E0B466
:101A4000011B749C252CF582E43401F5837420F08D
:101A50007437252CF582E43400F583E4F074D9253D
:101A60002CF582E43402F583E0B4020E749C252C3C
:101A7000F582E43401F5837418F074D9252CF582CD
:101A8000E43402F583E0B4010D74D9252CF582E429
:101A90003402F583E4F0749C252CF582E43401F5DE
:101AA00083E01227091ADC001BA2011BE0021D18AB
:101AB000031D51081DAF091EFE0A1F3C0B1D510CD2
:101AC0001DAF0D1FE210202D1120EC122137132223
:101AD000471822821922D7200000230E7437252CA4
:101AE000F582E43400F583E0FFB40111749C252CE9
:101AF000F582E43401F5837401F002230EEFB4089B
:101B000011749C252CF582E43401F5837408F002ED
:101B1000230E7437252CF582E43400F583E0FFB4FE
:101B20000C11749C252CF582E43401F5837408F0C3
:101B300002230EEFB40E11749C252CF582E43401BF
:101B4000F583740AF002230E7437252CF582E434F1
:101B500000F583E0FFB41211749C252CF582E43467
:101B600001F5837412F002230EEFB40A11749C2560
:101B70002CF582E43401F583740AF002230E7437E5
:101B8000252CF582E43400F583E064106003022321
:101B90000E749C252CF582E43401F5837410F00258
:101BA000230E7414252CF582E43400F583E06003E1
:101BB00002230E9003DC7431F0E49003DFF0AF2CCD
:101BC0001200269003E0EFF07D01AF2C12CE0074DE
:101BD0009C252CF582E43401F5837402F002230E77
:101BE000E52C25E02403F582E43400F583E0FEA330
:101BF000E04E7011749C252CF582E43401F5837459
:101C000003F0021CBF74D9252CF582E43402F5835D
:101C1000E0B40111749C252CF582E43401F5837441
:101C200002F0021CBF7437252CF582E43400F583E2
:101C3000E0FFB40810749C252CF582E43401F58390
:101C40007408F0807AEFB40C10749C252CF582E4B3
:101C50003401F5837408F080667437252CF582E42E
:101C60003400F583E0FFB40E10749C252CF582E45B
:101C70003401F583740AF08046EFB41210749C2589
:101C80002CF582E43401F5837412F0803274372528
:101C90002CF582E43400F583E0FFB40A10749C252F
:101CA0002CF582E43401F583740AF08012EFB4104D
:101CB0000E749C252CF582E43401F5837410F074C5
:101CC000D9252CF582E43402F583E0640460030234
:101CD000230E74D9252CF582E43402F583E4F090C8
:101CE00003DC7432F0E49003DFF0AF2C1200269096
:101CF00003E0EFF0E4FDAF2C12CE007437252CF595
:101D000082E43400F583E4F0749C252CF582E434FD
:101D100001F583E4F002230E9003DC7432F0E490CA
:101D200003DFF0AF2C1200269003E0EFF0E4FDAFEC
:101D30002C12CE007437252CF582E43400F583E4B0
:101D4000F0749C252CF582E43401F583E4F0022341
:101D50000E7414252CF582E43400F583E060030250
:101D6000230E9003DC7431F0E49003DFF0AF2C120B
:101D700000269003E0EFF07D01AF2C12CE00749CA2
:101D8000252CF582E43401F583E0B40811749C2518
:101D90002CF582E43401F5837409F002230E749C5F
:101DA000252CF582E43401F583740DF002230EE551
:101DB0002C25E02403F582E43400F583E4F0A3F05D
:101DC000047E00A82C088005C333CE33CED8F9FF9B
:101DD0009005E4E0FDE4EF5D6003021E5E743725CC
:101DE0002CF582E43400F583E0FFB40110749C25E7
:101DF0002CF582E43401F5837401F08031EFB412E4
:101E000010749C252CF582E43401F5837412F08063
:101E10001D7437252CF582E43400F583E0B40E0EF2
:101E2000749C252CF582E43401F583740AF0749CCB
:101E3000252CF582E43401F583E06409704A743797
:101E4000252CF582E43400F583E0640A703A749C32
:101E5000252CF582E43401F583740AF0802A743766
:101E6000252CF582E43400F583E0B40E1B7437258D
:101E70002CF582E43400F583E4F0749C252CF58283
:101E8000E43401F583740AF07437252CF582E434C8
:101E900000F583E0B4100E749C252CF582E4340127
:101EA000F5837410F074D9252CF582E43402F5839F
:101EB000E06404600302230E74D9252CF582E43417
:101EC00002F583E4F09003DC7432F0E49003DFF079
:101ED000AF2C1200269003E0EFF0E4FDAF2C12CE01
:101EE000007437252CF582E43400F583E4F0749C0B
:101EF000252CF582E43401F583E4F002230E7414FA
:101F0000252CF582E43400F583E0600302230E9073
:101F100003DC7432F0E49003DFF0AF2C1200269063
:101F200003E0EFF0E4FDAF2C12CE00749C252CF5FD
:101F300082E43401F583740BF002230E7437252CF0
:101F4000F582E43400F583E0FFB40111749C252C84
:101F5000F582E43401F5837401F002230EEFB40836
:101F600011749C252CF582E43401F5837408F00289
:101F7000230E7437252CF582E43400F583E0FFB49A
:101F80000C11749C252CF582E43401F5837408F05F
:101F900002230EEFB40E11749C252CF582E434015B
:101FA000F583740AF002230E7437252CF582E4348D
:101FB00000F583E0FFB41211749C252CF582E43403
:101FC00001F5837412F002230EEF64106003022304
:101FD0000E749C252CF582E43401F5837410F00214
:101FE000230E7414252CF582E43400F583E060039D
:101FF00002230E9003DC7432F0E49003DFF0AF2C88
:102000001200269003E0EFF0E4FDAF2C12CE007436
:1020100037252CF582E43400F583E4F0749C252CFC
:10202000F582E43401F5837411F002230E74372530
:102030002CF582E43400F583E0FFB40110749C2594
:102040002CF582E43401F5837401F08065EFB40867
:1020500010749C252CF582E43401F5837408F0801B
:10206000517437252CF582E43400F583E0FFB40C7D
:1020700010749C252CF582E43401F5837408F080FB
:1020800031EFB40E10749C252CF582E43401F583F5
:10209000740AF0801D7437252CF582E43400F58332
:1020A000E0B4120E749C252CF582E43401F583749F
:1020B00012F07437252CF582E43400F583E0FFB488
:1020C0000A11749C252CF582E43401F583740AF01E
:1020D00002230EEF6410600302230E749C252CF57E
:1020E00082E43401F5837412F002230E7414252C5B
:1020F000F582E43400F583E0600302230E9003DCF4
:102100007431F0E49003DFF0AF2C1200269003E06E
:10211000EFF07D01AF2C12CE007437252CF582E450
:102120003400F583E4F0749C252CF582E43401F549
:10213000837413F002230E7437252CF582E43400E7
:10214000F583E0FFB40110749C252CF582E4340182
:10215000F5837401F08065EFB40810749C252CF5AC
:1021600082E43401F5837408F080517437252CF52E
:1021700082E43400F583E0FFB40C10749C252CF548
:1021800082E43401F5837408F08031EFB40E1074EA
:102190009C252CF582E43401F583740AF0801D74CB
:1021A00037252CF582E43400F583E0B4120E749CDC
:1021B000252CF582E43401F5837410F07437252C56
:1021C000F582E43400F583E0FFB40A10749C252CFA
:1021D000F582E43401F583740AF08012EFB4100E36
:1021E000749C252CF582E43401F5837412F074D9C3
:1021F000252CF582E43402F583E0640460030223B5
:102200000E74D9252CF582E43402F583E4F09003B2
:10221000DC7432F0E49003DFF0AF2C120026900360
:10222000E0EFF0E4FDAF2C12CE007437252CF582E0
:10223000E43400F583E4F0749C252CF582E4340149
:10224000F583E4F002230E74D9252CF582E43402E0
:10225000F5837403F09003DC7451F0E49003DFF035
:10226000AF2C1200269003E0EFF07D01AF2C12CED0
:1022700000749C252CF582E43401F5837419F00276
:10228000230E74D9252CF582E43402F583E064042E
:10229000707C74D9252CF582E43402F583E4F09047
:1022A00003DC7452F0E49003DFF0AF2C12002690B0
:1022B00003E0EFF0E4FDAF2C12CE007437252CF5CF
:1022C00082E43400F583E4F0749C252CF582E43438
:1022D00001F583E4F0803774D9252CF582E43402CB
:1022E000F583E4F09003DC7451F0E49003DFF0AF89
:1022F0002C1200269003E0EFF07D01AF2C12CE00EF
:10230000749C252CF582E43401F5837402F0052CCD
:10231000E52CC394085003021A1022E709F608DFDF
:10232000FA8046E709F208DFFA803E88828C83E76C
:1023300009F0A3DFFA8032E309F608DFFA8078E3D8
:1023400009F208DFFA807088828C83E309F0A3DF4A
:10235000FA806489828A83E0A3F608DFFA805889CC
:10236000828A83E0A3F208DFFA804C80D280FA8070
:10237000C680D4806980F28033801080A680EA8095
:102380009A80A880DA80E280CA803389828A83ECCE
:10239000FAE493A3C8C582C8CCC583CCF0A3C8C552
:1023A00082C8CCC583CCDFE9DEE7800D89828A83D1
:1023B000E493A3F608DFF9ECFAA9F0EDFB22898299
:1023C0008A83ECFAE0A3C8C582C8CCC583CCF0A34D
:1023D000C8C582C8CCC583CCDFEADEE880DB898251
:1023E0008A83E493A3F208DFF980CC88F0EF6001E0
:1023F0000E4E60C388F0ED2402B4040050B9F5829B
:10240000EB2402B4040050AF232345822390236BB6
:1024100073BB010689828A83E0225002E722BBFE59
:1024200002E32289828A83E49322BB010CE582299C
:10243000F582E5833AF583E0225006E92582F8E645
:1024400022BBFE06E92582F8E222E58229F582E533
:10245000833AF583E49322BB010989828A83F8E0F9
:1024600028F022500327F722BBFE05F8E328F322C9
:102470008A838982F8E4932822BB010FF8E5822938
:10248000F582E5833AF583E028F0225009C58229D8
:10249000F8E58226F622BBFE09C58229F8E22582EC
:1024A000F222F8EA2583F583E9932822BB01068905
:1024B000828A83F0225002F722BBFE01F322F8BB8E
:1024C000010DE58229F582E5833AF583E8F0225093
:1024D00006E92582C8F622BBFE05E92582C8F2225C
:1024E000EF8DF0A4A8F0CF8CF0A428CE8DF0A42E10
:1024F000FE22C2D5EC30E709B2D5E4C39DFDE49CD1
:10250000FCEE30E715B2D5E4C39FFFE49EFE122A2D
:10251000D4C3E49DFDE49CFC8003122AD430D5078B
:10252000C3E49FFFE49EFE22C5F0F8A3E028F0C5B7
:10253000F0F8E582158270021583E038F022E88F0A
:10254000F0A4CC8BF0A42CFCE98EF0A42CFC8AF037
:10255000EDA42CFCEA8EF0A4CDA8F08BF0A42DCC39
:102560003825F0FDE98FF0A42CCD35F0FCEB8EF092
:10257000A4FEA9F0EB8FF0A4CFC5F02ECD39FEE478
:102580003CFCEAA42DCE35F0FDE43CFC2275F008BD
:10259000758200EF2FFFEE33FECD33CDCC33CCC5AB
:1025A0008233C5829BED9AEC99E58298400CF582C6
:1025B000EE9BFEED9AFDEC99FC0FD5F0D6E4CEFB38
:1025C000E4CDFAE4CCF9A88222B800C1B90059BA26
:1025D000002DEC8BF084CFCECDFCE5F0CBF9781854
:1025E000EF2FFFEE33FEED33FDEC33FCEB33FB104E
:1025F000D703994004EB99FB0FD8E5E4F9FA227868
:1026000018EF2FFFEE33FEED33FDEC33FCC933C979
:1026100010D7059BE99A4007EC9BFCE99AF90FD883
:10262000E0E4C9FAE4CCFB2275F010EF2FFFEE33A3
:10263000FEED33FDCC33CCC833C810D7079BEC9AE2
:10264000E899400AED9BFDEC9AFCE899F80FD5F06B
:10265000DAE4CDFBE4CCFAE4C8F922EB9FF5F0EA2A
:102660009E42F0E99D42F0E89C45F022E8600FECC4
:10267000C313FCED13FDEE13FEEF13FFD8F122742C
:1026800001FF3395E0FEFDFCA3A3A3E02FFFF0E5DF
:1026900082158270021583E03EFEF0E5821582709D
:1026A000021583E03DFDF0E582158270021583E09E
:1026B0003CFCF022ECF608EDF608EEF608EFF62208
:1026C000ECF0A3EDF0A3EEF0A3EFF022A882858357
:1026D000F0D083D0821226E31226E31226E31226DC
:1026E000E3E473E493A3C583C5F0C583C8C582C87A
:1026F000F0A3C583C5F0C583C8C582C822A42582BE
:10270000F582E5F03583F58322D083D082F8E49317
:102710007012740193700DA3A393F8740193F58262
:102720008883E4737402936860EFA3A3A380DFD06F
:1027300083D082F8E4937012740193700DA3A39375
:10274000F8740193F5828883E473740293B5F006FC
:102750007403936860E9A3A3A3A380D8E3F5F00909
:10276000E208B5F06BDFF58067E3F5F009E608B540
:10277000F05EDFF5805A87F009E608B5F052DFF623
:10278000804E87F009E208B5F046DFF68042888285
:102790008C8387F009E0A3B5F036DFF680328882BB
:1027A0008C8387F009E493A3B5F025DFF5802188B9
:1027B000828C83E3F5F009E0A3B5F014DFF5801017
:1027C00088828C83E3F5F009E493A3B5F002DFF48B
:1027D00002288B808780E9809080D4803E8015809D
:1027E0006E807E809D80B7808D80A38051807480B4
:1027F0003C02289789828A83ECFAE493F5F0A3C817
:10280000C582C8CCC583CCE493A3C8C582C8CCC557
:1028100083CCB5F076DFE3DEE1807089828A83E4E1
:1028200093F5F0A3E208B5F062DFF4805E89828A56
:1028300083E0F5F0A3E608B5F051DFF5804D89821D
:102840008A83E0F5F0A3E208B5F040DFF5803C892B
:10285000828A83E493F5F0A3E608B5F02EDFF480D6
:102860002A8002805789828A83ECFAE493F5F0A3E8
:10287000C8C582C8CCC583CCE0A3C8C582C8CCC5B6
:1028800083CCB5F006DFE4DEE280007FFFB5F00226
:102890000F2240027F012289828A83ECFAE0F5F060
:1028A000A3C8C582C8CCC583CCE0A3C8C582C8CCA8
:1028B000C583CCB5F0D5DFE5DEE380CF89828A839E
:1028C000ECFAE0F5F0A3C8C582C8CCC583CCE4938C
:1028D000A3C8C582C8CCC583CCB5F0AFDFE4DEE2C7
:1028E00080A988F0EF60010E4E60ABED2402B404C5
:1028F000005098F582EB2402B40400508E23234547
:1029000082239027D373EF4E6012EF60010EEDBB70
:10291000010B89828A83F0A3DFFCDEFA2289F05062
:1029200007F709DFFCA9F022BBFEFCF309DFFCA9D5
:10293000F022E709F608DFFA807BE9D39850F3E943
:102940002FF9E82FF819E718F6DFFA8068E709F29F
:1029500008DFFA806080E388828C83E709F0A3DFD8
:10296000FA8052E309F608DFFA804AE9D398500E5C
:10297000E92FF9E82FF819E318F2DFFA8037E309B5
:10298000F208DFFA802F88828C83E309F0A3DFFA54
:10299000802389828A83E0A3F608DFFA8017898280
:1029A0008A83E493A3F208DFF9800A89828A83E0AC
:1029B000A3F208DFFA022A4480B180F980A580C61C
:1029C00080DC80F180738010808380E9808780873D
:1029D00080D980E180BC8073D3E998EA9C5039E9C2
:1029E0002FF582EA3BF583E82FF8EC3BFC0582D516
:1029F000820215831582E493C8C582C8CCC583CCF6
:102A00000582D5820215831582F0C8C582C8CCC55F
:102A100083CCDFD9DED7802E89828A83ECFAE493D7
:102A2000A3C8C582C8CCC583CCF0A3C8C582C8CC16
:102A3000C583CCDFE9DEE7800D89828A83E493A336
:102A4000F608DFF9ECFAA9F0EDFB22D3E998EA9C4D
:102A50005038E92FF582EA3BF583E82FF8EC3BFC90
:102A60000582D5820215831582E0C8C582C8CCC50F
:102A700083CC0582D5820215831582F0C8C582C831
:102A8000CCC583CCDFDADED880BC89828A83ECFABD
:102A9000E0A3C8C582C8CCC583CCF0A3C8C582C892
:102AA000CCC583CCDFEADEE8809C809888F08E83FA
:102AB000EF60010E4E608DED2402B404005085F5E8
:102AC00082EB2402B4040050E123234582AB83232C
:102AD0009029B873BC000BBE0029EF8DF084FFADC8
:102AE000F022E4CCF875F008EF2FFFEE33FEEC3364
:102AF000FCEE9DEC984005FCEE9DFE0FD5F0E9E460
:102B0000CEFD22EDF8F5F0EE8420D21CFEADF0757E
:102B1000F008EF2FFFED33FD4007985006D5F0F297
:102B200022C398FD0FD5F0EA228F3D78537C007DBB
:102B3000007BFF7AEB792B7E007F021223EBE4F51A
:102B400042E53D75F029A42407F582E43403F583BA
:102B5000E024FC601524FE602A240624F850087046
:102B600003022C0E022C327F0022E53DC454F024D7
:102B70009DF582E43403F583E06404600302329D32
:102B80007F0122E53DC454F0249DF582E43403F531
:102B900083E0FF64016008EF6402600302329DE598
:102BA0003D75F029A4240FF582E43403F583E05445
:102BB00038FF7DFF1200038F3EE53E30E0037F00CB
:102BC00022E53D75F029A4240FF582E43403F58352
:102BD000E05407FF7DFF1200038F3EE53E20E00337
:102BE0007F0022E53D75F029A42408F9740335F02F
:102BF000FA7B017D01129C6EE53D75F029A4240F3E
:102C0000F582E43403F583E0540FF07F0122E53DC3
:102C1000C454F0249DF582E43403F583E06403603A
:102C20000302329DAF3D12E2C1EF700302329D7F7D
:102C30000122AF3D9001DFE0FEA807088002C31328
:102C4000D8FC540125E0FEE42400F55AEE34F0F5FA
:102C500059E4341FF558E43480F557E53D75F040EC
:102C6000A4FFE4EF255AFFE5F03559FEE43558FDA1
:102C7000E43557FC755F0075600175610075620091
:102C800075634012D771E53D75F029A42407F582DC
:102C9000E43403F583E0FF65406044EF6440703C3A
:102CA000E53D75F029A42408F582E43403F583E0BA
:102CB000FFC4540FFFE53D75F029A4241AF582E402
:102CC0003403F583EFF0E53D75F029A42408F5827F
:102CD000E43403F583E0540FF07F01227F0022E506
:102CE0003D75F040A4FFE4EF255AFFE5F03559FEAD
:102CF000E43558FDE43557FCEF2401FFE43EFEE4E3
:102D00003DFDE43CFC755F00756001756100756216
:102D10000075635612D771E53D75F040A4FFE4EFEE
:102D2000255AFFE5F03559FEE43558FDE43557FCEA
:102D3000EF2402FFE43EFEE43DFDE43CFC755F0051
:102D400075603C7A0379E17561017562037563E131
:102D500012D771E4F53FE53FC39556400302329D1B
:102D600075F00AE53FA424E1F582E5F03403F5832C
:102D7000E01227092FA8422FA8442D9645319546E9
:102D80002D964F31D7522E0F532EC8572E0F582F36
:102D9000A85A00003298E4F53EF541E53D75F0296A
:102DA000A42408F582E43403F583E5822541F58205
:102DB000E43583F583E0FF75F00AE53FA424E3F5ED
:102DC00082E5F03403F583E5822541F582E435831D
:102DD000F583E0FD120003EF253EF53E0541E54198
:102DE000C3940840B675F00AE53FA424E1F582E5F6
:102DF000F03403F583E0B4450BE53E20E0030232F6
:102E0000987F0022E53E30E0030232987F0022E501
:102E10003D75F029A42408F9740335F0FA7B017894
:102E2000437C007D007E007F081223EB75F00AE5ED
:102E30003FA424E1F582E5F03403F583E0B45305C3
:102E40007542028003754201E53F75F00AA424E350
:102E5000F9740335F0FA7B01C003C001E53D75F05C
:102E600029A42408F9740335F08B5EF55F8960D0DE
:102E700001D00312E3F3E53F75F00AA424E1F974ED
:102E80000335F0FA7B01C003C001E53D75F029A4CC
:102E90002408F9740335F08B5EF55F8960D001D0AA
:102EA0000312CD228F3EE53D75F029A42408F97464
:102EB0000335F0A801FC7D017B007A0079437E0098
:102EC0007F081223EB023298E53D75F029A424080F
:102ED000F9740335F0FA7B0178437C007D007E00B5
:102EE0007F081223EBE53F75F00AA424E3F974038D
:102EF00035F0FA7B01C003C001E53D75F029A4243B
:102F000008F9740335F08B5EF55F8960D001D0035A
:102F100012E3F3E53D75F029A4240FF582E43403B0
:102F2000F583C083C082E0FF75F00AE53FA424EA80
:102F3000F582E5F03403F583E0FEEF5ED082D083C6
:102F4000F075F00AE53FA424EAF582E5F03403F5D4
:102F500083E0523EE53D75F029A4240FF582E43468
:102F600003F583E0FF653E601DE542B40115E53ED3
:102F7000540FFEBE0F0A053EE53E6F60097F00223A
:102F80007F00227F0022E53D75F029A42408F97412
:102F90000335F0A801FC7D017B007A0079437E00B7
:102FA0007F081223EB023298E53F04F540E540C369
:102FB0009556506975F00AE540A424E1F582E5F0E4
:102FC0003403F583E064467050F54175F00AE53F3F
:102FD000A424E3F582E5F03403F583E5822541F589
:102FE00082E43583F583C083C082E0FF75F00AE593
:102FF00040A424E3F582E5F03403F583E58225411E
:10300000F582E43583F583E0FEEF4ED082D083F085
:103010000541E541B408B48004054080907E007FFE
:10302000087D007B007A00794B12290675F00AE5CD
:103030003FA424E1F582E5F03403F583E0645A60AF
:1030400003023107E53F75F00AA424E3F974033560
:10305000F0755E01F55F8960E53D75F029A42408EF
:10306000F9740335F0756101F56289637B007A00BC
:10307000794B12BB11E540C3955640030232987854
:10308000437C007D007B007A00794B7E007F081234
:1030900023EBE53F75F00AA424E3F9740335F0FA55
:1030A0007B01C003C001E54075F00AA424E3F97474
:1030B0000335F08B5EF55F8960D001D00312E3F336
:1030C0007E007F027D007B007A007953122906E59D
:1030D0004075F00AA424E3F9740335F0FA7B01C0CB
:1030E000031B8B5E755F00756043D00312E3F378BA
:1030F000537C007D007B007A0079497E007F0212BC
:1031000023EB053F023298E53D75F029A42408F928
:10311000740335F0FA7B0178437C007D007E007FEC
:10312000081223EBE53F75F00AA424E3F974033594
:10313000F0FA7B01C003C001E53D75F029A4240825
:10314000F9740335F08B5EF55F8960D001D003120E
:10315000E3F37B007A00794B75F00AE53FA424E1A4
:10316000F582E5F03403F583E0F55F853D60AD3F22
:1031700012B76FE53D75F029A42408F9740335F002
:10318000A801FC7D017B007A0079437E007F081254
:1031900023EB023298E53F75F00AA424E3F97403A7
:1031A00035F0FA7B01C003C001E53D75F029A42488
:1031B00008F9740335F08B5EF55F8960D001D003A8
:1031C00012E3F37B007A007953755F46853D60AD6D
:1031D0003F12B76F023298E53D75F029A42408F933
:1031E000740335F0FA7B0178437C007D007E007F1C
:1031F000081223EBE53F75F00AA424E3F9740335C4
:10320000F0FA7B01C003C001E53D75F029A4240854
:10321000F9740335F08B5EF55F8960D001D003123D
:10322000E3F37E007F087D007B007A00794B122952
:10323000067B007A00794B755F52853D60AD3F1289
:10324000B76FAF3F12DD9A8F40E54054076010E53D
:1032500040131313541FFFC374079FF540800EE5FE
:1032600040131313541FFFC374089FF540753E07A6
:10327000E540C3953E5021744B2540F9E4FAFBC06C
:1032800001744B253EF9E4F55EF55F8960D00112CB
:10329000E5F2153E054080D8053F022D56E53F6515
:1032A000567041E53D75F002A424A5F9740135F08E
:1032B000A801FC7D017B007A0079537E007F021219
:1032C00023EBE53D75F029A42408F9740335F0A833
:1032D00001FC7D017B007A00794B7E007F08122380
:1032E000EB7F01227F00229002897437F0A374C122
:1032F000F09005E3E0FF900001E04F90028BF0E4D6
:10330000F53290003FE0FFE532C39F502C74D92581
:1033100032F582E43402F583E0D394004017900242
:103320008DE0FFAE327401A806088002C333D8FCDA
:103330004F90028DF0053280C9E490028FF0F53293
:10334000900036E0FFE532C39F4003023444E4F5C9
:1033500035E53275F00FA4244AF582E43400F58394
:10336000E024FD600E14602114601E24FE6004241D
:1033700007702AE532540325E0FF7401A80708808E
:1033800002C333D8FCF5358014E532540325E0FF41
:103390007402A807088002C333D8FCF535E5321360
:1033A00013543F2490F582E43402F583E04535F070
:1033B000E4F53574BA2532F582E43401F583E0147E
:1033C000602114601E14600714600424047025E555
:1033D000325407FF7401A807088002C333D8FCF5F4
:1033E000358011E5325407FFE4A807088002C33393
:1033F000D8FCF535E532131313541FFF2493F582DF
:10340000E43402F583E04535F0E4F535E53275F056
:103410000FA4244EF582E43400F583E0B40312E5F2
:10342000325407FE7401A806088002C333D8FCF5A5
:103430003574952FF582E43402F583E04535F005C7
:1034400032023340900002E024FE601424FB501846
:1034500024FD501C2409701E90029C7401F08016FB
:1034600090029C7402F0800E90029C7403F080061F
:1034700090029C7404F030150790029CE04480F0A8
:1034800090031BE0FFC454F0FF9002F2E0540F4F92
:10349000900297F090036DE0FFC454F0FF90034456
:1034A000E0540F4F900298F09002F1E090029BF0F0
:1034B0009001ECE07F00FEA3E07C002400FFEC3EE6
:1034C000CF24FFCF34FFFEE48F398E38F537F53641
:1034D0007F207E4EFDAB39AA38A937A836C3122605
:1034E0005B4009E4F539F538F537F5367E007F2481
:1034F0007D007B017A02799D122906E5392401FFBE
:10350000E43538F53B8F3CF53D8F3EE47FFF7EFF91
:10351000FDFCAB39AA38A937A836C312265B700365
:10352000023666E4F532900658E0FEA3E0FFE4FCC4
:10353000FDAB39AA38A937A836C312265B7003023F
:103540003654E47F10FEFDFCA83612253EE42FFF22
:10355000E43EFEED3414FDEC3480FCC006C007757B
:103560005F00756010E53275F010A4249DF97402B7
:1035700035F0756101F5628963D007D00612D77105
:10358000E5392401FFE43538FEE53225E0243BF837
:10359000A60608A607E47F1F7E4EFDFCAB39AA38BD
:1035A000A937A836C312265B400BE4F539F538F588
:1035B00037F5368015E5392401F539E43538F53825
:1035C000E43537F537E43536F536AE38AF399001A6
:1035D000B7EEF0A3EFF0787676FFE42FFFE43EFE3F
:1035E000E4341AFDE43480FC754F007550017551C8
:1035F0000075520075537612D59BE47876F69001EB
:10360000B7E0FEA3E0FF4E6025E4EF24FFFFEE34B9
:10361000FFFEE43419FDE43480FC754F0075500161
:1036200075510075520075537612D59B801A754FEF
:10363000007550017551007552007553767F1F7EDD
:103640004E7D1A7C8012D59B0532E532C394025020
:1036500003023526E53B9002BDF0A3E53CF0E53DD5
:10366000A3F0A3E53EF09001EAE0D39403500302F7
:103670003889E4F5329001EAE024FAFFE532C39F8D
:10368000400302388974EE2532F582E43401F58373
:10369000E07F00FE74EF2532F582E43401F583E02B
:1036A0007C002400FFEC3ECF24FFCF34FFFEE48FEC
:1036B000398E38F537F536C2D7E5395407FFE404BB
:1036C000A807088002C333D8FCF533E4F534900131
:1036D000DAE0FFE534C39F4003023880E5347B0025
:1036E000C454F0FAE42BFFEA34A0FEE48F428E418A
:1036F000F540F53FAE022400F546E43EF545E434DE
:1037000002F544E433F543E47B08FAF9F8AF39AE47
:1037100038AD37AC361225C9EF2542FFEE3541FEF4
:10372000ED3540FDEC353FFC755F0075600175615E
:103730000075620075637612D771E47B08FAF9F8B8
:10374000AF39AE38AD37AC361225C9EF2546FFEE9E
:103750003545FEED3544FDEC3543FC755F00756085
:103760000175610075620075637712D771E53430B9
:10377000E008753AF07535108006753A0F75350119
:10378000E534C313253224F0F582E43401F583E0F7
:10379000553AB5353C7876E64533F6E47B08FAF9D8
:1037A000F8AF39AE38AD37AC361225C9EF2542FF38
:1037B000EE3541FEED3540FDEC353FFC754F0075B3
:1037C000500175510075520075537612D59B023821
:1037D0007BE53525E0F535E534C313253224F0F5D6
:1037E00082E43401F583E0553A6535600302387BA5
:1037F000E53475F029A42416F582E43403F583E05A
:10380000FF12E2F7EF6074E533F4787656F6E47B66
:1038100008FAF9F8AF39AE38AD37AC361225C9EF32
:103820002542FFEE3541FEED3540FDEC353FFC75A0
:103830004F0075500175510075520075537612D5C1
:103840009BE533F4787756F6E47B08FAF9F8AF395C
:10385000AE38AD37AC361225C9EF2546FFEE3545FB
:10386000FEED3544FDEC3543FC754F007550017598
:10387000510075520075537712D59B05340236CE30
:1038800074062532F532023675228F418D428B4304
:10389000E4F545F544E54154F024E0605024F0702F
:1038A0000302393124F0700302399424F0700302CA
:1038B00039C924D070030239FD24F07003023A5450
:1038C00024806003023A57E54224FE24FD50126032
:1038D0000D24FD24FD5010240A6003023A5775445C
:1038E00001854244023A57754405023A57E542249D
:1038F000FE602014601724F2601F146022146025FB
:1039000024F224FD502524236003023A5775441104
:10391000023A57754412023A57754413023A5775E2
:103920004414023A57754415023A57754416023A40
:1039300057E541122709395831395E323964333934
:103940006A34397035397636397C37398238398E70
:103950003A39883C00003A57754421023A57754479
:1039600022023A57754423023A57754425023A57C2
:10397000754427023A57754428023A57754429027C
:103980003A5775442B023A5775442D023A577544FD
:1039900030023A57E54124BC601724FD60191460D9
:1039A0001C14601F24066003023A57754431023A22
:1039B00057754432023A57754433023A57754434C6
:1039C000023A57754435023A57E54124AE60151462
:1039D000601714601914601B14601D24057078753D
:1039E00044418073754442806E75444380697544D8
:1039F000448064754445805F754447805AE541249E
:103A00007FB408005051903A1475F003A4C5832583
:103A1000F0C58373023A2C023A31023A36023A3B3D
:103A2000023A40023A45023A4A023A4F75447180DE
:103A3000267544728021754473801C754474801708
:103A40007544758012754476800D754477800875CD
:103A500044788003754481E5431227093ACF013A3F
:103A6000CF113AD4123AD9133ADE143ACF213AD4CC
:103A7000223AD9233ADE243ACF413AD4423AD943C2
:103A80003ADE443AE3453AE8463AED473AF2483AF4
:103A9000F7493AFE4A3B054B3B0C4C3ACF513AD4DE
:103AA000523AD9533ADE543AE3553AE8563AED578A
:103AB0003AF2583ACF613AD4623AD9633ADE643A7C
:103AC000E3653AE8663AED673AF26800003B117543
:103AD0004501803D75450280387545048033754544
:103AE00008802E7545108029754520802475454035
:103AF000801F754580801A75450105448013754502
:103B0000020544800C75450405448005754508058B
:103B100044900013E030E006900025E07029E54471
:103B20006025FFE4EF247FFFE43413FEE433FDE47B
:103B30003480FC755F007560017561007562007509
:103B4000634612D7718006754501754601E54655F5
:103B5000457003023D817E007F107D007B007A006E
:103B60007976122906900021E0FF5470FE25E0FED0
:103B700090001FE04E7876F6A3E0FEC454F0FEEF0E
:103B8000540F4E08F690001CE008F6A3E008F6A3D8
:103B9000E008F608A64108A64208A643E541B4613C
:103BA00015E542C39406400EE542940C500890017E
:103BB0007AE0FF12CE6FE541D3941F4073E5419444
:103BC00030506DE54264016035E5426402602FE5E6
:103BD00042642A6029E54264266023E54264276046
:103BE0001DE54264036017E54264356011E54264F7
:103BF00037600BE54264396005E542B43A2A900328
:103C00009BE075F008A424E1F9740435F0FA7B0117
:103C1000787E7C007D007E007F081223EBE5416406
:103C200023600D126E57800890017AE0FF12CE6F6C
:103C3000E541C39420400FE541D3948F5008E541FE
:103C40005470FFBF700890017AE0FF12CE6F9006AB
:103C500058E0FEA3E0FFE4FCFD7B10FAF9F8122522
:103C60003EE42FFFE43EFEED3414FDEC3480FC75A1
:103C70004F0075501075510075520075537612D56E
:103C80009BE4F547900658E0FEA3E0FFE4E42FFF35
:103C9000EE3480FEE4341AFDE43480FC754F007588
:103CA000500175510075520075534712D59BC39052
:103CB0000659E0941F900658E0944E4006E4F0A3A5
:103CC000F0800E900659E004F07006900658E0046B
:103CD000F0900658E0F549A3E0F54A7E007F107D9C
:103CE000FF7B007A007976122906900658E0FEA341
:103CF000E0FFE4E42FFFEE3480FEE4341AFDE43408
:103D000080FC754F00755001755100755200755358
:103D10007612D59BE4F548AE49AF4AE4FCFD7B1032
:103D2000FAF9F812253EE42FFFE43EFEED3414FDCF
:103D3000EC3480FC754F00755010755100755200C1
:103D400075537612D59B054AE54A70020549C3941E
:103D50001FE549944E4005E4F549F54A0548E54814
:103D6000C3940440B2900646E07016AD42AF4112D3
:103D7000E165EF600C9006467407F0900649740AFE
:103D8000F0228B3D8A3E893FAB40AA41A9421224D2
:103D900011540FFEAF061EEF6010AB3DAA3EA93FC7
:103DA000740112245730D7EC80EAAB40AA41A942F3
:103DB00012241154F0FFC4540FFE74FF2542F54243
:103DC00074FF3541F541AF061EEF6015AB3DAA3ECD
:103DD000A93F740A12245730D7EC7D0112E21880F3
:103DE000E5AB40AA41A942122411540FFEAF061EB2
:103DF000EF6015AB3DAA3EA93F746412245730D73B
:103E0000EC7D0112E21880E5AB40AA41A9421224E0
:103E10001154F0FFC4540FFE74FF2542F54274FFA5
:103E20003541F541AF061EEF602BAB3DAA3EA93FE1
:103E300074E812245730D7057D0112E218AB3DAA71
:103E40003EA93F90FFFF740312247930D7D67D023C
:103E500012E21880CFAB40AA41A942122411540F9C
:103E6000FEAF061EEF602BAB3DAA3EA93F741012B9
:103E7000245730D7057D0112E218AB3DAA3EA93F79
:103E800090FFFF742712247930D7D67D0212E218F2
:103E900080CFAB40AA41A94212241154F0FFC45470
:103EA0000FFE74FF2542F54274FF3541F541AF0620
:103EB0001EEF6041AB3DAA3EA93F74A012245730CB
:103EC000D7057D0112E218AB3DAA3EA93F90FFFF46
:103ED000748612247930D7057D0212E218AB3DAA10
:103EE0003EA93F90FFFE740112247930D7C07D03B4
:103EF00012E21880B9AB40AA41A942122411540F12
:103F0000FEAF061EEF6041AB3DAA3EA93F744012D2
:103F1000245730D7057D0112E218AB3DAA3EA93FD8
:103F200090FFFF744212247930D7057D0212E21807
:103F3000AB3DAA3EA93F90FFFE740F12247930D703
:103F4000C07D0312E21880B9AB40AA41A9421224F5
:103F50001154F0FFC4540FFE74FF2542F54274FF64
:103F60003541F541AF061EEF6041AB3DAA3EA93F8A
:103F7000748012245730D7057D0112E218AB3DAA98
:103F80003EA93F90FFFF749612247930D7057D0239
:103F900012E218AB3DAA3EA93F90FFFE749812248E
:103FA0007930D7C07D0312E21880B9AB40AA41A98D
:103FB00042122411540FFEAF061EEF6044AB3DAA1F
:103FC0003EA93F90FFFF74E112247930D7057D02AE
:103FD00012E218AB3DAA3EA93F90FFFE74F51224F1
:103FE0007930D7057D0312E218AB3DAA3EA93F9078
:103FF000FFFD740512247930D7BD7D0412E21880CC
:10400000B6AB40AA41A94212241154F0FFC4540F88
:10401000FE74FF2542F54274FF3541F541AF061E9F
:10402000EF6044AB3DAA3EA93F90FFFF74CA122443
:104030007930D7057D0212E218AB3DAA3EA93F9028
:10404000FFFE749A12247930D7057D0312E218AB73
:104050003DAA3EA93F90FFFD743B12247930D7BDA5
:104060007D0412E21880B6AB40AA41A94212241185
:10407000540FFEAF061EEF605AAB3DAA3EA93F901B
:10408000FFFF74E412247930D7057D0212E218ABE9
:104090003DAA3EA93F90FFFE740B12247930D7054C
:1040A0007D0312E218AB3DAA3EA93F90FFFD745478
:1040B00012247930D7057D0412E218AB3DAA3EA93F
:1040C0003F90FFFC740212247930D7A77D0512E2DD
:1040D0001880A0AB40AA41A94212241154F0FFC499
:1040E000540FFE74FF2542F54274FF3541F541AF90
:1040F000061EEF605AAB3DAA3EA93F90FFFF74E851
:1041000012247930D7057D0212E218AB3DAA3EA9F0
:104110003F90FFFE747612247930D7057D0312E2BA
:1041200018AB3DAA3EA93F90FFFD74481224793098
:10413000D7057D0412E218AB3DAA3EA93F90FFFCD3
:10414000741712247930D7A77D0512E21880A0AB2E
:1041500040AA41A942122411540FFEAF061EEF607F
:104160005AAB3DAA3EA93F90FFFF7410122479304C
:10417000D7057D0212E218AB3DAA3EA93F90FFFE93
:1041800074A512247930D7057D0312E218AB3DAA3D
:104190003EA93F90FFFD74D412247930D7057D04E9
:1041A00012E218AB3DAA3EA93F90FFFC74E812242E
:1041B0007930D7A77D0512E21880A0AB40AA41A9AB
:1041C0004212241154F0FFC4540FFE74FF2542F52F
:1041D0004274FF3541F541AF061EEF6070AB3DAA5A
:1041E0003EA93F90FFFF74A012247930D7057D02CD
:1041F00012E218AB3DAA3EA93F90FFFE7472122452
:104200007930D7057D0312E218AB3DAA3EA93F9055
:10421000FFFD744E12247930D7057D0412E218ABED
:104220003DAA3EA93F90FFFC741812247930D705AF
:104230007D0512E218AB3DAA3EA93F90FFFB740931
:1042400012247930D7917D0612E218808A22E4F593
:104250002C9001DAE0FFE52CC39F4003024700E504
:104260002C75F029A424FFF582E43402F583E06480
:1042700004706CE52C75F029A424FFF582E4340267
:10428000F583E4F0E52C75F029A424FEF582E434EE
:1042900002F583E0FFE52C75F029A424F2F582E411
:1042A0003402F583EFF0E52C75F029A424F2F582B1
:1042B000E43402F583E004F52DE52C2421FBAD2D3B
:1042C0007F5312388A9002F1E0FFAE2C7401A806E9
:1042D000088002C333D8FC4F9002F1F00243EDE5B1
:1042E0002C75F029A424FFF582E43402F583E06400
:1042F0000160030243ED9002F1E0FFAE2C7401A8CF
:1043000006088002C333D8FCF45F9002F1F0E52C7C
:1043100075F029A424FFF582E43402F583E4F0E586
:104320002C75F029A424FDF582E43402F583E064C1
:10433000026046E52CC454F0249EF582E43403F573
:1043400083E0FFE52C75F029A424F2F582E4340221
:10435000F583EFF0E52CC454F0249EF582E4340399
:10436000F583E004F52DE52C2421FBAD2D7F5412BF
:10437000388AAF2C12EA098074E52C75F029A42440
:10438000F2F582E43402F5837405F0E52C75F0292A
:10439000A424F2F582E43402F583E004F52DE52C43
:1043A0002421FBAD2D7F5412388A7B017A007913CA
:1043B0007D0212EB14E52C75F030A4FFE4EF24200D
:1043C000FFE5F03412FEE433FDE43480FC755F0059
:1043D0007560017A0379E17561017562037563E1C6
:1043E00012D7719003E1E0FDAF2C12E9F874E125DA
:1043F0002CF582E43401F583E0FF700302459D242F
:10440000FE70030244E324FE70030244E324032409
:10441000FB500870030244E302459DEF64017057AE
:10442000E52C75F029A424F2F582E43402F58374B6
:1044300005F07B017A0079137D0212EB14E52C75EF
:10444000F030A4FFE4EF2420FFE5F03412FEE43363
:10445000FDE43480FC755F007560017A0379E175D5
:1044600061017562037563E112D7719003E1E0FDAC
:10447000AF2C12E9F8804074E1252CF582E4340178
:10448000F583E0B40314E52C75F029A424F2F58239
:10449000E43402F5837406F0801DE52C75F029A440
:1044A00024F2F582E43402F5837407F07B017A008C
:1044B00079137D0412EB14E52C75F029A424F2F590
:1044C00082E43402F583E004FDE52C2421FB7F3AED
:1044D00012388A74E1252CF582E43401F583E4F086
:1044E00002459D74E1252CF582E43401F583E4F066
:1044F000E52C75F029A424FDF582E43402F583E06F
:1045000064026028E52CC454F0249EF582E4340350
:10451000F583E0FFE52C75F029A424F2F582E4345C
:1045200002F583EFF0AF2C12EA098055E52C75F007
:1045300029A424F2F582E43402F5837405F07B01AA
:104540007A0079137D0212EB14E52C75F030A4FF8C
:10455000E4EF2420FFE5F03412FEE433FDE4348080
:10456000FC755F007560017A0379E1756101756220
:10457000037563E112D7719003E1E0FDAF2C12E9FE
:10458000F8E52C75F029A424F2F582E43402F583D1
:10459000E004FDE52C2421FB7F3A12388AE52C75D6
:1045A000F029A424FDF582E43402F583E06401607F
:1045B0000302466AE52CC454F0249FF582E43403D8
:1045C000F583E0C394205057E52C75F029A424F21C
:1045D000F582E43402F5837405F07B017A007913E7
:1045E0007D0212EB14E52C75F030A4FFE4EF2420DB
:1045F000FFE5F03412FEE433FDE43480FC755F0027
:104600007560017A0379E17561017562037563E193
:1046100012D7719003E1E0FDAF2C12E9F8801DE59F
:104620002C75F029A424F2F582E43402F583740792
:10463000F07B017A0079137D0412EB14E52C75F000
:1046400029A424F2F582E43402F583E004FDE52C8C
:104650002421FB7F4312388AE52C75F029A424FD20
:10466000F582E43402F5837402F0E52C75F029A498
:1046700024FDF582E43402F583E064037053E52CF5
:10468000C454F0249EF582E43403F583E0FFE52C66
:1046900075F029A424F2F582E43402F583EFF0E505
:1046A0002C75F029A424F2F582E43402F583E004A9
:1046B000FDE52C2421FB7F4412388AE52C75F02976
:1046C000A424FDF582E43402F583E4F0AF2C12EA71
:1046D00009E52C75F029A424F2F582E43402F5836F
:1046E000E0FF64056004EFB40611E52CC3940250AA
:1046F0000AE52C6004D2038002D201052C0242514B
:1047000022E51B30E50312E5CA900646E0B40E0030
:104710004003024AC390471CF82828730247460208
:10472000475D02477F0247B70247EB02480E024847
:10473000C70248E90249670249AC0249C2024A1F5E
:10474000024A4C024A99E490064BF0E51B20E6032E
:10475000024AC3531BBF9006467401F022900647DD
:10476000E0B401157B01E4FD7F8512388A90064A8A
:104770007401F090064604F022E4900646F022E52B
:104780001B20E603024AC3531BBF900647E06402A6
:104790006003024AC3900191E0FFA3E09005E1CFDE
:1047A000F0A3EFF07B01E4FD7F8612388AE49006E7
:1047B0004AF0900646F02290028B7441F0A37454A4
:1047C000F0A3745AF0A37430F0A3740DF0A3740A2C
:1047D000F09002897406F0900196E02464900648F7
:1047E000F09006467404F0431B2022E51B30E610CF
:1047F000531BBF900647E0B403069006467405F0CD
:10480000900648E06003024AC3900646F0229002F8
:104810008B7441F0A37454F0A37426F0A37446F093
:10482000A37430F0A37445F0A37430F0A3744CF07B
:10483000A37433F0A37458F0A37430F0A37453F04E
:10484000A37430F0A3743DF0A37433F0A37453F059
:10485000A37437F0A3743DF0A37434F0A37430F064
:10486000A37426F0A37451F0A37430F0A37426F05F
:10487000A37444F0A37430F0A37426F0A3744BF037
:10488000A37430F0A37426F0A37457F0A37430F02F
:10489000A37426F0A37459F0A37430F0A3745AF0F3
:1048A000A37430F0740DF09002B1740AF090028994
:1048B0007427F0900196E02464900648F090064634
:1048C0007406F0431B2022E51B30E60F531BBF90FC
:1048D0000647E0B40305E4900646F0900648E06021
:1048E00003024AC3900646F02290064AE070729096
:1048F0000649E07005900646F022900161E06003F1
:10490000024AC3900621E0FF7E007A02798B788B01
:104910007C027D017B017A0679221223EB9006212D
:10492000E0FF248BF582E43402F583740DF0748C7F
:104930002FF582E43402F583740AF0EF240290022A
:1049400089F090064BE0700990063AE00490064B1F
:10495000F09006467408F09006497446F0431B2018
:1049600022E4900646F022E51B30E626531BBF905A
:104970000647E0B401079006467409F02290064B02
:10498000E014F060079006467407F022E4900646B3
:10499000F022900649E06003024AC3900196E024A9
:1049A000C8900648F0900646740BF022900398E0F9
:1049B0006003024AC39001617408F0900646740ACD
:1049C000F02290063CE0B40113301310900196E001
:1049D00024C8900648F0900646740BF090063CE020
:1049E00064026003024AC3E51B20E603024AC35384
:1049F0001BBF900647E064026003024AC390019126
:104A0000E0FFA3E09005E1CFF0A3EFF07B01E4FD30
:104A10007F8612388AE490064AF0900646F022908B
:104A20000648E06003024AC390028B742BF0A3F0A7
:104A3000A3F09002897403F0900196E024C89006D8
:104A400048F0900646740CF0431B2022E4FFE51B5F
:104A500030E60B531BBF900647E0B403010F9006EE
:104A600048E070027F01EF605A90028B7441F0A31E
:104A70007454F0A37448F0A3740DF0A3740AF0907A
:104A800002897405F0900196E02464900648F09045
:104A90000646740DF0431B2022E51B30E61B531B1A
:104AA000BF900647E0B40205E4900646F090064742
:104AB000E0B40305E4900646F0900648E0700490E8
:104AC0000646F0228F378C388D39754001E4F53D6C
:104AD000F53EF53FE537F47003024E73C3E53994B4
:104AE00040E53894005033E539AE387803C333CE0F
:104AF00033CED8F9FFE4EF2404FFEE3418FEE4339C
:104B0000FDE43480FC755F007560017561007562BD
:104B10000075633B12D771024C1EC3E53994A0E5C2
:104B2000389400503AE53924C0FFE53834FFFEEFF1
:104B30007803C333CE33CED8F9FFE4EF2404FFEE7D
:104B4000341CFEE433FDE43480FC755F00756001C5
:104B500075610075620075633B12D771024C1EC30C
:104B6000E53994C0E53894005039E5392460FFE513
:104B70003834FFFEEF7803C333CE33CED8F9FFE4E9
:104B8000EF2404FFEE3420FEE433FDE43480FC75B2
:104B90005F0075600175610075620075633B12D737
:104BA00071807BC3E53994E0E53894005039E539EC
:104BB0002440FFE53834FFFEEF7803C333CE33CE15
:104BC000D8F9FFE4EF2404FFEE3424FEE433FDE4DF
:104BD0003480FC755F007560017561007562007559
:104BE000633B12D7718037E5392420FFE53834FF65
:104BF000FEEF7803C333CE33CED8F9FFE4EF2404BD
:104C0000FFEE3428FEE433FDE43480FC755F00756C
:104C1000600175610075620075633B12D771AF3B2F
:104C200012E2F78F3BE5377003024E19E53B700344
:104C3000024DA5AF39AE3812A53E787BE630E011C3
:104C4000753D637876E6F53EAF39AE3812C3ED8F29
:104C50003FC3E5399440E53894004003024CF8E541
:104C600039AE387803CEC313CE13D8F9F53A787637
:104C7000E66481605B7879E624EE602D04600302CF
:104C80004D8E74017E00A83A088005C333CE33CE22
:104C9000D8F9FF900665E0FDE4EF5D600675400120
:104CA000024D8EE4F540024D8E74017E00A83A0854
:104CB0008005C333CE33CED8F9FF900665E0FDE41E
:104CC000EF5D6006E4F540024D8E754001024D8EA9
:104CD00074017E00A83A088005C333CE33CED8F9DC
:104CE000FF900683E0FDE4EF5D6003024E667D0108
:104CF000AF3A12E3C3024D8EE53924C0FFE53834E4
:104D0000FFFEEF7803CEC313CE13D8F9F53A7876C9
:104D1000E6648160447879E624EE602004706FE5F3
:104D20003A75F00FA42442F582E43400F583E030B4
:104D3000E105E4F54080577540018052E53A75F091
:104D40000FA42442F582E43400F583E030E10575D8
:104D50004001803AE4F540803574017E00A83A08AD
:104D60008005C333CE33CED8F9FF900662E0FCA3B2
:104D7000E0FDEC5EFAED5F4A6003024E66754001AD
:104D8000EC4EFEED4FFF900662EEF0A3EFF0787967
:104D9000E6FF18E6FD7C00853845853946AB4012B4
:104DA0008276024E66AF39AE3812A53EE53924C090
:104DB000FFE53834FFFEEF7803CEC313CE13D8F9E6
:104DC000F53A7876E664816003024E66047E00A8B8
:104DD0003A088005C333CE33CED8F9FF900662E09F
:104DE000FCA3E0FDEC5EFAED5F4A607AE4F540EF8B
:104DF000F4FFEEF4FEEC5EFEED5FFF900662EEF077
:104E0000A3EFF07879E6FF18E6FD7C00853845854C
:104E10003946AB40128276804DAF39AE3812A53E8E
:104E2000E539AE387803CEC313CE13D8F9F53AFF7F
:104E300074017E00A807088005C333CE33CED8F9AD
:104E4000FF900683E0FDE4EF5D601BE4FDAF3A12E6
:104E5000E3C37879E6FF18E6FD7C0085384585399F
:104E600046E4FB128276E53DB46308AB3FAD3EFFFE
:104E700012388A22E4F534900036E0FFE534C39F0F
:104E80004003025208E53475F00FA4244AF582E489
:104E90003400F583E0B40A0040030251E0904EA4D0
:104EA000F8282873024EC2024F6E024FA9025057D3
:104EB0000250910250D70250EC02510102511602E9
:104EC000517DE53475F00FA4244BF582E43400F5F0
:104ED00083E06402706CE53475F00FA42441F58220
:104EE000E43400F583E07045E53475F008A4FFE490
:104EF000EF2406FFE5F03415FEE433FDE43480FCD6
:104F0000755F00756002756100756200756335122A
:104F1000D771AF36AE3512E945E53475F00FA424EC
:104F200047F582E43400F583EEF0A3EFF0E5347545
:104F3000F00FA4244AF582E43400F5837408F002EB
:104F40005203E53475F00FA4244BF582E43400F5E8
:104F500083E064036003025203E53475F00FA42478
:104F60004AF582E43400F5837405F0025203AF344D
:104F700012E915EF600CE5342441FBE4FD7F3412A7
:104F8000388AE53475F00FA4244AF582E43400F53C
:104F9000837402F0E53475F00FA42442F582E43402
:104FA00000F5837402F0025203E53475F00FA42477
:104FB0004BF582E43400F583E06401706EE53475EE
:104FC000F00FA42441F582E43400F583E06401701D
:104FD00045E53475F008A4FFE4EF2406FFE5F0345E
:104FE00015FEE433FDE43480FC755F0075600275E6
:104FF000610075620075633512D771AF36AE351238
:10500000E945E53475F00FA42447F582E43400F552
:1050100083EEF0A3EFF0E53475F00FA4244AF58297
:10502000E43400F5837409F0025203E53475F00F9F
:10503000A4244BF582E43400F583E06403600302AA
:105040005203E53475F00FA4244AF582E43400F5E8
:10505000837405F0025203AF3412E915EF600CE5DA
:10506000342441FBE4FD7F3312388AE53475F00FB8
:10507000A4244AF582E43400F583E4F0E53475F0C5
:105080000FA42442F582E43400F5837401F0025247
:1050900003E53475F00FA4244BF582E43400F58366
:1050A000E0FFB40215E53475F00FA4244AF582E45C
:1050B0003400F5837406F0025203EF6401600302CA
:1050C0005203E53475F00FA4244AF582E43400F568
:1050D000837407F0025203E53475F00FA4244AF5F7
:1050E00082E43400F5837404F0025203E53475F071
:1050F0000FA4244AF582E43400F5837401F00252CF
:1051000003E53475F00FA4244AF582E43400F583F6
:105110007403F0025203E53475F00FA4244BF582BA
:10512000E43400F583E0B40126E53475F00FA424DF
:105130004AF582E43400F583E4F0E53475F00FA419
:105140002442F582E43400F5837401F0025203E551
:105150003475F00FA42447F582E43400F583E0FEB3
:10516000A3E04E6003025203E53475F00FA4244A15
:10517000F582E43400F5837401F0025203E53475DE
:10518000F00FA4244BF582E43400F583E0B402264A
:10519000E53475F00FA4244AF582E43400F58374F5
:1051A00002F0E53475F00FA42442F582E43400F5F2
:1051B000837402F0804DE53475F00FA42447F58226
:1051C000E43400F583E0FEA3E04E7037E53475F07B
:1051D0000FA4244AF582E43400F5837403F080239D
:1051E000E53475F00FA4244AF582E43400F583E435
:1051F000F0E53475F00FA42442F582E43400F58321
:105200007401F00534024E7722900398E060131485
:10521000F0700F531BF7F519F518900161F0D29C4F
:10522000C2B290018FE0600214F0900195E060023C
:1052300014F090064CE0600214F090019AE06002D5
:1052400014F0900194E0600214F0900648E06002CF
:1052500014F0E4F53490003FE0FFE534C39F5020A4
:1052600074142534F582E43400F583E0600E741480
:105270002534F582E43400F583E014F0053480D55C
:10528000E4F5349001DAE0FFE534C39F5051E53492
:1052900075F029A42413F582E43403F583E0603B20
:1052A000E53475F029A42413F582E43403F583E092
:1052B00014F07027E53475F029A42401F97403353E
:1052C000F0FA7B017D0112EB14E5341460090470DF
:1052D0000AC224C2208004C225C221053480A490C1
:1052E0000397E004F0C394625003025590E4F090F9
:1052F0000025E0600214F0E4F5349001DAE0FFE507
:1053000034C39F503FE53475F006A42463F582E46E
:105310003401F583E06029E53475F006A42463F5D3
:1053200082E43401F583E014F0E53475F006A4243A
:1053300063F582E43401F583E07005AF3412001E9A
:10534000053480B6900649E0600214F09001A4E0B4
:10535000600214F0E4F5359001DAE0FFE535C39F13
:105360004003025420E53575F029A424FCF582E4BD
:105370003402F583E06012E53575F029A424FCF5CC
:1053800082E43402F583E014F0E4F536E53575F097
:105390000FA424E6F582E43405F583E5822536F58D
:1053A00082E43583F583E06066E53575F00FA4246B
:1053B000E6F582E43405F583E5822536F582E435A9
:1053C00083F583E014F0E53575F00FA424E6F5824B
:1053D000E43405F583E5822536F582E43583F583EB
:1053E000E0702CE53575F029A42401F9740335F03B
:1053F000FA7B017D4012EB14E5366013E53575F05C
:1054000029A42401F9740335F0FA7D1012EB140578
:1054100036E536C39402500302538C0535025357C8
:10542000E4F535900040E0FFE535C39F502CE535AD
:1054300025E02450F582E43406F583E0FEA3E04E37
:105440006014E53525E02450F582E43406F58374D4
:10545000FFF5F0122528053580C9E4F535900036B2
:10546000E0FFE535C39F5054E53575F00FA42447A0
:10547000F582E43400F583E0FEA3E04E6016E535E6
:1054800075F00FA42447F582E43400F58374FFF52A
:10549000F0122528E53575F00FA4244FF582E43489
:1054A00000F583E06012E53575F00FA4244FF58216
:1054B000E43400F583E014F0053580A1E4F535907F
:1054C000003FE0FFE535C39F502CE53525E0240380
:1054D000F582E43400F583E0FEA3E04E6014E53588
:1054E00025E02403F582E43400F58374FFF5F0121F
:1054F0002528053580C9E4F534900040E0FFE53407
:10550000C39F4003025590E53475F01BA424FFF5BA
:1055100082E43400F583E0FEA3E04E6016E53475C6
:10552000F01BA424FFF582E43400F58374FFF5F04A
:10553000122528E53475F01BA42403F582E4340118
:10554000F583E0FEA3E04E6016E53475F01BA4245D
:1055500003F582E43401F58374FFF5F0122528E5A4
:105560003475F01BA42405F582E43401F583E0FED4
:10557000A3E04E6016E53475F01BA42405F582E423
:105580003401F58374FFF5F012252805340254F92F
:1055900022C0E0C0F0C083C082C0D075D00820997E
:1055A000030256BB900196E0240F900398F0C29935
:1055B000E51912270955D40055E90155F502562A77
:1055C00003565104567C05568406568C0756970997
:1055D000000056BB7599FF0518E518C394035003E6
:1055E0000256BB7519010256BB759955751902759E
:1055F00018000256BBAF18051874842FF582E434E6
:1056000002F583E0F52AF599E518C39407500302E3
:1056100056BB751800900289E0D3940140067519B5
:10562000030256BB7519040256BBAF180518748BDC
:105630002FF582E43402F583E0F52AF5999002898A
:10564000E014FFE518C39F407275190475180080B7
:105650006AAF18051874C72FF582E43402F583E0A9
:10566000F5999001EBE0646A6004E0B44202051829
:10567000E518D394014044751905803F759900756C
:1056800019068037759900751907802F751900C2A2
:10569000B2D29CC2188024AF180518748B2FF582E3
:1056A000E43402F583E0F52AF599900289E0FFE5FC
:1056B00018C39F40067519057518002098030258F5
:1056C000FE900196E0240F900398F0C29885992AE5
:1056D000E51B30E3030258FEE51914604A14606EBE
:1056E0001470030257961470030257BF24FC700312
:1056F00002583D240860030258FEE52AB4FF0675EF
:1057000019010258FEE52AB45509751902751800E9
:105710000258FEE52A70030258FE751801900193A5
:10572000F07519080258FEE52AB455097519027575
:1057300018000258FEE52AB4FF03D38001C35003CA
:105740000258FE751900900398E4F00258FEAF1855
:10575000051874E52FF582E43401F583E52AF0E5B8
:1057600018C3940750030258FE9001EAE0B40109FF
:105770007519047518000258FE9001EAE0D3949759
:10578000400B751900900398E4F00258FE7518005C
:105790007519030258FEAF18051874EC2FF582E452
:1057A0003401F583E52AF09001EAE014FFE518C31F
:1057B0009F50030258FE7519047518000258FEAF79
:1057C00018051874822FF582E43402F583E52AF077
:1057D0009001EBE0646A6009E064426004E0B44474
:1057E000020518E518D3940150030258FE751900FC
:1057F0009001E7E0640160030258FEA3E0640160E9
:10580000030258FE900198E0FF9001E5E06F60030D
:105810000258FE90019BE0FF9001E6E06F600302FA
:1058200058FE900398F0E51C70047F0180027F0011
:10583000EF20E0030258FE431B010258FEAF18059B
:105840001874EC2FF582E43401F583E52AF0E518AD
:10585000C39496400B751900900398E4F00258FE2B
:10586000E52A640D60030258FE900193E09001EC7C
:10587000F074EC2518F9E43401A809FC7D017BFFE4
:105880007AE9792F7E007F081228E2EF70129003E8
:1058900098F0431B40F519D29C90064704F0805EB7
:1058A00074EC2518F9E43401A809FC7D017BFF7A2A
:1058B000E979377E007F0B1228E2EF70139003988E
:1058C000F0431B40F519D29C9006477402F0802EDD
:1058D00074EC2518F9E43401A809FC7D017BFF7AFA
:1058E000E979427E007F031228E2EF70119003985D
:1058F000F0431B40F519D29C9006477403F0D0D0BA
:10590000D082D083D0F0D0E0328F2CE4FFE52C148D
:1059100060111460151460192403701AA220E43376
:10592000FF8013A221E433FF800CA222E433FF8026
:1059300005A223E433FFEF7003025C56E52C75F0FB
:1059400029A42407F582E43403F583E4F0753A01D1
:10595000F52DE52DC394505043E52C75F029A42472
:1059600008F582E43403F583E054F8F53B64D06035
:1059700005E53BB4B01DE4F53AE53BC4540FF538FA
:10598000E4F52EAF2C12904C052EE52EC394054065
:10599000F28009AF2C12904C052D80B6E53A6003D9
:1059A000025B18FE7F08FDFB7A007976122906E477
:1059B000F53C753A03F52DE52C75F029A42408F57E
:1059C00082E43403F583E0FFC4540F6238EF54F8E7
:1059D000FFBFF81FE4F52EAF2C12904C052EE52EDC
:1059E000C3940540F2E53A64036003025B1BF53A99
:1059F000025B1BE4F52EE52E64047003025A97E562
:105A00003C6003025A97C2D77876E6FF25E0F60895
:105A1000E6FF25E0F630D70518E64401F67878E68B
:105A2000FF25E0F630D70518E64401F67879E6FF61
:105A300025E0F630D70518E64401F6787AE6FF252A
:105A4000E0F630D70518E64401F6787BE6FF25E05E
:105A5000F630D70518E64401F6787CE6FF25E0F637
:105A600030D70518E64401F6787DE6FF25E0F630EC
:105A7000D70518E64401F6E52C75F029A42408F5AD
:105A800082E43403F583E030E706787DE64401F6EE
:105A9000AF2C12904C8067787DE6540FB410005004
:105AA0003F905AA8F8282873025AD8025ADD025AA1
:105AB000DD025AD8025ADD025AD8025AD8025ADDFB
:105AC000025ADD025AD8025AD8025ADD025AD802C6
:105AD0005ADD025ADD025AD87539808003E4F5395F
