:1000000002CC1BE4FE7C80ED5207EC600A5F6001CD
:100010000EECC313FC80F3AF0622FF02CC7012CEAD
:10002000A222FF02481B12CDFB900000E0FF12B39A
:100030005622FF0283ACFFFFFFFFFFFFFFFFFFFF22
:10004000FFFFFFFFFFFFFFFFFFFFFFFFFFFFFFFFC0
:10005000FFFFFFFFFFFFFFFFFFFFFFFFFFFFFFFFB0
:10006000FFFFFFFFFFFFFFFFFFFFFFFFFFFFFFFFA0
:10007000FFFFFFFFFFFFFFFFFFFFFFFFFFFFFFFF90
:100080008F2C8D2DE4F52EF52F90009AE52CF09015
:100090000288E52DF075F02FA42440F582E43402A7
:1000A000F583E0B41600400302152D9000B2F82845
:1000B00028730200F40201710202AE020336020448
:1000C000E90205FE02076C02081402097F020AA970
:1000D000020AF9020D860212AC0212DE02132F028E
:1000E00013800213D102140D0214570214A102143A
:1000F000E9020DFAE52D75F02FA4243CF582E434D5
:1001000002F583E030E32AE52D75F02FA4243CF9B5
:10011000740235F0FA7B017D0812CE7AE52D75F078
:100120002FA42440F582E43402F5837401F0021513
:100130002DE52D75F02FA4243CF582E43402F583DF
:10014000E020E70302152DE52D75F02FA4243CF9DE
:10015000740235F0FA7B017D8012CE7AE52D75F0C0
:100160002FA42440F582E43402F5837402F00215D2
:100170002DE52D75F013A42489F582E43402F5836E
:10018000E0FF12CA42E52D75F02FA4244FF582E45A
:100190003402F583EFF0E52D75F02FA42428F974CF
:1001A0000235F0FA7B01C001E52D75F008A424B2F8
:1001B000F9740335F0A801FC7D01D0017E007F08B1
:1001C0001226BCE52D75F002A4FFAEF024BFF97431
:1001D000003EFA7B01C001749B2FF974003EA80118
:1001E000FC7D01D0017E007F021226BCE52D75F05A
:1001F0002FA42427F582E43402F583E06404704CD4
:10020000E52D75F02FA4244FF582E43402F583E048
:100210004420F52E74017E00A82D088005C333CE3E
:1002200033CED8F9FF9000E0E0FDE4EF5D70057596
:100230002F268003752F27E52D75F02FA42440F578
:1002400082E43402F583740CF002152DE52C75F070
:100250001FA42476F582E43400F583E4F0A3F0FDD6
:10026000FCAF2D128227E52C75F01FA42478F582AF
:10027000E43400F583EEF0A3EFF04E601CAD2DAF3B
:100280002C12C30AE52D75F02FA42440F582E43426
:1002900002F5837403F002152DE52D75F02FA424CB
:1002A00040F582E43402F583740DF002152DE52D3E
:1002B00075F02FA4244FF582E43402F5837403F023
:1002C000E52D75F02FA42428F9740235F0FA7B018E
:1002D000C001E52D75F008A424B2F9740335F0A827
:1002E00001FC7D01D0017E007F041226BCE4FDFCF0
:1002F000AF2D12A18BE52C75F01FA42476F582E4B6
:100300003400F583EEF0A3EFF04E6015E52D75F0A7
:100310002FA42440F582E43402F5837404F002151E
:100320002DE52D75F02FA42440F582E43402F583E9
:100330007411F002152DAD2CAF2D129EF68F31EFFA
:10034000602CE52D75F02FA4244FF582E43402F5DE
:1003500083E04420F52E85312FE52D75F02FA42460
:1003600040F582E43402F583740CF002152DE52D7E
:1003700075F02FA42427F582E43402F583E070336E
:10038000AD2DAF2C12B25AE52D75F02FA4244FF5E8
:1003900082E43402F583E04420F52E752F28E52D04
:1003A00075F02FA42440F582E43402F583740CF038
:1003B00002152DE52D75F013A4248EF582E4340288
:1003C000F583E06015E52D75F02FA42440F582E457
:1003D0003402F583740BF002152DE52D75F02FA472
:1003E0002427F582E43402F583E0FF64016027EFFF
:1003F00064036022EF6406601DEF6405600302047D
:10040000B6E52D75F02FA42437F582E43402F58388
:10041000E060030204B6E52C75F01FA42476F58293
:10042000E43400F583E0FEA3E04E7053AD2DAF2C15
:1004300012B25AE52D75F02FA4244FF582E4340250
:10044000F583E04420F52E74017E00A82D08800578
:10045000C333CE33CED8F9FF9000E0E0FDE4EF5D8A
:100460007005752F018003752F03E52D75F02FA4FE
:100470002440F582E43402F583740CF002152DE576
:100480002D75F02FA42440F582E43402F583E0FFBB
:10049000E52D75F02FA42441F582E43402F583EFB5
:1004A000F0E52D75F02FA42440F582E43402F583A5
:1004B0007405F002152DAD2DAF2C12B25AE52D7535
:1004C000F02FA4244FF582E43402F583E04420F5B4
:1004D0002E752F2AE52D75F02FA42440F582E434E3
:1004E00002F583740CF002152DE52D75F02FA42470
:1004F00027F582E43402F583E07033AD2DAF2C1282
:10050000B25AE52D75F02FA4244FF582E43402F59C
:1005100083E04420F52E752F26E52D75F02FA424B9
:1005200040F582E43402F583740CF002152DE52DBC
:1005300075F02FA42427F582E43402F583E0FF64EC
:10054000026008EF640360030205CBE52C75F01F21
:10055000A42476F582E43400F583E0FEA3E04E7037
:1005600033AD2DAF2C12B25AE52D75F02FA4244FC8
:10057000F582E43402F583E04420F52E752F01E581
:100580002D75F02FA42440F582E43402F583740C19
:10059000F002152DE52D75F02FA42440F582E434EA
:1005A00002F583E0FFE52D75F02FA42441F582E4E8
:1005B0003402F583EFF0E52D75F02FA42440F58289
:1005C000E43402F5837405F002152DAD2DAF2C1225
:1005D000B25AE52D75F02FA4244FF582E43402F5CC
:1005E00083E04420F52E752F2AE52D75F02FA424E5
:1005F00040F582E43402F583740CF002152DE52CED
:1006000075F01FA42476F582E43400F583E0FEA3A0
:10061000E024FFFFEE34FFFEE4FCFD7B04FAF9F872
:100620001227D9E42FFFE43EFEED3401FDE43CFC4B
:10063000755E00755F0475600075610075627E12FD
:10064000C5E7E47882F608F608F608F6126557EF73
:100650007033AD2DAF2C12B25AE52D75F02FA424B6
:100660004FF582E43402F583E04420F52E752F1215
:10067000E52D75F02FA42440F582E43402F583744F
:100680000CF002152DE52D75F013A4248DF582E4F0
:100690003402F583E020E303020757E52C75F01FD1
:1006A000A42476F582E43400F583E0FEA3E024FF81
:1006B000FFEE34FFFEE4EF24A8FFEE3461FEE434E5
:1006C00001FDE433FC755E00755F017560007561C6
:1006D0000075627E12C5E7787EE630E77AE52C7514
:1006E000F01FA42476F582E43400F583E0FEA3E055
:1006F00024FFFFEE34FFFEEF25E0FFEE33FEE42F94
:10070000FFEE34C4FEE43401FDE433FC755E007595
:100710005F0275600075610075623212C5E7E533EE
:1007200045327033AD2DAF2C12B25AE52D75F02F36
:10073000A4244FF582E43402F583E04420F52E75BD
:100740002F13E52D75F02FA42440F582E43402F533
:1007500083740CF002152DE52D75F02FA42440F5BF
:1007600082E43402F5837406F002152DE52C75F051
:100770001FA42476F582E43400F583E0FEA3E02490
:10078000FFFFEE34FFFEE4FCFD7B04FAF9F81227CC
:10079000D9EF2430FFEE3475FEED3401FDE43CFC6E
:1007A000755E00755F0475600075610075627E128C
:1007B000C5E7747E252DF8E6FF12CE85EF704090D8
:1007C00004E3E06007752F3AE4F08003752F11AD64
:1007D0002DAF2C12B25AE52D75F02FA4244FF582BF
:1007E000E43402F583E04420F52EE52D75F02FA4C6
:1007F0002440F582E43402F583740CF002152DE5F3
:100800002D75F02FA42440F582E43402F58374079B
:10081000F002152DE52D75F02FA42441F582E43466
:1008200002F583E06403600302096AE52D75F02F89
:10083000A42427F582E43402F583E0640560030212
:100840000955E52C75F01FA42476F582E43400F5F3
:1008500083E0FEA3E024FFFFEE34FFFEE4FCFD7B1B
:1008600004FAF9F81227D9E42FFFEE3480FEE43DB4
:10087000FDE43CFC755E00755F0475600075610009
:1008800075627E12C5E712CA17E52D75F02FA424F4
:1008900037F582E43402F583EFF07003020922AFEA
:1008A0002D12CCA6E52D75F02FA42436F582E43464
:1008B00002F583740AF0E52C75F01FA42476F58206
:1008C000E43400F583E0FEA3E024FFFFEE34FFFEF6
:1008D000E4FCFD7B04FAF9F81227D9E42FFFEE348B
:1008E00080FEE43DFDE43CFCC006C007755E00757B
:1008F0005F04E52D75F02FA42430F9740235F075EE
:100900006001F5618962D007D00612C5E7E52D7553
:10091000F02FA42440F582E43402F5837408F00239
:10092000152DAD2DAF2C12B25AE52D75F02FA42444
:100930004FF582E43402F583E04420F52E752F2331
:10094000E52D75F02FA42440F582E43402F583747C
:100950000CF002152DE52D75F02FA42440F582E44E
:100960003402F5837409F002152DE52D75F02FA4DE
:100970002440F582E43402F5837409F002152DE574
:100980002D75F02FA4243CF582E43402F583E03089
:10099000E778E52D75F02FA4243CF9740235F0FAC0
:1009A0007B017D8012CE7AE52D75F02FA4FFAEF08D
:1009B0002428F974023EFA7B01C00174302FF974C7
:1009C000023EA801FC7D01D0017E007F04122B0CA9
:1009D000EF7015E52D75F02FA42440F582E4340264
:1009E000F5837409F002152DAD2DAF2C12B25A7596
:1009F0002E23752F21E52D75F02FA42440F582E4D8
:100A00003402F583740CF002152DE52D75F02FA43A
:100A1000243CF582E43402F583E030E344AD2DAFAD
:100A20002C12B25AE52D75F02FA4244FF582E43430
:100A300002F583E04420F52E752F22E52D75F02F69
:100A4000A42437F582E43402F583E4F0E52D75F053
:100A50002FA42440F582E43402F5837401F00215DA
:100A60002DE52D75F02FA42436F582E43402F583AC
:100A7000E0600302152DAD2DAF2C12B25AE52D7595
:100A8000F02FA4244FF582E43402F583E04420F5EE
:100A90002E752F22E52D75F02FA42440F582E43425
:100AA00002F583740CF002152DAF2C12AAB5EF607D
:100AB00033AD2DAF2C12B25AE52D75F02FA4244F73
:100AC000F582E43402F583E04420F52E752F34E5F9
:100AD0002D75F02FA42440F582E43402F583740CC4
:100AE000F002152DE52D75F02FA42440F582E43495
:100AF00002F583740AF002152DE52C75F01FA4246D
:100B000076F582E43400F583E0FEA3E024FFFFEEF7
:100B100034FFFEE4EF24A8FFEE3461FEE43401FD6F
:100B2000E433FC755E00755F0175600075610075EA
:100B3000627E12C5E7787EE630E215E52D75F02F6E
:100B4000A42440F582E43402F5837415F002152DD7
:100B5000E52D75F013A42499F582E43402F583E0C1
:100B6000FF12C866EF7003020BFBE52C75F01FA4A3
:100B70002476F582E43400F583E0FEA3E024FFFB55
:100B8000EE34FFFAAD2DAF2C127B6FEF706D74D782
:100B9000252DF9E43400FA7B017D0112CE9AE52D72
:100BA00075F013A42497F582E43402F583E030E174
:100BB00017D211E52D75F02FA42440F582E43402FC
:100BC000F5837415F002152DAD2DAF2C12B25AE538
:100BD0002D75F02FA4244FF582E43402F583E04410
:100BE00020F52E752F31E52D75F02FA42440F582C8
:100BF000E43402F583740CF002152DE52D25E02474
:100C0000EDF582E43404F583E0FF12C866EF70036B
:100C1000020CA3E4F531E52C75F01FA42476F582CF
:100C2000E43400F583E0FEA3E024FFFDEE34FFFC96
:100C3000AF2D128EBEEF706B74D7252DF9E4340002
:100C4000FA7B017D0212CE9AE52D25E024ECF58297
:100C5000E43404F583E030E117D210E52D75F02F70
:100C6000A42440F582E43402F5837415F002152DB6
:100C7000AD2DAF2C12B25AE52D75F02FA4244FF5EF
:100C800082E43402F583E04420F52E752F32E52D01
:100C900075F02FA42440F582E43402F583740CF03F
:100CA00002152DE52C75F01FA42476F582E434009E
:100CB000F583E0FEA3E024FFFDEE34FFFCAF2D1230
:100CC000A493E52D75F02FA42451F582E43402F5A8
:100CD00083E0FF12C866EF7003020D713016030245
:100CE0000D71E52C75F01FA42476F582E43400F52F
:100CF00083E0FEA3E024FFFDEE34FFFCAF2D12A243
:100D000050EF706D74D7252DF9E43400FA7B017D26
:100D10000412CE9AE52D75F02FA42450F582E43408
:100D200002F583E030E117D212E52D75F02FA424EF
:100D300040F582E43402F5837415F002152DAD2DD3
:100D4000AF2C12B25AE52D75F02FA4244FF582E492
:100D50003402F583E04420F52E752F33E52D75F030
:100D60002FA42440F582E43402F583740CF00215BC
:100D70002DE52D75F02FA42440F582E43402F5838F
:100D80007415F002152DE52D75F02FA42440F58281
:100D9000E43402F583E0FFE52D75F02FA42441F53E
:100DA00082E43402F583EFF0AD2DAF2C12B05EEF8C
:100DB0006015E52D75F02FA42440F582E43402F58A
:100DC000837415F002152DAD2DAF2C12B25AE52DFE
:100DD00075F02FA4244FF582E43402F583E044201B
:100DE000F52E752F02E52D75F02FA42440F582E431
:100DF0003402F583740CF002152DE52D75F02FA447
:100E00002427F582E43402F583E064067033AD2DC7
:100E1000AF2C12B25AE52D75F02FA4244FF582E4C1
:100E20003402F583E04420F52E752F26E52D75F06C
:100E30002FA42440F582E43402F583740CF00215EB
:100E40002DE52D75F013A4248DF582E43402F5838D
:100E5000E020E23C74DE252DF9E43400FA7B017DCC
:100E60000412CE9AE52D75F02FA4244FF582E434B8
:100E700002F583E04490F52EE4F52FE52D75F02F73
:100E8000A42440F582E43402F583740CF002152D9D
:100E9000AF2D12CCA6E52C75F01FA4245DF582E4DD
:100EA0003400F583E0FEA3E0FF12CD0AE52D75F0D6
:100EB0002FA42452F582E43402F583EFF0E52D24CB
:100EC00021F530E52C75F01FA42474F9740035F079
:100ED000FA7B017D0112CE9AE52D75F02FA42441F5
:100EE000F582E43402F583E0640B7042E52D75F081
:100EF0002FA4244FF582E43402F583E04411FFABC4
:100F0000307D05122CFEE52C75F01FA42474F974B5
:100F10000035F0FA7B017D8012CE9A74DE252DF922
:100F2000E43400FA7B017D0412CE9A02112D3010B8
:100F300042E52D75F02FA4244FF582E43402F583A9
:100F4000E04410FFAB307D03122CFEE52C75F01F42
:100F5000A42474F9740035F0FA7B017D8012CE9AD6
:100F600074DE252DF9E43400FA7B017D0412CE9A5B
:100F7000021085301142E52D75F02FA4244FF58223
:100F8000E43402F583E04410FFAB307D02122CFE06
:100F9000E52C75F01FA42474F9740035F0FA7B0178
:100FA0007D8012CE9A74DE252DF9E43400FA7B019F
:100FB0007D0412CE9A021085301242E52D75F02F75
:100FC000A4244FF582E43402F583E04410FFAB30F3
:100FD0007D04122CFEE52C75F01FA42474F9740016
:100FE00035F0FA7B017D8012CE9A74DE252DF9E46E
:100FF0003400FA7B017D0412CE9A0210859004E33E
:10100000E06043E4F0E52D75F02FA4244FF582E471
:101010003402F583E04410FFAB307D06122CFEE570
:101020002C75F01FA42474F9740035F0FA7B017D4F
:101030008012CE9A74DE252DF9E43400FA7B017D0E
:101040008012CE9A801AE52D75F02FA4244FF582D8
:10105000E43402F583E04410FFAB307D01122CFE36
:10106000E52C75F01FA42474F9740035F0FA7B01A7
:101070007D8012CE9A74DE252DF9E43400FA7B01CE
:101080007D0412CE9AE52C75F01FA42476F582E437
:101090003400F583E0FEA3E024FFFFEE34FFFEE41E
:1010A000EF24A8FFEE3461FEE43401FDE433FC7567
:1010B0005E00755F0175600075610075627E12C526
:1010C000E7787EE630E13DE52C75F01FA4245FF55E
:1010D00082E43400F583E0FEA3E0FF12CD0AE52DA3
:1010E00075F02FA42452F582E43402F583EFF0E585
:1010F0002C75F01FA42474F9740035F0FA7B017D7F
:101100000212CE9A787EE6FF30E30F74DE252DF5CD
:1011100082E43400F583E04410F0EF30E60F74DE33
:10112000252DF582E43400F583E04420F0E52C75AC
:10113000F01FA42474F582E43400F583E030E24427
:10114000E52C75F01FA42474F9740035F0FA7B01C6
:101150007D0412CE7AE52C75F01FA42475F9740075
:1011600035F0FA7B017D0412CE9AE52D75F02FA49F
:10117000244FF582E43402F583E04410FFAB307D68
:1011800007122CFEE52D75F013A4248DF582E434AE
:1011900002F583E020E30302126FE52C75F01FA433
:1011A0002476F582E43400F583E0FEA3E024FFFF1B
:1011B000EE34FFFEE4EF24A8FFEE3461FEE43401D8
:1011C000FDE433FC755E00755F01756000756100BC
:1011D00075627E12C5E7787EE620E70302126FE5AE
:1011E0002C75F01FA42476F582E43400F583E0FE2C
:1011F000A3E024FFFFEE34FFFEEF25E0FFEE33FE19
:10120000E42FFFEE34C4FEE43401FDE433FC755EEC
:1012100000755F0275600075610075623212C5E786
:10122000E53345326049E533153370021532E52C5C
:1012300075F01FA42476F582E43400F583E0FEA364
:10124000E024FFFFEE34FFFEEF25E0FFEE33FEE487
:101250002FFFEE34C4FEE43401FDE433FC755F007F
:1012600075600275610075620075633212C41EE517
:101270002D75F02FA42441F582E43402F583E0B407
:101280000B15E52D75F02FA42440F582E43402F50A
:1012900083740CF002152DE52D75F02FA42440F574
:1012A00082E43402F583740CF002152DE52D75F0FF
:1012B0002FA4243CF582E43402F583E020E305AF5B
:1012C0002D12A821C210C211C212E52D75F02FA453
:1012D0002440F582E43402F583E4F002152D7DE824
:1012E0007C03AF2D128227E52C75F01FA42478F51E
:1012F00082E43400F583EEF0A3EFF04E601CAD2DD8
:10130000AF2C12C30AE52D75F02FA42440F582E41A
:101310003402F5837403F002152DE52D75F02FA42A
:101320002440F582E43402F583740EF002152D7D1D
:10133000D07C07AF2D128227E52C75F01FA42478EE
:10134000F582E43400F583EEF0A3EFF04E601CADBF
:101350002DAF2C12C30AE52D75F02FA42440F58281
:10136000E43402F5837403F002152DE52D75F02F9A
:10137000A42440F582E43402F583740FF002152DA5
:101380007DB87C0BAF2D128227E52C75F01FA424AD
:1013900078F582E43400F583EEF0A3EFF04E601CA4
:1013A000AD2DAF2C12C30AE52D75F02FA42440F506
:1013B00082E43402F5837403F002152DE52D75F0F7
:1013C0002FA42440F582E43402F5837410F0021552
:1013D0002D7DA07C0FAF2D128227E52C75F01FA468
:1013E0002478F582E43400F583EEF0A3EFF04E604C
:1013F00007AD2DAF2C12C30AE52D75F02FA42440A4
:10140000F582E43402F5837403F002152D7DE87C47
:1014100003AF2D12A18BE52C75F01FA42476F58265
:10142000E43400F583EEF0A3EFF04E6015E52D7582
:10143000F02FA42440F582E43402F5837404F00212
:10144000152DE52D75F02FA42440F582E43402F526
:10145000837412F002152D7DD07C07AF2D12A18B65
:10146000E52C75F01FA42476F582E43400F583EEB4
:10147000F0A3EFF04E6015E52D75F02FA42440F594
:1014800082E43402F5837404F002152DE52D75F025
:101490002FA42440F582E43402F5837413F002157E
:1014A0002D7DB87C0BAF2D12A18BE52C75F01FA400
:1014B0002476F582E43400F583EEF0A3EFF04E607D
:1014C00014E52D75F02FA42440F582E43402F58351
:1014D0007404F08058E52D75F02FA42440F582E4C3
:1014E0003402F5837414F080447DA07C0FAF2D127C
:1014F000A18BE52C75F01FA42476F582E43400F569
:1015000083EEF0A3EFF04E6012E52D75F02FA424CA
:1015100040F582E43402F5837404F0E52D75F02F74
:10152000A42440F582E43402F5837404F0E52E45EA
:101530002F600EE52D2421F530FBAD2FAF2E122CA0
:10154000FE22E4F52C74BA252CF582E43400F583F0
:10155000E0FF64096004EFB419067E007F01800497
:101560007E007F00EF4E70477422252CF582E43414
:1015700002F583E0B4011B74BA252CF582E4340033
:10158000F5837420F07419252CF582E43400F5837A
:10159000E4F07422252CF582E43402F583E0B402F1
:1015A0000E74BA252CF582E43400F5837418F074B7
:1015B00022252CF582E43402F583E0B4010D742277
:1015C000252CF582E43402F583E4F074BA252CF579
:1015D00082E43400F583E012293316110016D70196
:1015E000171502184D0318860818E4091A050A1A77
:1015F000430B18860C18E40D1AE9101B34111BF369
:10160000121C3E131D4E181D89191DDE2000001EE0
:10161000157419252CF582E43400F583E0FFB4013C
:101620001174BA252CF582E43400F5837401F002BC
:101630001E15EFB4081174BA252CF582E43400F5B8
:10164000837408F0021E157419252CF582E4340009
:10165000F583E0FFB40C1174BA252CF582E4340054
:10166000F5837408F0021E15EFB40E1174BA252C20
:10167000F582E43400F583740AF0021E157419250E
:101680002CF582E43400F583E0FFB4121174BA251E
:101690002CF582E43400F5837412F0021E15EFB4C9
:1016A0000A1174BA252CF582E43400F583740AF02B
:1016B000021E157419252CF582E43400F583E064CC
:1016C000106003021E1574BA252CF582E43400F56F
:1016D000837410F0021E15740D252CF582E434007D
:1016E000F583E06003021E159002AF7431F0E490C0
:1016F00002B0F0AF2C12CDA09002B1EFF07D01AF9F
:101700002C12BA3B74BA252CF582E43400F58374AC
:1017100002F0021E15E52C25E02403F582E43400D6
:10172000F583E0FEA3E04E701174BA252CF582E437
:101730003400F5837403F00217F47422252CF5822B
:10174000E43402F583E0B4011174BA252CF582E487
:101750003400F5837402F00217F47419252CF58215
:10176000E43400F583E0FFB4081074BA252CF58248
:10177000E43400F5837408F0807AEFB40C1074BA86
:10178000252CF582E43400F5837408F08066741922
:10179000252CF582E43400F583E0FFB40E1074BA12
:1017A000252CF582E43400F583740AF08046EFB40A
:1017B000121074BA252CF582E43400F5837412F00B
:1017C00080327419252CF582E43400F583E0FFB4EF
:1017D0000A1074BA252CF582E43400F583740AF0FB
:1017E0008012EFB4100E74BA252CF582E43400F5A3
:1017F000837410F07422252CF582E43402F583E022
:1018000064046003021E157422252CF582E4340260
:10181000F583E4F09002AF7432F0E49002B0F0AFE0
:101820002C12CDA09002B1EFF0E4FDAF2C12BA3B28
:101830007419252CF582E43400F583E4F074BA259C
:101840002CF582E43400F583E4F0021E159002AF1B
:101850007432F0E49002B0F0AF2C12CDA09002B13F
:10186000EFF0E4FDAF2C12BA3B7419252CF582E49D
:101870003400F583E4F074BA252CF582E43400F5E5
:1018800083E4F0021E15740D252CF582E43400F576
:1018900083E06003021E159002AF7431F0E4900201
:1018A000B0F0AF2C12CDA09002B1EFF07D01AF2CC3
:1018B00012BA3B74BA252CF582E43400F583E0B407
:1018C000081174BA252CF582E43400F5837409F00C
:1018D000021E1574BA252CF582E43400F583740DCC
:1018E000F0021E15E52C25E02403F582E43400F512
:1018F00083E4F0A3F0047E00A82C088005C333CE57
:1019000033CED8F9FF9004B6E0FDE4EF5D6003024A
:10191000198F7419252CF582E43400F583E0FFB4A7
:10192000011074BA252CF582E43400F5837401F0BB
:101930008031EFB4121074BA252CF582E43400F52E
:10194000837412F0801D7419252CF582E43400F59F
:1019500083E0B40E0E74BA252CF582E43400F583CE
:10196000740AF074BA252CF582E43400F583E0B4EF
:10197000091D7419252CF582E43400F583E0B40ABE
:101980000E74BA252CF582E43400F583740AF074E1
:1019900019252CF582E43400F583E0B4100E74BAF6
:1019A000252CF582E43400F5837410F07422252C84
:1019B000F582E43402F583E064046003021E1574CA
:1019C00022252CF582E43402F583E4F09002AF7412
:1019D00032F0E49002B0F0AF2C12CDA09002B1EF43
:1019E000F0E4FDAF2C12BA3B7419252CF582E434D7
:1019F00000F583E4F074BA252CF582E43400F58315
:101A0000E4F0021E15740D252CF582E43400F583F4
:101A1000E06003021E159002AF7432F0E49002B051
:101A2000F0AF2C12CDA09002B1EFF0E4FDAF2C127C
:101A3000BA3B74BA252CF582E43400F583740BF0BC
:101A4000021E157419252CF582E43400F583E0FF9D
:101A5000B4011174BA252CF582E43400F5837401C5
:101A6000F0021E15EFB4081174BA252CF582E43487
:101A700000F5837408F0021E157419252CF582E414
:101A80003400F583E0FFB40C1174BA252CF582E420
:101A90003400F5837408F0021E15EFB40E1174BA09
:101AA000252CF582E43400F583740AF0021E1574C7
:101AB00019252CF582E43400F583E0FFB41211748B
:101AC000BA252CF582E43400F5837412F0021E1559
:101AD000EF64106003021E1574BA252CF582E434FD
:101AE00000F5837410F0021E15740D252CF582E4A8
:101AF0003400F583E06003021E159002AF7432F0EB
:101B0000E49002B0F0AF2C12CDA09002B1EFF0E45F
:101B1000FDAF2C12BA3B7419252CF582E43400F584
:101B200083E4F074BA252CF582E43400F583741153
:101B3000F0021E157419252CF582E43400F583E0BB
:101B4000FFB4011074BA252CF582E43400F58374D7
:101B500001F08065EFB4081074BA252CF582E434E6
:101B600000F5837408F080517419252CF582E43453
:101B700000F583E0FFB40C1074BA252CF582E43430
:101B800000F5837408F08031EFB40E1074BA252C80
:101B9000F582E43400F583740AF0801D7419252C55
:101BA000F582E43400F583E0B4120E74BA252CF506
:101BB00082E43400F5837412F07419252CF582E464
:101BC0003400F583E0FFB40A1174BA252CF582E4E1
:101BD0003400F583740AF0021E15EF6410600302EE
:101BE0001E1574BA252CF582E43400F5837412F0C6
:101BF000021E15740D252CF582E43400F583E06097
:101C000003021E159002AF7431F0E49002B0F0AF01
:101C10002C12CDA09002B1EFF07D01AF2C12BA3B97
:101C20007419252CF582E43400F583E4F074BA25A8
:101C30002CF582E43400F5837413F0021E15741938
:101C4000252CF582E43400F583E0FFB4011074BA6A
:101C5000252CF582E43400F5837401F08065EFB43F
:101C6000081074BA252CF582E43400F5837408F06A
:101C700080517419252CF582E43400F583E0FFB41B
:101C80000C1074BA252CF582E43400F5837408F046
:101C90008031EFB40E1074BA252CF582E43400F5CF
:101CA00083740AF0801D7419252CF582E43400F544
:101CB00083E0B4120E74BA252CF582E43400F58367
:101CC0007410F07419252CF582E43400F583E0FFDC
:101CD000B40A1074BA252CF582E43400F583740A32
:101CE000F08012EFB4100E74BA252CF582E43400A3
:101CF000F5837412F07422252CF582E43402F58306
:101D0000E064046003021E157422252CF582E4347D
:101D100002F583E4F09002AF7432F0E49002B0F088
:101D2000AF2C12CDA09002B1EFF0E4FDAF2C12BAAF
:101D30003B7419252CF582E43400F583E4F074BA81
:101D4000252CF582E43400F583E4F0021E1574229C
:101D5000252CF582E43402F5837403F09002AF740D
:101D600051F0E49002B0F0AF2C12CDA09002B1EF90
:101D7000F07D01AF2C12BA3B74BA252CF582E43405
:101D800000F5837419F0021E157422252CF582E4E7
:101D90003402F583E06404707C7422252CF582E41F
:101DA0003402F583E4F09002AF7452F0E49002B094
:101DB000F0AF2C12CDA09002B1EFF0E4FDAF2C12E9
:101DC000BA3B7419252CF582E43400F583E4F074F1
:101DD000BA252CF582E43400F583E4F080377422D0
:101DE000252CF582E43402F583E4F09002AF7451BF
:101DF000F0E49002B0F0AF2C12CDA09002B1EFF061
:101E00007D01AF2C12BA3B74BA252CF582E4340064
:101E1000F5837402F0052CE52CC3940450030215DD
:101E200045228F3D78537C007D007BFF7ACE79A9D7
:101E30007E007F021226BCE4F542E53D75F02FA43A
:101E40002442F582E43402F583E024FC601524FE8C
:101E5000602B240624F850087003021F09021F2E6D
:101E60007F0022E53D75F013A4248AF582E4340254
:101E7000F583E0640460030225A07F0122E53D753F
:101E8000F013A4248AF582E43402F583E0FF6401B0
:101E90006008EF640260030225A0E53D75F02FA401
:101EA000244AF582E43402F583E05438FF7DFF12C2
:101EB00000038F3EE53E30E0037F0022E53D75F0F4
:101EC0002FA4244AF582E43402F583E05407FF7D11
:101ED000FF1200038F3EE53E20E0037F0022E53D38
:101EE00075F02FA42443F9740235F0FA7B017D01CB
:101EF000128C2AE53D75F02FA4244AF582E43402C1
:101F0000F583E0540FF07F0122E53D75F013A42422
:101F10008AF582E43402F583E0640360030225A0BD
:101F2000AF3D12C7FAEF70030225A07F0122AF3D3B
:101F30009000E0E0FEA807088002C313D8FC54011B
:101F4000FEE42400FFEE347EFEE48F598E58F557F0
:101F5000F556E53D75F040A4FFE4EF2559FFE5F0A7
:101F60003558FEE43557FDE43556FC755E00755F67
:101F70000175600075610075624012C5E7E53D7549
:101F8000F02FA42442F582E43402F583E0FF65409B
:101F90006044EF6440703CE53D75F02FA42443F5A8
:101FA00082E43402F583E0FFC4540FFFE53D75F091
:101FB0002FA42455F582E43402F583EFF0E53D7556
:101FC000F02FA42443F582E43402F583E0540FF0AB
:101FD0007F01227F0022E53D75F040A4FFE4EF255C
:101FE00059FFE5F03558FEE43557FDE43556FCEF72
:101FF0002401FFE43EFEE43DFDE43CFC755E00751B
:102000005F0175600175610575622A12C5E7E53DDE
:1020100075F040A4FFE4EF2559FFE5F03558FEE4E4
:102020003557FDE43556FCEF2402FFE43EFEE43D67
:10203000FDE43CFC755E00755F3C7A0279B2756028
:10204000017561027562B212C5E7E4F53F90052A99
:10205000E0FFE53FC39F40030225A075F00AE53F7E
:10206000A424B2F582E5F03402F583E0122933228C
:10207000A34222A34420914524984620914F24DA7C
:1020800052210A5321C357210A5822A35A0000257E
:102090009BE4F53EF541E53D75F02FA42443F58220
:1020A000E43402F583E5822541F582E43583F58346
:1020B000E0FF75F00AE53FA424B4F582E5F03402B0
:1020C000F583E5822541F582E43583F583E0FD1251
:1020D0000003EF253EF53E0541E541C3940840B6B7
:1020E00075F00AE53FA424B2F582E5F03402F583E9
:1020F000E0B4450BE53E20E00302259B7F0022E58E
:102100003E30E00302259B7F0022E53D75F02FA4C1
:102110002443F9740235F0FA7B0178437C007D009A
:102120007E007F081226BC75F00AE53FA424B2F5B4
:1021300082E5F03402F583E0B45305754202800372
:10214000754201E53F75F00AA424B4F9740235F034
:10215000FA7B01C003C001E53D75F02FA42443F9CB
:10216000740235F08B5DF55E895FD001D00312C932
:1021700065E53F75F00AA424B2F9740235F0FA7BE4
:1021800001C003C001E53D75F02FA42443F974029A
:1021900035F08B5DF55E895FD001D00312B87F8F7B
:1021A0003EE53D75F02FA42443F9740235F0A801F3
:1021B000FC7D017B007A0079437E007F081226BCFB
:1021C00002259BE53D75F02FA42443F9740235F0F8
:1021D000FA7B0178437C007D007E007F081226BCDC
:1021E000E53F75F00AA424B4F9740235F0FA7B01D6
:1021F000C003C001E53D75F02FA42443F9740235F6
:10220000F08B5DF55E895FD001D00312C965E53DB5
:1022100075F02FA4244AF582E43402F583C083C00C
:1022200082E0FF75F00AE53FA424BBF582E5F034B7
:1022300002F583E0FEEF5ED082D083F075F00AE510
:102240003FA424BBF582E5F03402F583E0523EE57D
:102250003D75F02FA4244AF582E43402F583E0FFB3
:10226000653E601DE542B40115E53E540FFEBE0F0C
:102270000A053EE53E6F60097F00227F00227F0055
:1022800022E53D75F02FA42443F9740235F0A8012E
:10229000FC7D017B007A0079437E007F081226BC1A
:1022A00002259BE53F04F54090052AE0FFE540C389
:1022B0009F506975F00AE540A424B2F582E5F03438
:1022C00002F583E064467050F54175F00AE53FA4DD
:1022D00024B4F582E5F03402F583E5822541F582E8
:1022E000E43583F583C083C082E0FF75F00AE540E2
:1022F000A424B4F582E5F03402F583E5822541F5A6
:1023000082E43583F583E0FEEF4ED082D083F00582
:1023100041E541B408B480040540808C7E007F080C
:102320007D007B007A00794B122B3075F00AE53F77
:10233000A424B2F582E5F03402F583E0645A600328
:1023400002240AE53F75F00AA424B4F9740235F0BA
:10235000755D01F55E895FE53D75F02FA42443F9B5
:10236000740235F0756001F56189627B007A00794D
:102370004B12A6C790052AE0FFE540C39F40030229
:10238000259B78437C007D007B007A00794B7E00A2
:102390007F081226BCE53F75F00AA424B4F9740244
:1023A00035F0FA7B01C003C001E54075F00AA424B2
:1023B000B4F9740235F08B5DF55E895FD001D0030E
:1023C00012C9657E007F027D007B007A007953127E
:1023D0002B30E54075F00AA424B4F9740235F0FA04
:1023E0007B01C0031B8B5D755E00755F43D00312DC
:1023F000C96578537C007D007B007A0079497E00B6
:102400007F021226BC053F02259BE53D75F02FA4F7
:102410002443F9740235F0FA7B0178437C007D0097
:102420007E007F081226BCE53F75F00AA424B4F9AB
:10243000740235F0FA7B01C003C001E53D75F02F51
:10244000A42443F9740235F08B5DF55E895FD001F9
:10245000D00312C9657B007A00794B75F00AE53F1D
:10246000A424B2F582E5F03402F583E0F55E853D03
:102470005FAD3F12A315E53D75F02FA42443F97419
:102480000235F0A801FC7D017B007A0079437E00D3
:102490007F081226BC02259BE53F75F00AA424B4F0
:1024A000F9740235F0FA7B01C003C001E53D75F017
:1024B0002FA42443F9740235F08B5DF55E895FD05B
:1024C00001D00312C9657B007A007953755E468599
:1024D0003D5FAD3F12A31502259BE53D75F02FA48E
:1024E0002443F9740235F0FA7B0178437C007D00C7
:1024F0007E007F081226BCE53F75F00AA424B4F9DB
:10250000740235F0FA7B01C003C001E53D75F02F80
:10251000A42443F9740235F08B5DF55E895FD00128
:10252000D00312C9657E007F087D007B007A0079A8
:102530004B122B307B007A00794B755E52853D5FE4
:10254000AD3F12A315AF3F12C1EA8F40E5405407DB
:102550006010E540131313541FFFC374079FF54029
:10256000800EE540131313541FFFC374089FF540FA
:10257000753E07E540C3953E5021744B2540F9E474
:10258000FAFBC001744B253EF9E4F55DF55E895F09
:10259000D00112CABD153E054080D8053F02204D2E
:1025A00090052AE0653F7041E53D75F002A424BF27
:1025B000F9740035F0A801FC7D017B007A007953A5
:1025C0007E007F021226BCE53D75F02FA42443F95E
:1025D000740235F0A801FC7D017B007A00794B7E06
:1025E000007F081226BC7F01227F0022E709F6083F
:1025F000DFFA8046E709F208DFFA803E88828C83A2
:10260000E709F0A3DFFA8032E309F608DFFA807801
:10261000E309F208DFFA807088828C83E309F0A373
:10262000DFFA806489828A83E0A3F608DFFA8058A3
:1026300089828A83E0A3F208DFFA804C80D280FA94
:1026400080C680D4806980F28033801080A680EAC2
:10265000809A80A880DA80E280CA803389828A8367
:10266000ECFAE493A3C8C582C8CCC583CCF0A3C858
:10267000C582C8CCC583CCDFE9DEE7800D89828ABC
:1026800083E493A3F608DFF9ECFAA9F0EDFB2289C5
:10269000828A83ECFAE0A3C8C582C8CCC583CCF09B
:1026A000A3C8C582C8CCC583CCDFEADEE880DB895D
:1026B000828A83E493A3F208DFF980CC88F0EF608C
:1026C000010E4E60C388F0ED2402B4040050B9F549
:1026D00082EB2402B4040050AF23234582239026CA
:1026E0003C73BB010689828A83E0225002E722BB49
:1026F000FE02E32289828A83E49322BB010CE582F5
:1027000029F582E5833AF583E0225006E92582F82F
:10271000E622BBFE06E92582F8E222E58229F5825F
:10272000E5833AF583E49322BB010989828A83F821
:10273000E028F022500327F722BBFE05F8E328F338
:10274000228A838982F8E4932822BB010FF8E5826C
:1027500029F582E5833AF583E028F0225009C58205
:1027600029F8E58226F622BBFE09C58229F8E22572
:1027700082F222F8EA2583F583E9932822BB010639
:1027800089828A83F0225002F722BBFE01F322F8ED
:10279000BB010DE58229F582E5833AF583E8F02255
:1027A0005006E92582C8F622BBFE05E92582C8F25B
:1027B00022EF8DF0A4A8F0CF8CF0A428CE8DF0A449
:1027C0002EFE22C5F0F8A3E028F0C5F0F8E582154A
:1027D0008270021583E038F022E88FF0A4CC8BF0F1
:1027E000A42CFCE98EF0A42CFC8AF0EDA42CFCEACD
:1027F0008EF0A4CDA8F08BF0A42DCC3825F0FDE907
:102800008FF0A42CCD35F0FCEB8EF0A4FEA9F0EBFC
:102810008FF0A4CFC5F02ECD39FEE43CFCEAA42D08
:10282000CE35F0FDE43CFC2275F008758200EF2FF8
:10283000FFEE33FECD33CDCC33CCC58233C5829B86
:10284000ED9AEC99E58298400CF582EE9BFEED9AAC
:10285000FDEC99FC0FD5F0D6E4CEFBE4CDFAE4CC48
:10286000F9A88222B800C1B90059BA002DEC8BF04A
:1028700084CFCECDFCE5F0CBF97818EF2FFFEE3307
:10288000FEED33FDEC33FCEB33FB10D70399400432
:10289000EB99FB0FD8E5E4F9FA227818EF2FFFEE59
:1028A00033FEED33FDEC33FCC933C910D7059BE98A
:1028B0009A4007EC9BFCE99AF90FD8E0E4C9FAE4E6
:1028C000CCFB2275F010EF2FFFEE33FEED33FDCC85
:1028D00033CCC833C810D7079BEC9AE899400AED6F
:1028E0009BFDEC9AFCE899F80FD5F0DAE4CDFBE417
:1028F000CCFAE4C8F922CFF4CFCEF4CECDF4CDCCCF
:10290000F4CC22EB9FF5F0EA9E42F0E99D42F0E81C
:102910009C45F022E8600FECC313FCED13FDEE13B1
:10292000FEEF13FFD8F122A42582F582E5F035836E
:10293000F58322D083D082F8E493701274019370EF
:102940000DA3A393F8740193F5828883E473740252
:10295000936860EFA3A3A380DFD083D082F8E493D1
:102960007012740193700DA3A393F8740193F58210
:102970008883E473740293B5F0067403936860E986
:10298000A3A3A3A380D8E3F5F009E208B5F06BDFB9
:10299000F58067E3F5F009E608B5F05EDFF5805AEB
:1029A00087F009E608B5F052DFF6804E87F009E2BD
:1029B00008B5F046DFF6804288828C8387F009E014
:1029C000A3B5F036DFF6803288828C8387F009E485
:1029D00093A3B5F025DFF5802188828C83E3F5F0A1
:1029E00009E0A3B5F014DFF5801088828C83E3F54D
:1029F000F009E493A3B5F002DFF4022AB5808780E2
:102A0000E9809080D4803E8015806E807E809D809D
:102A1000B7808D80A380518074803C022AC1898256
:102A20008A83ECFAE493F5F0A3C8C582C8CCC583C9
:102A3000CCE493A3C8C582C8CCC583CCB5F076DFFF
:102A4000E3DEE1807089828A83E493F5F0A3E208F3
:102A5000B5F062DFF4805E89828A83E0F5F0A3E658
:102A600008B5F051DFF5804D89828A83E0F5F0A347
:102A7000E208B5F040DFF5803C89828A83E493F573
:102A8000F0A3E608B5F02EDFF4802A800280578993
:102A9000828A83ECFAE493F5F0A3C8C582C8CCC55A
:102AA00083CCE0A3C8C582C8CCC583CCB5F006DF13
:102AB000E4DEE280007FFFB5F0020F2240027F01DA
:102AC0002289828A83ECFAE0F5F0A3C8C582C8CCDB
:102AD000C583CCE0A3C8C582C8CCC583CCB5F0D52E
:102AE000DFE5DEE380CF89828A83ECFAE0F5F0A3AC
:102AF000C8C582C8CCC583CCE493A3C8C582C8CC62
:102B0000C583CCB5F0AFDFE4DEE280A988F0EF60EA
:102B1000010E4E60ABED2402B404005098F582EB38
:102B20002402B40400508E23234582239029FD7390
:102B3000EF4E6012EF60010EEDBB010B89828A83BC
:102B4000F0A3DFFCDEFA2289F05007F709DFFCA9C9
:102B5000F022BBFEFCF309DFFCA9F022E709F6082E
:102B6000DFFA807BE9D39850F3E92FF9E82FF819C1
:102B7000E718F6DFFA8068E709F208DFFA8060807C
:102B8000E388828C83E709F0A3DFFA8052E309F639
:102B900008DFFA804AE9D398500EE92FF9E82FF8B8
:102BA00019E318F2DFFA8037E309F208DFFA802F21
:102BB00088828C83E309F0A3DFFA802389828A83E9
:102BC000E0A3F608DFFA801789828A83E493A3F2F0
:102BD00008DFF9800A89828A83E0A3F208DFFA021B
:102BE0002C6E80B180F980A580C680DC80F1807376
:102BF0008010808380E98087808780D980E180BCD5
:102C00008073D3E998EA9C5039E92FF582EA3BF5C5
:102C100083E82FF8EC3BFC0582D5820215831582F0
:102C2000E493C8C582C8CCC583CC0582D582021581
:102C3000831582F0C8C582C8CCC583CCDFD9DED766
:102C4000802E89828A83ECFAE493A3C8C582C8CC1B
:102C5000C583CCF0A3C8C582C8CCC583CCDFE9DE70
:102C6000E7800D89828A83E493A3F608DFF9ECFA02
:102C7000A9F0EDFB22D3E998EA9C5038E92FF582C0
:102C8000EA3BF583E82FF8EC3BFC0582D582021580
:102C9000831582E0C8C582C8CCC583CC0582D582A5
:102CA0000215831582F0C8C582C8CCC583CCDFDA93
:102CB000DED880BC89828A83ECFAE0A3C8C582C8CA
:102CC000CCC583CCF0A3C8C582C8CCC583CCDFEA11
:102CD000DEE8809C809888F08E83EF60010E4E6065
:102CE0008DED2402B404005085F582EB2402B40477
:102CF0000050E123234582AB8323902BE2738F3D69
:102D00008D3E8B3FE53D54F01229332D2A102D398D
:102D1000202DC9302E48402E7D502EBA602EF080D6
:102D20002F82902F87A000002FA9E53E6406700334
:102D3000022FA9853E40022FA9E53E1229332D6FAF
:102D4000012D75022D7B112D81122D87132D8D21C3
:102D50002D93222D99232D9F262DA52A2DAB312D84
:102D6000B1322DB7332DBD342DC33B00002FA975D3
:102D70004011022FA9754012022FA9754013022F8E
:102D8000A9754014022FA9754015022FA975401688
:102D9000022FA9754017022FA9754018022FA97597
:102DA0004019022FA975401A022FA975401B022F46
:102DB000A975401C022FA975401D022FA975401E40
:102DC000022FA975401F022FA9E53D1229332DF0CE
:102DD000312E04322E18332E1E342E24352E2A3650
:102DE0002E30372E36382E423A2E3C3C00002FA98A
:102DF000754021E53F54F064606003022FA97540DF
:102E00002E022FA9754022E53F54F0646060030252
:102E10002FA975402F022FA9754023022FA97540B5
:102E200025022FA9754027022FA9754028022FA936
:102E3000754029022FA975402B022FA975402D023C
:102E40002FA9754030022FA9E53D24BC601724FD51
:102E5000601914601C14601F24066003022FA975FA
:102E60004031022FA9754032022FA9754033022F3D
:102E7000A9754034022FA9754035022FA9E53D24DC
:102E8000AE601914601C14601F14602214602524A5
:102E9000056003022FA9754041022FA97540420227
:102EA0002FA9754043022FA9754044022FA97540F0
:102EB00045022FA9754047022FA9E53E24FE601860
:102EC00024FE601A14601D24F8601F240C600302A5
:102ED0002FA9754051022FA9754053022FA97540A3
:102EE00055022FA9754056022FA975405D022FA9E2
:102EF000E53D247FB40F004003022FA9902F0A75EF
:102F0000F003A4C58325F0C58373022F37022F3C3D
:102F1000022F41022F46022F4B022F50022F550243
:102F20002F5A022F5F022F64022F69022F6E022F89
:102F300073022F78022F7D754071806D754072800D
:102F4000687540738063754074805E754075805904
:102F50007540768054754077804F754078804A750B
:102F60004079804575407A804075407B803B754054
:102F70007C803675407D803175407E802C75407F29
:102F800080277540818022E53D245E600F1460112A
:102F900014601324037012754091800D7540928067
:102FA000087540938003754094E53F122933302122
:102FB00001302111302612302B13303014302121F2
:102FC000302622302B23303024302141302642302D
:102FD0002B43303044303545303A46303F4730445B
:102FE0004830494930504A30574B305E4C302151BF
:102FF000302652302B53303054303555303A56301D
:103000003F57304458302161302662302B633030D6
:1030100064303565303A66303F67304468000030D0
:1030200063754101803D75410280387541048033EC
:10303000754108802E7541108029754120802475C6
:103040004140801F754180801A7541010540801301
:103050007541020540800C754104054080057541AD
:10306000080540E53D64636005E53EB4060875412A
:10307000017542018042E54024FFFFE4347AFEE41A
:10308000FCFDF55E755F01F56075610075624212C9
:10309000C5E790000CE030E00B20161C754101756F
:1030A00042018014E53DC39435400DE53DD394398C
:1030B0005006754101754201E542554170030232E7
:1030C000E07E007F107D007B007A00797E122B303D
:1030D000900016E0FF5470FE25E0FE900014E04ED4
:1030E000787EF6A3E0FEC454F0FEEF540F4E08F6CF
:1030F000900011E008F6A3E008F6A3E008F608A6A1
:103100003D08A63E08A63FE53DB46115E53EC394E3
:1031100006400EE53E940C500890009AE0FF12C85D
:1031200030E53DD3941F406DE53D94305067E53E5A
:1031300064016035E53E6402602FE53E642A602943
:10314000E53E64266023E53E6427601DE53E64039A
:103150006017E53E64356011E53E6437600BE53E7F
:1031600064396005E53EB43A24900288E075F008C1
:10317000A424B2F9740335F0FA7B0178867C007DD3
:10318000007E007F081226BC125B26800890009A01
:10319000E0FF12C830E53DC394204007E53DD394DD
:1031A0008F400890009AE0FF12C8309004EAE0FED9
:1031B000A3E0FFE4FCFD7B10FAF9F81227D9EF2415
:1031C00080FFEE34C7FEED3402FDE43CFC755F0089
:1031D00075601075610075620075637E12C41EE42F
:1031E000F5439004EAE0FEA3E0FFE4EF2490FFEE55
:1031F00034B3FEE43402FDE433FC755F0075600116
:1032000075610075620075634312C41EC39004EBC0
:10321000E094879004EAE094134006E4F0A3F08081
:103220000E9004EBE004F070069004EAE004F090E5
:1032300004EAE0F545A3E0F5467E007F107DFF7BC4
:10324000007A00797E122B309004EAE0FEA3E0FFC2
:10325000E4EF2490FFEE34B3FEE43402FDE433FCEB
:10326000755F0075600175610075620075637E129F
:10327000C41EE4F544AE45AF46E4FCFD7B10FAF90C
:10328000F81227D9EF2480FFEE34C7FEED3402FD9B
:10329000E43CFC755F007560107561007562007537
:1032A000637E12C41E0546E54670020545C3948739
:1032B000E54594134005E4F545F5460544E544C36A
:1032C000940440B19004DCE07016AD3EAF3D12C6F0
:1032D00063EF600C9004DC7407F09004DF740AF074
:1032E000229001887437F0A374C1F09004B5E0FF18
:1032F000900001E04F90018AF0E4F532742225320B
:10330000F582E43402F583E0D39400401790018CF9
:10331000E0FFAE327401A806088002C333D8FC4F28
:1033200090018CF00532E532B408D1E490018EF0C2
:10333000F532E4F535E53275F00FA42428F582E482
:103340003400F583E024FD600E14602114601E2417
:10335000FE60042407702AE532540325E0FF74015F
:10336000A807088002C333D8FCF5358014E5325431
:103370000325E0FF7402A807088002C333D8FCF5D8
:1033800035E5321313543F248FF582E43401F5837D
:10339000E04535F0E4F53574D32532F582E43400A8
:1033A000F583E014602114601E1460071460042487
:1033B000047025E5325407FF7401A807088002C392
:1033C00033D8FCF5358011E5325407FFE4A807082F
:1033D0008002C333D8FCF535E532131313541FFFB5
:1033E0002492F582E43401F583E04535F0E4F535C7
:1033F000E53275F00FA4242CF582E43400F583E067
:10340000B40312E5325407FE7401A806088002C313
:1034100033D8FCF53574942FF582E43401F583E05C
:103420004535F00532E532640C600302333290001A
:1034300002E024FE601424FB501824FD501C2409D3
:10344000701E90019B7401F0801690019B7402F035
:10345000800E90019B7403F0800690019B7404F031
:1034600030150790019BE04480F0900256E0FFC4C5
:1034700054F0FF900227E0540F4F900196F0900215
:10348000B4E0FFC454F0FF900285E0540F4F900168
:1034900097F0900226E090019AF09000EBE07F0018
:1034A000FEA3E07C002400FFEC3ECF24FFCF34FFDE
:1034B000FEE48F398E38F537F536FE7F24FD7B012B
:1034C0007A01799C122B30E5392401FFE43538F577
:1034D0003B8F3CF53D8F3EE47FFF7EFFFDFCAB392B
:1034E000AA38A937A836C3122903700302363AE472
:1034F000F5329004EAE0FEA3E0FFE4FCFDAB39AA5C
:1035000038A937A836C31229037003023618C2132C
:10351000E47F10FEFDFCA8361227D9EF2480FFEED1
:1035200034C7FEED3402FDE43CFCC006C007755E06
:1035300000755F10E53275F010A4249CF974013514
:10354000F0756001F5618962D007D00612C5E7E524
:10355000392401FFE43538FEE53225E0243BF8A6A6
:103560000608A607E47F877E13FDFCAB39AA38A9BD
:1035700037A836C3122903400BE4F539F538F5377F
:10358000F5368015E5392401F539E43538F538E4A8
:103590003537F537E43536F536AE38AF399000D1EA
:1035A000EEF0A3EFF0787E76FFE42FFFEE34A0FE7E
:1035B000E43402FDE433FC755F0075600175610061
:1035C00075620075637E12C41EE4787EF69000D1A9
:1035D000E0FEA3E0FF4E6024E4EF24FFFFEE349F03
:1035E000FEE43402FDE433FC755F00756001756133
:1035F0000075620075637E12C41E8020755F0075C1
:10360000600175610075620075637E7F877EB37DA2
:10361000027C0012C41E8004D213800C0532E532F5
:10362000C3940250030234F2E53B9001BCF0A3E5E1
:103630003CF0E53DA3F0A3E53EF09000E9E0D39433
:10364000035003023858E4F5329000E9E024FAFF11
:10365000E532C39F400302385874ED2532F582E409
:103660003400F583E07F00FE74EE2532F582E43409
:1036700000F583E07C002400FFEC3ECF24FFCF3434
:10368000FFFEE48F398E38F537F536C2D7E5395469
:1036900007FFE404A807088002C333D8FCF533E42D
:1036A000F534AF347E007C027D801227B1AA06ABD0
:1036B00007E42BFFEA34F6FEE48F428E41F540F535
:1036C0003F2BFFEA34FBFEE48F468E45F544F5437D
:1036D0007B08FAF9F8AF39AE38AD37AC361228644A
:1036E000EF2542FFEE3541FEED3540FDEC353FFC68
:1036F000755E00755F0175600075610075627E1210
:10370000C5E7E47B08FAF9F8AF39AE38AD37AC3627
:10371000122864EF2546FFEE3545FEED3544FDECFD
:103720003543FC755E00755F01756000756100755D
:10373000627F12C5E7E53430E008753AF075351060
:103740008006753A0F753501E534C313253224EF31
:10375000F582E43400F583E0553AB5353C787EE6F1
:103760004533F6E47B08FAF9F8AF39AE38AD37AC3B
:1037700036122864EF2542FFEE3541FEED3540FD5F
:10378000EC353FFC755F0075600175610075620086
:1037900075637E12C41E023843E53525E0F535E534
:1037A00034C313253224EFF582E43400F583E05569
:1037B0003A65356003023843E53475F02FA424518F
:1037C000F582E43402F583E0FF12C866EF6074E529
:1037D00033F4787E56F6E47B08FAF9F8AF39AE3860
:1037E000AD37AC36122864EF2542FFEE3541FEEDD1
:1037F0003540FDEC353FFC755F007560017561007B
:1038000075620075637E12C41EE533F4787F56F648
:10381000E47B08FAF9F8AF39AE38AD37AC36122888
:1038200064EF2546FFEE3545FEED3544FDEC3543AE
:10383000FC755F0075600175610075620075637FDE
:1038400012C41E0534E534C3940250030236A27438
:10385000062532F532023649228B3D8A3E893FAB3E
:1038600040AA41A9421226E2540FFEAF061EEF60A5
:1038700010AB3DAA3EA93F740112272830D7EC8037
:10388000EAAB40AA41A9421226E254F0FFC4540F09
:10389000FE74FF2542F54274FF3541F541AF061E27
:1038A000EF6015AB3DAA3EA93F740A12272830D716
:1038B000EC7D0112C71680E5AB40AA41A942122651
:1038C000E2540FFEAF061EEF6015AB3DAA3EA93FC6
:1038D000746412272830D7EC7D0112C71680E5AB3F
:1038E00040AA41A9421226E254F0FFC4540FFE74CC
:1038F000FF2542F54274FF3541F541AF061EEF60EA
:103900002BAB3DAA3EA93F74E812272830D7057D8E
:103910000112C716AB3DAA3EA93F90FFFF740312E8
:10392000274A30D7D67D0212C71680CFAB40AA41B6
:10393000A9421226E2540FFEAF061EEF602BAB3DEC
:10394000AA3EA93F741012272830D7057D0112C75F
:1039500016AB3DAA3EA93F90FFFF742712274A30BD
:10396000D7D67D0212C71680CFAB40AA41A942121A
:1039700026E254F0FFC4540FFE74FF2542F5427452
:10398000FF3541F541AF061EEF6041AB3DAA3EA9B0
:103990003F74A012272830D7057D0112C716AB3D12
:1039A000AA3EA93F90FFFF748612274A30D7057DB3
:1039B0000212C716AB3DAA3EA93F90FFFE7401124A
:1039C000274A30D7C07D0312C71680B9AB40AA4141
:1039D000A9421226E2540FFEAF061EEF6041AB3D36
:1039E000AA3EA93F744012272830D7057D0112C78F
:1039F00016AB3DAA3EA93F90FFFF744212274A3002
:103A0000D7057D0212C716AB3DAA3EA93F90FFFE27
:103A1000740F12274A30D7C07D0312C71680B9AB86
:103A200040AA41A9421226E254F0FFC4540FFE748A
:103A3000FF2542F54274FF3541F541AF061EEF60A8
:103A400041AB3DAA3EA93F748012272830D7057D9F
:103A50000112C716AB3DAA3EA93F90FFFF74961214
:103A6000274A30D7057D0212C716AB3DAA3EA93FB3
:103A700090FFFE749812274A30D7C07D0312C716F4
:103A800080B9AB40AA41A9421226E2540FFEAF060C
:103A90001EEF6044AB3DAA3EA93F90FFFF74E112C8
:103AA000274A30D7057D0212C716AB3DAA3EA93F73
:103AB00090FFFE74F512274A30D7057D0312C71612
:103AC000AB3DAA3EA93F90FFFD740512274A30D7AF
:103AD000BD7D0412C71680B6AB40AA41A94212268A
:103AE000E254F0FFC4540FFE74FF2542F54274FF08
:103AF0003541F541AF061EEF6044AB3DAA3EA93FFC
:103B000090FFFF74CA12274A30D7057D0212C716EC
:103B1000AB3DAA3EA93F90FFFE749A12274A30D7C8
:103B2000057D0312C716AB3DAA3EA93F90FFFD7469
:103B30003B12274A30D7BD7D0412C71680B6AB4072
:103B4000AA41A9421226E2540FFEAF061EEF605AA8
:103B5000AB3DAA3EA93F90FFFF74E412274A30D73D
:103B6000057D0212C716AB3DAA3EA93F90FFFE7429
:103B70000B12274A30D7057D0312C716AB3DAA3E6C
:103B8000A93F90FFFD745412274A30D7057D0412D7
:103B9000C716AB3DAA3EA93F90FFFC740212274A0C
:103BA00030D7A77D0512C71680A0AB40AA41A94215
:103BB0001226E254F0FFC4540FFE74FF2542F54272
:103BC00074FF3541F541AF061EEF605AAB3DAA3E8A
:103BD000A93F90FFFF74E812274A30D7057D0212F3
:103BE000C716AB3DAA3EA93F90FFFE747612274A46
:103BF00030D7057D0312C716AB3DAA3EA93F90FF03
:103C0000FD744812274A30D7057D0412C716AB3D14
:103C1000AA3EA93F90FFFC741712274A30D7A77D10
:103C20000512C71680A0AB40AA41A9421226E25451
:103C30000FFEAF061EEF605AAB3DAA3EA93F90FFB4
:103C4000FF741012274A30D7057D0212C716AB3D0C
:103C5000AA3EA93F90FFFE74A512274A30D7057DE2
:103C60000312C716AB3DAA3EA93F90FFFD74D412C4
:103C7000274A30D7057D0412C716AB3DAA3EA93F9F
:103C800090FFFC74E812274A30D7A77D0512C716AB
:103C900080A0AB40AA41A9421226E254F0FFC454CE
:103CA0000FFE74FF2542F54274FF3541F541AF0622
:103CB0001EEF6070AB3DAA3EA93F90FFFF74A012BB
:103CC000274A30D7057D0212C716AB3DAA3EA93F51
:103CD00090FFFE747212274A30D7057D0312C71673
:103CE000AB3DAA3EA93F90FFFD744E12274A30D744
:103CF000057D0412C716AB3DAA3EA93F90FFFC7498
:103D00001812274A30D7057D0512C716AB3DAA3ECB
:103D1000A93F90FFFB740912274A30D7917D061204
:103D2000C716808A22E51B30E50312CA959004DC91
:103D3000E0B40E0040030240E7903D40F8282873AD
:103D4000023D6A023D81023DA3023DDB023E0F02BD
:103D50003E32023EEB023F0D023F8B023FD0023F5C
:103D6000E60240430240700240BDE49004E1F0E509
:103D70001B20E6030240E7531BBF9004DC7401F0F4
:103D8000229004DDE0B401157B01E4FD7F85122C57
:103D9000FE9004E07401F09004DC04F022E490044E
:103DA000DCF022E51B20E6030240E7531BBF900432
:103DB000DDE0640260030240E79000AFE0FFA3E0B3
:103DC0009004B2CFF0A3EFF07B01E4FD7F86122CCC
:103DD000FEE49004E0F09004DCF02290018A74414B
:103DE000F0A37454F0A3745AF0A37430F0A3740DCC
:103DF000F0A3740AF09001887406F09000B4E024F7
:103E0000649004DEF09004DC7404F0431B2022E58F
:103E10001B30E610531BBF9004DDE0B40306900492
:103E2000DC7405F09004DEE060030240E79004DCFF
:103E3000F02290018A7441F0A37454F0A37426F028
:103E4000A37446F0A37430F0A37445F0A37430F06B
:103E5000A3744CF0A37433F0A37458F0A37430F03F
:103E6000A37453F0A37430F0A3743DF0A37433F043
:103E7000A37453F0A37437F0A3743DF0A37434F02B
:103E8000A37430F0A37426F0A37451F0A37430F03F
:103E9000A37426F0A37444F0A37430F0A37426F046
:103EA000A3744BF0A37430F0A37426F0A37457F0FE
:103EB000A37430F0A37426F0A37459F0A37430F007
:103EC000A3745AF0A37430F0740DF09001B0740A2A
:103ED000F09001887427F09000B4E024649004DE30
:103EE000F09004DC7406F0431B2022E51B30E60F43
:103EF000531BBF9004DDE0B40305E49004DCF090B4
:103F000004DEE060030240E79004DCF0229004E06D
:103F1000E070729004DFE070059004DCF022900005
:103F200099E060030240E79004B7E0FF7E007A0169
:103F3000798A788A7C017D017B017A0479B812261E
:103F4000BC9004B7E0FF248AF582E43401F5837461
:103F50000DF0748B2FF582E43401F583740AF0EFD1
:103F60002402900188F09004E1E070099004D0E010
:103F7000049004E1F09004DC7408F09004DF7446CF
:103F8000F0431B2022E49004DCF022E51B30E626FF
:103F9000531BBF9004DDE0B401079004DC7409F00A
:103FA000229004E1E014F060079004DC7407F02232
:103FB000E49004DCF0229004DFE060030240E7902C
:103FC00000B4E024C89004DEF09004DC740BF0220E
:103FD000900287E060030240E79000997408F09037
:103FE00004DC740AF0229004D2E0B4011330131000
:103FF0009000B4E024C89004DEF09004DC740BF070
:104000009004D2E0640260030240E7E51B20E6036F
:104010000240E7531BBF9004DDE0640260030240EE
:10402000E79000AFE0FFA3E09004B2CFF0A3EFF081
:104030007B01E4FD7F86122CFEE49004E0F0900406
:10404000DCF0229004DEE060030240E790018A7415
:104050002BF0A3F0A3F09001887403F09000B4E07B
:1040600024C89004DEF09004DC740CF0431B202282
:10407000E4FFE51B30E60B531BBF9004DDE0B40307
:10408000010F9004DEE070027F01EF605A90018A18
:104090007441F0A37454F0A37448F0A3740DF0A31A
:1040A000740AF09001887405F09000B4E0246490E4
:1040B00004DEF09004DC740DF0431B2022E51B307D
:1040C000E61B531BBF9004DDE0B40205E49004DC62
:1040D000F09004DDE0B40305E49004DCF09004DE2D
:1040E000E070049004DCF0228F338C348D35753C05
:1040F00001E4F539F53AF53BE533F47003024497F2
:10410000C3E5359440E53494005033E535AE34785A
:1041100003C333CE33CED8F9FFE4EF2404FFEE34EB
:10412000ECFEE43401FDE433FC755E00755F01755F
:10413000600075610075623712C5E7024242C3E54F
:104140003594A0E5349400503AE53524C0FFE534B9
:1041500034FFFEEF7803C333CE33CED8F9FFE4EF5C
:104160002404FFEE34F0FEE43401FDE433FC755E1C
:1041700000755F0175600075610075623712C5E7F3
:10418000024242C3E53594C0E53494005039E53528
:104190002460FFE53434FFFEEF7803C333CE33CE23
:1041A000D8F9FFE4EF2404FFEE34F4FEE43401FD1B
:1041B000E433FC755E00755F017560007561007524
:1041C000623712C5E7807BC3E53594E0E53494009F
:1041D0005039E5352440FFE53434FFFEEF7803C362
:1041E00033CE33CED8F9FFE4EF2404FFEE34F8FEEB
:1041F000E43401FDE433FC755E00755F0175600019
:1042000075610075623712C5E78037E5352420FFF8
:10421000E53434FFFEEF7803C333CE33CED8F9FF55
:10422000E4EF2404FFEE34FCFEE43401FDE433FC4F
:10423000755E00755F01756000756100756237120B
:10424000C5E7AF3712C8668F37E533700302443DC8
:10425000E53770030243C9AF35AE341292707883EC
:10426000E630E011753963787EE6F53AAF35AE3465
:1042700012AE4C8F3BC3E5359440E53494004003C7
:1042800002431CE535AE347803CEC313CE13D8F900
:10429000F536787EE66481605B7881E624EE602DF9
:1042A0000460030243B274017E00A836088005C38F
:1042B00033CE33CED8F9FF9004F2E0FDE4EF5D6039
:1042C00006753C010243B2E4F53C0243B274017E40
:1042D00000A836088005C333CE33CED8F9FF90044A
:1042E000F2E0FDE4EF5D6006E4F53C0243B2753CAC
:1042F000010243B274017E00A836088005C333CEA4
:1043000033CED8F9FF900510E0FDE4EF5D600302C5
:10431000448A7D01AF3612C9350243B2E53524C067
:10432000FFE53434FFFEEF7803CEC313CE13D8F984
:10433000F536787EE6648160447881E624EE60207C
:1043400004706FE53675F00FA42420F582E4340084
:10435000F583E030E105E4F53C8057753C0180527F
:10436000E53675F00FA42420F582E43400F583E0EF
:1043700030E105753C01803AE4F53C803574017EFE
:1043800000A836088005C333CE33CED8F9FF900499
:10439000F0E0FCA3E0FDEC5EFAED5F4A600302444E
:1043A0008A753C01EC4EFEED4FFF9004F0EEF0A359
:1043B000EFF07881E6FF18E6FD7C00853441853515
:1043C00042AB3C126EE802448AAF35AE34129270B2
:1043D000E53524C0FFE53434FFFEEF7803CEC31388
:1043E000CE13D8F9F536787EE66481600302448AFC
:1043F000047E00A836088005C333CE33CED8F9FF3B
:104400009004F0E0FCA3E0FDEC5EFAED5F4A607A18
:10441000E4F53CEFF4FFEEF4FEEC5EFEED5FFF90A2
:1044200004F0EEF0A3EFF07881E6FF18E6FD7C00E3
:10443000853441853542AB3C126EE8804DAF35AED8
:1044400034129270E535AE347803CEC313CE13D850
:10445000F9F536FF74017E00A807088005C333CE46
:1044600033CED8F9FF900510E0FDE4EF5D601BE46A
:10447000FDAF3612C9357881E6FF18E6FD7C008570
:104480003441853542E4FB126EE8E539B46308AB8C
:104490003BAD3AFF122CFE22E4F534900018E0FF09
:1044A000E534C39F400302481AE53475F00FA42495
:1044B00028F582E43400F583E0B40A0040030247A3
:1044C000F29044C8F82828730244E6024589024560
:1044D000C40246690246A30246E90246FE024713A9
:1044E00002472802478FE53475F00FA42429F5828E
:1044F000E43400F583E064027063E53475F00FA4E2
:10450000241FF582E43400F583E0703CE53475F057
:1045100008A42406FFE5F0347CFEE4FCFDF55E759E
:104520005F02F56075610075623512C5E7AF36AEA2
:104530003512CD0AE53475F00FA42425F582E43454
:1045400000F583EEF0A3EFF0E53475F00FA4242816
:10455000F582E43400F5837408F0024815E53475FB
:10456000F00FA42429F582E43400F583E0640360AD
:1045700003024815E53475F00FA42428F582E434CD
:1045800000F5837405F0024815AF3412CCDAEF6001
:104590000CE5342441FBE4FD7F34122CFEE5347538
:1045A000F00FA42428F582E43400F5837402F0E5CA
:1045B0003475F00FA42420F582E43400F5837402EE
:1045C000F0024815E53475F00FA42429F582E4348F
:1045D00000F583E064017065E53475F00FA4241FD5
:1045E000F582E43400F583E06401703CE53475F055
:1045F00008A42406FFE5F0347CFEE4FCFDF55E75BE
:104600005F02F56075610075623512C5E7AF36AEC1
:104610003512CD0AE53475F00FA42425F582E43473
:1046200000F583EEF0A3EFF0E53475F00FA4242835
:10463000F582E43400F5837409F0024815E5347519
:10464000F00FA42429F582E43400F583E0640360CC
:1046500003024815E53475F00FA42428F582E434EC
:1046600000F5837405F0024815AF3412CCDAEF6020
:104670000CE5342441FBE4FD7F33122CFEE5347558
:10468000F00FA42428F582E43400F583E4F0E53447
:1046900075F00FA42420F582E43400F5837401F052
:1046A000024815E53475F00FA42429F582E434009E
:1046B000F583E0FFB40215E53475F00FA42428F566
:1046C00082E43400F5837406F0024815EF6401605B
:1046D00003024815E53475F00FA42428F582E4346C
:1046E00000F5837407F0024815E53475F00FA42433
:1046F00028F582E43400F5837404F0024815E534AB
:1047000075F00FA42428F582E43400F5837401F0D9
:10471000024815E53475F00FA42428F582E434002E
:10472000F5837403F0024815E53475F00FA42429CD
:10473000F582E43400F583E0B40126E53475F00F2A
:10474000A42428F582E43400F583E4F0E53475F020
:104750000FA42420F582E43400F5837401F00248AC
:1047600015E53475F00FA42425F582E43400F583B3
:10477000E0FEA3E04E6003024815E53475F00FA497
:104780002428F582E43400F5837401F0024815E52D
:104790003475F00FA42429F582E43400F583E0B4E5
:1047A0000226E53475F00FA42428F582E43400F5E0
:1047B000837402F0E53475F00FA42420F582E4340C
:1047C00000F5837402F0804DE53475F00FA42425C4
:1047D000F582E43400F583E0FEA3E04E7037E53463
:1047E00075F00FA42428F582E43400F5837403F0F7
:1047F0008023E53475F00FA42428F582E43400F515
:1048000083E4F0E53475F00FA42420F582E434004D
:10481000F5837401F0053402449B22C0E0C0F0C06F
:1048200083C082C0D075D00820990302494590000A
:10483000B4E0240F900287F0C299E5191229334899
:104840005E00487301487F0248B40348DB04490610
:1048500005490E0649160749210900004945759981
:10486000FF0518E518C39403500302494575190163
:10487000024945759955751902751800024945AFE9
:1048800018051874832FF582E43401F583E0F52AC6
:10489000F599E518C394075003024945751800902F
:1048A0000188E0D394014006751903024945751942
:1048B00004024945AF180518748A2FF582E43401C3
:1048C000F583E0F52AF599900188E014FFE518C317
:1048D0009F4072751904751800806AAF1805187426
:1048E000202FF582E43402F583E0F5999000EAE0A8
:1048F000646A6004E0B442020518E518D3940140EC
:1049000044751905803F75990075190680377599AA
:1049100000751907802F751900C2B2D29CC2188089
:1049200024AF180518748A2FF582E43401F583E06A
:10493000F52AF599900188E0FFE518C39F400675B8
:104940001905751800209803024B749000B4E024F8
:104950000F900287F0C29885992AE51B30E3030285
:104960004B74E51914604A14606E147003024A20F7
:10497000147003024A4924FC7003024AC7240860E9
:1049800003024B74E52AB4FF06751901024B74E566
:104990002AB45509751902751800024B74E52A707E
:1049A00003024B747518019000B1F0751908024BA1
:1049B00074E52AB45509751902751800024B74E59F
:1049C0002AB4FF03D38001C35003024B747519004E
:1049D000900287E4F0024B74AF18051874E42FF5C9
:1049E00082E43400F583E52AF0E518C39407500308
:1049F000024B749000E9E0B40109751904751800C0
:104A0000024B749000E9E0D39497400B7519009025
:104A10000287E4F0024B74751800751903024B7499
:104A2000AF18051874EB2FF582E43400F583E52AFE
:104A3000F09000E9E014FFE518C39F5003024B74A7
:104A4000751904751800024B74AF18051874812F7E
:104A5000F582E43401F583E52AF09000EAE0646A27
:104A60006009E064426004E0B444020518E518D32C
:104A700094015003024B747519009000E6E0640144
:104A80006003024B74A3E064016003024B74900066
:104A9000B6E0FF9000E4E06F6003024B749000B951
:104AA000E0FF9000E5E06F6003024B74900287F036
:104AB000E51C70047F0180027F00EF20E003024BC1
:104AC00074431B01024B74AF18051874EB2FF58269
:104AD000E43400F583E52AF0640D6003024B749022
:104AE00000B1E09000EBF074EB2518F9E43400A875
:104AF00009FC7D017BFF7ACC79F47E007F08122BC4
:104B00000CEF7012900287F0431B40F519D29C9075
:104B100004DD04F0805E74EB2518F9E43400A80984
:104B2000FC7D017BFF7ACC79FC7E007F0B122B0C85
:104B3000EF7013900287F0431B40F519D29C90044C
:104B4000DD7402F0802E74EB2518F9E43400A80916
:104B5000FC7D017BFF7ACD79077E007F03122B0C51
:104B6000EF7011900287F0431B40F519D29C90041E
:104B7000DD7403F0D0D0D082D083D0F0D0E032E426
:104B8000F52C9000DDE0FFE52CC39F4003024ED5DD
:104B9000E52C75F02FA4243AF582E43402F583E085
:104BA0006404706CE52C75F02FA4243AF582E4348B
:104BB00002F583E4F0E52C75F02FA42439F582E4A6
:104BC0003402F583E0FFE52C75F02FA42427F5824D
:104BD000E43402F583EFF0E52C75F02FA42427F5DB
:104BE00082E43402F583E004F52DE52C2421FBADAD
:104BF0002D7F53122CFE900226E0FFAE2C7401A8EC
:104C000006088002C333D8FC4F900226F0024CD82D
:104C1000E52C75F02FA4243AF582E43402F583E004
:104C200064016003024CD8900226E0FFAE2C7401B0
:104C3000A806088002C333D8FCF45F900226F0E592
:104C40002C75F02FA4243AF582E43402F583E4F0C5
:104C5000E52C75F02FA42438F582E43402F583E0C6
:104C600064026043E52C75F013A4248BF582E434D0
:104C700002F583E0FFE52C75F02FA42427F582E4EC
:104C80003402F583EFF0E52C75F013A4248BF58244
:104C9000E43402F583E004F52DE52C2421FBAD2D51
:104CA0007F54122CFE8031E52C75F02FA42427F5BB
:104CB00082E43402F5837405F0E52C75F02FA4240A
:104CC00027F582E43402F583E004F52DE52C242158
:104CD000FBAD2D7F54122CFE74E2252CF582E434BA
:104CE00000F583E0FF7003024DEF24FE7003024DD8
:104CF0007C14604B147003024D7C24036003024D4E
:104D0000EFE52C75F02FA42427F582E43402F58317
:104D10007405F0E52C75F02FA42427F582E4340205
:104D2000F583E004FDE52C2421FB7F3A122CFE7470
:104D3000E2252CF582E43400F583E4F0024DEFE542
:104D40002C75F02FA42427F582E43402F583740631
:104D5000F0E52C75F02FA42427F582E43402F583C6
:104D6000E004FDE52C2421FB7F3A122CFE74E225A1
:104D70002CF582E43400F583E4F0807374E2252C92
:104D8000F582E43400F583E4F0E52C75F02FA424DB
:104D900038F582E43402F583E064026024E52C7582
:104DA000F013A4248BF582E43402F583E0FFE52CB4
:104DB00075F02FA42427F582E43402F583EFF08008
:104DC00012E52C75F02FA42427F582E43402F58334
:104DD0007405F0E52C75F02FA42427F582E4340245
:104DE000F583E004FDE52C2421FB7F3A122CFEE53F
:104DF0002C75F02FA42438F582E43402F583E064A6
:104E0000017040E52C75F02FA42427F582E43402CC
:104E1000F5837405F0E52C75F02FA42427F582E4C2
:104E20003402F583E004FDE52C2421FB7F43122CA2
:104E3000FEE52C75F02FA42438F582E43402F583C6
:104E40007402F0E52C75F02FA42438F582E43402C6
:104E5000F583E06403704FE52C75F013A4248BF503
:104E600082E43402F583E0FFE52C75F02FA42427BB
:104E7000F582E43402F583EFF0E52C75F02FA424DD
:104E800027F582E43402F583E004FDE52C2421FBC0
:104E90007F44122CFEE52C75F02FA42438F582E413
:104EA0003402F583E4F0E52C75F02FA42427F58275
:104EB000E43402F583E0FF64056004EFB40611E515
:104EC0002CC39402500AE52C6004D2038002D20164
:104ED000052C024B82228F2CE4FFE52C1460111468
:104EE00060151460192403701AA220E433FF8013A4
:104EF000A221E433FF800CA222E433FF8005A22329
:104F0000E433FFEF7003025224E52C75F02FA42444
:104F100042F582E43402F583E4F0753A01F52DE5BB
:104F20002DC394505043E52C75F02FA42443F582F3
:104F3000E43402F583E054F8F53B64D06005E53BCA
:104F4000B4B01DE4F53AE53BC4540FF538E4F52E52
:104F5000AF2C127EDD052EE52EC3940540F28009AC
:104F6000AF2C127EDD052D80B6E53A60030250E5D8
:104F7000FE7F08FDFB7A00797E122B30E4F53C754C
:104F80003A03F52DE52C75F02FA42443F582E43483
:104F900002F583E0FFC4540F6238EF54F8FFBFF806
:104FA0001FE4F52EAF2C127EDD052EE52EC39405F1
:104FB00040F2E53A640360030250E8F53A0250E833
:104FC000E4F52EE52E64047003025064E53C6003B2
:104FD000025064C2D7787EE6FF25E0F608E6FF259A
:104FE000E0F630D70518E64401F67880E6FF25E0C4
:104FF000F630D70518E64401F67881E6FF25E0F69D
:1050000030D70518E64401F67882E6FF25E0F63051
:10501000D70518E64401F67883E6FF25E0F630D799
:105020000518E64401F67884E6FF25E0F630D7055A
:1050300018E64401F67885E6FF25E0F630D7051836
:10504000E64401F6E52C75F02FA42443F582E43400
:1050500002F583E030E7067885E64401F6AF2C12CE
:105060007EDD80677885E6540FB41000503F905085
:1050700075F82828730250A50250AA0250AA0250BF
:10508000A50250AA0250A50250A50250AA0250AA99
:105090000250A50250A50250AA0250A50250AA0231
:1050A00050AA0250A57539808003E4F539E52C75C6
:1050B000F02FA42443F582E43402F583E0548065A4
:1050C000396003753A02AF2C127EDD052EE52EC342
:1050D00094055003024FC3052DE52DC3940F5003D3
:1050E000024F848003753A01E53A60030251E6E518
:1050F0002C75F02FA42443F582E43402F583E0FFFD
:10510000C4540F653860030251E6FE7F08FDFB7A48
:10511000007930122B30E4F52F7430252FF9E4FAA2
:10512000FBFDAF2F12C5A87430252FF9E4FAFB0D53
:10513000AF2F12C5A8052FE52FC3940840DB787E5A
:105140007C007D007B007A0079307E007F0812268B
:10515000BC9000087D00E52C75F02FA42428F9747C
:105160000235F0FA7B01AE83AF82122B30E52C754D
:10517000F013A42489F582E43402F583E0B40C0F23
:105180007E007F057D007B007A00797E122B30E562
:105190003BB4B01D787FE6FFC4540FFEE52C75F0DC
:1051A0002FA42455F582E43402F583EEF0EF540F7A
:1051B000F6E52C75F02FA4242FF9740235F0FA7B54
:1051C00001C0031B8B40754100754285D003123826
:1051D00059E52C75F02FA4243CF9740235F0FA7BC4
:1051E000017D0812CE9A90000A7D00E52C75F02F03
:1051F000A42443F9740235F0FA7B01AE83AF821226
:105200002B30E52C14600F1460111460132403700C
:1052100013C220C22422C221C22522C222C22622B7
:10522000C223C22722900287E0601314F0700F534C
:105230001BF7F519F518900099F0D29CC2B29000B6
:10524000ADE0600214F09000B3E0600214F090044E
:10525000E2E0600214F09000B8E0600214F0900008
:10526000B2E0600214F09004DEE0600214F0E4F5B5
:105270003490001DE0FFE534C39F5020740D2534A9
:10528000F582E43400F583E0600E740D2534F58278
:10529000E43400F583E014F0053480D5E4F534906F
:1052A00000DDE0FFE534C39F5051E53475F02FA4D5
:1052B000244EF582E43402F583E0603BE53475F07A
:1052C0002FA4244EF582E43402F583E014F0702715
:1052D000E53475F02FA4243CF9740235F0FA7B0113
:1052E0007D0112CE9AE53414600904700AC224C20A
:1052F000208004C225C221053480A4900286E004E7
:10530000F0C39462500302553FE4F0F5349000DDA1
:10531000E0FFE534C39F5028E53475F02FA42452F4
:10532000F582E43402F583E06012E53475F02FA4D1
:105330002452F582E43402F583E014F0053480CD84
:105340009004DFE0600214F09000BEE0600214F010
:10535000E4F5359000DDE0FFE535C39F5063E535AA
:1053600075F02FA42435F582E43402F583E0601251
:10537000E53575F02FA42435F582E43402F583E099
:1053800014F0E53575F02FA42436F582E43402F5E7
:1053900083E06029E53575F02FA42436F582E434E6
:1053A00002F583E014F07015AF3512A82174DE25E4
:1053B00035F9E43400FA7B017D0812CE9A05358078
:1053C00092E4F53590001EE0FFE535C39F502CE5D3
:1053D0003525E024E6F582E43404F583E0FEA3E01D
:1053E0004E6014E53525E024E6F582E43404F583C7
:1053F00074FFF5F01227C3053580C9E4F535900038
:1054000018E0FFE535C39F5054E53575F00FA4242F
:1054100025F582E43400F583E0FEA3E04E6016E556
:105420003575F00FA42425F582E43400F58374FF6C
:10543000F5F01227C3E53575F00FA4242DF582E4AD
:105440003400F583E06012E53575F00FA4242DF5E6
:1054500082E43400F583E014F0053580A1E4F535ED
:1054600090001DE0FFE535C39F502CE53525E02475
:1054700003F582E43400F583E0FEA3E04E6014E51A
:105480003525E02403F582E43400F58374FFF5F05C
:105490001227C3053580C9E4F53490001EE0FFE50E
:1054A00034C39F4003025531E53475F01FA42469CD
:1054B000F582E43400F583E0FEA3E04E6016E534A7
:1054C00075F01FA42469F582E43400F58374FFF5B8
:1054D000F01227C3E53475F01FA4246DF582E4347F
:1054E00000F583E0FEA3E04E6016E53475F01FA4DE
:1054F000246DF582E43400F58374FFF5F01227C3C0
:10550000E53475F01FA4246FF582E43400F583E0E0
:10551000FEA3E04E6016E53475F01FA4246FF582FB
:10552000E43400F58374FFF5F01227C30534025408
:105530009A90000BE0600814F0E0700312001E2245
:105540008F2EEF75F008A4FFE42FFFE5F034ECFE9A
:10555000E43401FDE433FC755E00755F01756000A5
:1055600075610075623212C5E7752FFFE52E1313C2
:1055700013541FF531E53224EE700302564B24918B
:10558000700302570A24706003025842E4F52F901A
:105590000001E0FF9004B5E04FFD7C0074017E0047
:1055A000A831088005C333CE33CED8F9FFEE5CFCBA
:1055B000EF5D4C60259004F2E0F9FDE4EF5D6003DF
:1055C000025842AF3104A807088002C333D8FC490F
:1055D0009004F2F0752F0102584274017E00A83148
:1055E000088005C333CE33CED8F9FF9004F2E0FD36
:1055F000FBE4EF5B7003025842AF317401A8070867
:105600008002C333D8FCF45D9004F2F0E52E75F00F
:1056100008A4FFE4EF2403FFE5F034ECFEE43401DA
:10562000FDE433FC755E00755F0175600075610017
:1056300075623212C5E7E53264116009E532641221
:105640006003025842752F01025842E4F52F900082
:1056500001E0FF9004B5E04FFD7C0074017E00A8DE
:1056600031088005C333CE33CED8F9FFEE5CFCEFB2
:105670005D4C70259004F2E0F9FDE4EF5D600302FB
:105680005842AF3104A807088002C333D8FC4990C0
:1056900004F2F0752F0102584274017E00A831080F
:1056A0008005C333CE33CED8F9FF9004F2E0FDFB82
:1056B000E4EF5B7003025842AF317401A807088021
:1056C00002C333D8FCF45D9004F2F0E52E75F008C7
:1056D000A4FFE4EF2403FFE5F034ECFEE43401FD25
:1056E000E433FC755E00755F0175600075610075DF
:1056F000623212C5E7E53264116009E53264126076
:1057000003025842752F01025842E4F52FAF3112BF
:10571000CB308F30EF6004153080037530FFE52EFD
:1057200075F008A4FFE4EF2404FFE5F034ECFEE498
:105730003401FDE433FC755E00755F017560007532
:10574000610075628212C5E77882E6FF12C866EFD3
:1057500060030257DCE53075F01FA4245CF582E499
:105760003400F583E030E21AE530F46015E5307579
:10577000F01FA42475F9740035F0FA7B017D041242
:10578000CE7AE52E131313541FF924F3F582E43473
:1057900004F583E0FDFB7A00E52E5407FC74017EDE
:1057A00000A804088005C333CE33CED8F9FFEE5AE3
:1057B000FEEF5B4E700302584C74F329F582E4341B
:1057C00004F5837401A804088002C333D8FCF45D97
:1057D000F0E4F52FFDAF3112C9EB8066E52E13130F
:1057E00013541F24F3F582E43404F583E0FFE52E1F
:1057F0005407FE7401A806088002C333D8FC4FF09A
:10580000E530F46033E53075F01FA4245CF582E4E4
:105810003400F583E030E214AF3012C527EF702278
:10582000752F017D01AF3112C9EB8016752F017DF7
:1058300001AF3112C9EB800A752F017D01AF311222
:10584000C9EBE52EFD7C00AF2F1240E822758F4199
:105850007580FE7590FF75A0F875B0CBE52F152FFC
:105860007002152E14452E6004000080EFD2B3D2D2
:1058700080D280D280C28075985075874075C834B8
:10588000E4F5C975CBFF758912758850758D7D75E6
:105890008BCB75D904D2DE75DA1175DB1175DC118D
:1058A00075DD1175B840F5B775A8F812C8D18F2C01
:1058B000E52C541F049000B9F0E4F530E52C30E5F8
:1058C000037530019000B67402F0E5306003740394
:1058D000F0E52C54C0601B24C0601224C060092471
:1058E000C0701275CAEA800D75CAF5800875CABF06
:1058F000800375CA7E129D2612BFAD12B6AC12B7D8
:10590000997D047FF012CCC0EF640160097B017DBA
:10591000047FF012C9BFE4F52EF52F052FE52F7097
:1059200002052EB430F5E52EB475F07D047FF0123B
:10593000CCC0EF64016010E4F5A8F5B1FB7D047FF5
:10594000F012C9BF12CEA27D037FF012CCC0BF01FE
:10595000197B01E4FD7F83122CFE7B01E4FD7F8235
:10596000122CFE126A36D20C803912C150E4F52D89
:10597000AF2D12C626052DE52DC3940240F212C4A8
:1059800061E4F52DAF2D1275AD052DE52DC3940203
:1059900040F212C89C12CC8B7B01E4FD7F81122C5B
:1059A000FEC20C1262DED200D202D20DD20B1285E0
:1059B0002FE4F52DAF2DE4FCFDFEFBFA7901F81282
:1059C00027D9EF2480F535EE3420F534E43DF53366
:1059D000E43CF532AF2D12AD30052DE52DC3940218
:1059E00040D29004ECE020E0159004EEE020E00EC0
:1059F0009004F0E020E0079004F2E030E0127D80B7
:105A00007C74E4FF12AA117D007C77E4FF12AA11D6
:105A1000900251E0FF12C866EF60097D007CFBE454
:105A2000FF12AA11900280E0FF12C866EF60097DA4
:105A3000807CFD7F0112AA11E49004DCF09000B498
:105A400004F012C4A3900285EFF090001D7404F0DE
:105A5000900018F09000DD7402F0E530600C788E54
:105A6000760190001E7402F08009E4788EF69000B2
:105A70001E04F0755E00755F01756000756100754C
:105A8000622C7FF07EFF7D037C0012C5E7788EE6F6
:105A9000652C6067755F0075600175610075620057
:105AA00075638E7FF07EFF7D037C0012C41E7E0234
:105AB0007F007D007B017A0279B2122B30E4F52C55
:105AC000E52C75F080A4FFE42FFFE5F034ECFEE454
:105AD0003401FDE433FC755F007560807A0279B2B1
