:10180000C0180020E1B400088DA900088FA90008C5
:1018100091A9000893A9000895A9000800000000FC
:1018200000000000000000000000000099A900086E
:1018300097A90008000000009BA900089DA90008C6
:10184000BDA90008BFA90008C1A90008C3A90008D4
:10185000C5A90008C7A90008C9A90008E3A900088C
:10186000FDA9000817AA000819AA000833AA000851
:1018700035AA000837AA000839AA000861AA00089A
:1018800063AA000865AA000867AA000869AA0008F8
:101890006BAA00086DAA00086FAA000871AA0008C8
:1018A000A5AA0008A7AA0008A9AA0008ABAA0008D0
:1018B000ADAA0008AFAA0008B1AA0008B3AA0008A0
:1018C00065AB00087DAB00087FAB000881AB00086A
:1018D00083AB000885AB0008EDAB0008EFAB000858
:1018E000F1AB000829AC00082BAC00082DAC0008B7
:1018F0002FAC000831AC000833AC000835AC000850
:1019000037AC000839AC00083BAC00083DAC00081F
:101910003FAC000841AC000843AC000845AC0008EF
:1019200047AC000849AC00084BAC00084DAC0008BF
:10193000028811430180704781F47F4191F0FF01DB
:1019400002881140018070477047E0B5C0B280281E
:101950000CDBC0B20190DFF8600A0090DFF8A03A1B
:1019600000220321062001F08FFB02E0DFF8A41A19
:10197000087107BDDFF89C0A0079704780B5010047
:1019800089B2DFF8900AFFF7D7FF01BDE0B5C0B21A
:1019900004280CDBC0B20190DFF87C0A0090DFF86D
:1019A0007C3A00220321062001F06EFB09E089B297
:1019B000DFF8603AC0B24822504318441E30FFF7A7
:1019C000BBFF07BDDFF84C0A0088704780B50100F7
:1019D00089B2DFF8500BFFF7AFFF01BDE0B5C0B231
:1019E00004280CDBC0B20190DFF8340A0090DFF865
:1019F0002C3A00220321062001F046FB09E089B2BF
:101A0000DFF8103AC0B24822504318442030FFF7A4
:101A100093FF07BDDFF8FC094088C0B27047DFF8CC
:101A2000F429C0B2482148431044008CC0B270472A
:101A3000E0B5C0B204280CDBC0B20190DFF8E80AC0
:101A40000090DFF8D83900220321062001F01CFBAA
:101A500002E0DFF8C019087407BDDFF8B809007CA0
:101A6000704780B5FFF7AEFF002000E0401C04285F
:101A70000CDADFF8A019482202FB00F21144897F3A
:101A8000C907F3D5C0B2FFF7D3FF23E0002000E081
:101A9000401C04280CDADFF87C19482202FB00F213
:101AA0001144897F4906F3D5C0B2FFF7C1FF11E0A9
:101AB000002000E0401C04280CDADFF85819482206
:101AC00002FB00F21144897F8907F3D5C0B2FFF70A
:101AD000AFFFFFE701BD10B5FF20DFF838194871EF
:101AE0000020DFF8301908800020DFF8281981F87D
:101AF000DE010020DFF81C1981F8DF0100F091F809
:101B000000F0BAFA012000F058F8002000F099F82F
:101B100001F0D1F9032000F048F8362000F049F830
:101B2000002000F04AF800F0E4FB01F0D1F90024B5
:101B300024E02000C0B200F0F9FF2000C0B201F0A4
:101B40005DF8200001F0ACF80020DFF8C81848224A
:101B500002FB04F2114481F845000020DFF8B418BC
:101B6000482202FB04F21144C8832000C0B200F0F6
:101B700044FD2000C0B200F0E7FB641C042CD8DB5D
:101B800010BD10B504000C22DFF8D81B200001F0B6
:101B9000CFFA0120FFF7F2FE10BDDFF878180875C4
:101BA0007047DFF87008007D7047DFF868188876A6
:101BB0007047DFF86018C8767047DFF85818087764
:101BC000704710B50400FFF7ECFF012806D021D3C1
:101BD000032811D009D3042815D01BE00C22DFF80C
:101BE0001C1C200001F0A4FA1AE00922DFF8AC1B4B
:101BF000200001F09DFA13E00622DFF8A41B20006C
:101C000001F096FA0CE00922DFF8981B200001F0A1
:101C10008FFA05E00C22DFF8E41B200001F088FABF
:101C200010BD0020DFF8EC174871704710B50400B4
:101C300000F028F82070002060700420FFF79EFE5E
:101C400010BDE0B5C0B202280CDBC0B20190DFF8D5
:101C5000B00B0090DFF8AC3B00220321062001F01E
:101C600013FA0EE0DFF8AC1749790200D2B29142C4
:101C700007D0DFF8A01748710421DFF89807FFF7B5
:101C800057FE07BDDFF88C07407970471FB5040089
:101C9000DFF8800790F8FB050A2805DADFF87407FB
:101CA00090F8FC050A2821DBDFF8680790F8FC05AE
:101CB0000290DFF8600790F8FB050190DFF8480B11
:101CC0000090DFF8483B00220321062001F0DCF9F8
:101CD0000020DFF8401781F8FC05DFF8380790F89E
:101CE000FC05DFF8301781F8FB0545E0DFF8240735
:101CF000DFF8201791F8FC15084490F8F125DFF87B
:101D00001417DFF8100790F8FC356820434301EB07
:101D1000030000F2E111200001F00AFADFF8F406F6
:101D200090F8FC05401CDFF8EC1681F8FC05DFF8A4
:101D3000E40690F8FC050A2804D10020DFF8D41648
:101D400081F8FC05DFF8CC0690F8FB05DFF8C41637
:101D500091F8FC1588420FD10020DFF8B81681F801
:101D6000FC05DFF8B00690F8FC05DFF8A81681F84E
:101D7000FB058020FFF702FE1FBD7FB504000D00AC
:101D8000E4B2692C0CDBE4B20194DFF8840A009021
:101D9000DFF8803A00220321062001F075F97FE088
:101DA000DFF8700690F8FB050A2805DADFF864060C
:101DB00090F8FC050A2820DBDFF8580690F8FC05AF
:101DC0000290DFF8500690F8FB050190DFF8400A1A
:101DD0000090DFF8383A00220321062001F054F980
:101DE0000020DFF8301681F8FC05DFF8280690F8AF
:101DF000FC05DFF8201681F8FB05DFF8180690F8DF
:101E0000FB05DFF8101691F8FC1588420DD1002073
:101E1000DFF8001681F8FC05DFF8F80590F8FC05FE
:101E2000DFF8F01581F8FB0506E0DFF85C0B0078C1
:101E3000401CDFF8541B0870E4B2DFF8D815DFF857
:101E4000D40590F8FB256820424301EB020000F224
:101E5000E11622002900300001F06AF9DFF8B4052C
:101E6000DFF8B01591F8FB15084480F8F145DFF86C
:101E7000A40590F8FB05401CDFF8981581F8FB05D8
:101E8000DFF8900590F8FB050A2804D10020DFF860
:101E9000841581F8FB058021DFF87805FFF748FD00
:101EA0007FBDDFF87005DFF86C1591F8FC1508446C
:101EB00090F8F105704710B50400DFF8580590F868
:101EC000170A0A2805DADFF84C0590F8180A0A28DC
:101ED0000FDBFFF739FD0020DFF8381581F8180A0D
:101EE000DFF8300590F8180ADFF8281581F8170A8E
:101EF00046E0DFF82005DFF81C1591F8181A0844B1
:101F000090F80D2ADFF80C15DFF8080590F8183A5C
:101F10006820434301EB030000F2FD51200001F073
:101F200007F9DFF8F00490F8180A401CDFF8E41411
:101F300081F8180ADFF8DC0490F8180A0A2804D19E
:101F40000020DFF8D01481F8180ADFF8C80490F8F0
:101F5000170ADFF8C01491F8181A884210D100202F
:101F6000DFF8B01481F8180ADFF8A80490F8180A0E
:101F7000DFF8A01481F8170A4FF48070FFF7FEFC19
:101F800010BD70B504000D00E4B2692C02DBFFF750
:101F9000DBFC66E0DFF87C0490F8170A0A2805DA13
:101FA000DFF8700490F8180A0A280EDBFFF7CCFC63
:101FB0000020DFF8601481F8180ADFF8580490F860
:101FC000180ADFF8501481F8170ADFF8480490F86F
:101FD000170ADFF8401491F8181A88420CD1002033
:101FE000DFF8301481F8180ADFF8280490F8180A8E
:101FF000DFF8201481F8170AE4B2DFF81814DFF8CC
:10200000140490F8172A6820424301EB020000F202
:10201000FD5622002900300001F08AF8DFF8F403B1
:10202000DFF8F01391F8171A084480F80D4ADFF82A
:10203000E40390F8170A401CDFF8D81381F8170A58
:10204000DFF8D00390F8170A0A2804D10020DFF83F
:10205000C41381F8170A4FF48071DFF8B803FFF753
:1020600067FC70BDDFF8AC03DFF8A81391F8181A0D
:10207000084490F80D0A704710B510210022DFF8CF
:10208000784B200001F0ACF810BD1FB50400DFF85C
:10209000840390F8DE010A2805DADFF8780390F867
:1020A000DF010A2821DBDFF86C0390F8DF010290E2
:1020B000DFF8600390F8DE010190DFF8200B00905C
:1020C000DFF81C3B00220321062000F0DDFF00208A
:1020D000DFF8401381F8DF01DFF8380390F8DF0103
:1020E000DFF8301381F8DE0117E0DFF82803C27B48
:1020F000DFF82003DFF81C1391F8DF110901084411
:1021000010F59F71200001F013F800F0BFF800F007
:10211000B9F8002801D100F001F81FBD80B5DFF843
:10212000F40290F8DE01BB4991F8DF11884227D014
:10213000B84890F8DF01401CB64981F8DF01B54886
:1021400090F8DF010A2803D10020B24981F8DF01AD
:10215000B04890F8DE01AF4991F8DF1188420DD107
:102160000020AC4981F8DF01AA4890F8DF01A949B5
:1021700081F8DE011020FFF701FC01E000F07DF89E
:1021800001BD7FB504000D00E4B2112C02DBFFF7A6
:10219000DBFB69E09F4890F8DE010A2804DA9D48DD
:1021A00090F8DF010A281BDB9A4890F8DF010290C3
:1021B000984890F8DE010190DFF87C0A0090DFF883
:1021C000203A00220321062000F05EFF0020914902
:1021D00081F8DF018F4890F8DF018E4981F8DE0138
:1021E0008C4890F8DE018B4991F8DF1188420AD1C2
:1021F0000020884981F8DF01864890F8DF01854991
:1022000081F8DE0106E0DFF8940A0078401CDFF870
:102210008C1A0870E4B27F487E4991F8DE110901FA
:10222000084410F59F7622002900300000F080FF5E
:10223000784890F8DE01401C764981F8DE01754847
:1022400090F8DE010A2803D10020724981F8DE01EE
:102250007048C47310216F48FFF76AFB00F012F852
:10226000002801D100F009F87FBD6A48C07B7047A3
:102270000020684981F8E00170470520654981F830
:10228000E0017047634890F8E0017047614890F8BA
:10229000E001002806D05F4890F8E001401E5D494B
:1022A00081F8E001704780B54FF400715948FFF79D
:1022B0003FFB01BD80B54FF40070FFF75FFB01BD30
:1022C00010B504000422DFF87C1A200000F030FF73
:1022D0000820FFF753FB10BD10B501000422DFF802
:1022E000644A200000F024FF08214A48FFF720FB41
:1022F00010BD10B504210022DFF88C4A200000F048
:102300006FFF10BD10B504000422DFF87C1A200016
:1023100000F00EFF2020FFF731FB10BD10B50100CB
:102320000422DFF8644A200000F002FF202139482F
:10233000FFF7FEFA10BD10B504000422DFF8481ABA
:10234000200000F0F5FE10BD1CB5C0B204280BDB68
:10235000C0B20190DFF85C0A0090304B00220321EC
:10236000062000F091FE0BE008210022294CC0B2AB
:1023700048235843204410F14404200000F030FF6B
:1023800013BDE0B5C0B204280BDBC0B20190DFF88A
:10239000540A0090214B00220321062000F074FE15
:1023A00008E01C4A0300DBB248214B4302EB030167
:1023B00081F8440007BD000098B40008E0B5C0B241
:1023C00004280BDBC0B20190DFF85C0A0090134BCD
:1023D00000220321062000F057FE0FE00D4AC0B294
:1023E000482303FB00F31A4492F845208918094B4F
:1023F000C0B248225043184480F8451007BD000081
:10240000A4B00008034AC0B248214843104490F8E1
:102410004500704708000020A0B200080CB000087A
:10242000B8B20008FEB504000D001600E4B2042C9A
:102430000CDBE4B20194DFF8440A0090DFF8403A84
:1024400000220321062000F01FFE69E0DFF8A40A45
:10245000E4B2482101FB04F1084490F84500C0B201
:10246000002829D13100C9B22000C0B2FFF7A6FF71
:102470002000C0B2FFF785FFF6B2DFF8780AE4B2B9
:10248000482101FB04F1084410F1460732002900FD
:10249000380000F04DFE0221DFF8580AFFF748FA35
:1024A0000221DFF8502AE4B24820444302EB040042
:1024B0001E30FFF73DFA1FE0C0B2F6B23018072811
:1024C0001ADA3100C9B22000C0B2FFF777FF20004E
:1024D000C0B2FFF797FFF6B2DFF8182AE4B248213E
:1024E0004C4302EB0401C0B2084410F14504320031
:1024F0002900200000F01CFEDFF8F80990F8A00A7F
:10250000401CDFF8F01981F8A00ADFF8E80990F81C
:10251000A00A042804D10020DFF8D81981F8A00A05
:10252000F7BD00000A00002098B300083EB5040083
:102530000D00E4B2042C0CDBE4B20194DFF8B8091E
:102540000090DFF83C3900220321062000F09CFDBA
:1025500052E0DFF8F409E4B2482101FB04F1084439
:1025600090F84520921CDFF8E009E4B2482101FB15
:1025700004F1084410F14401280000F0D9FD0221C3
:102580002000C0B2FFF702FA0021DFF8BC29E4B254
:102590004820444302EB040080F84510DFF8A80906
:1025A00090F8A10A401CDFF8A01981F8A10ADFF811
:1025B000980990F8A10A042804D10020DFF88819AE
:1025C00081F8A10ADFF8800990F8A00ADFF87819ED
:1025D00091F8A11A88420FD10020DFF86C1981F818
:1025E000A10ADFF8640990F8A10ADFF85C1981F804
:1025F000A00A0220FFF7C2F937BD1CB5C0B20428FB
:102600000CDBC0B20190DFF844090090DFF87038AD
:1026100000220321062000F037FD0CE00B210022F0
:10262000DFF82449C0B248235843204410F1240461
:10263000200000F0D5FD13BD1FB50C00C0B204286A
:1026400010DB0321039100210291C0B20190DFF859
:1026500000090090DFF8FC3800220321062000F07A
:1026600013FD62E0DFF8E00890F89C0A0A2805DA1A
:10267000DFF8D40890F89D0A0A280FDBFFF764F909
:102680000020DFF8C41881F89D0ADFF8BC0890F834
:102690009D0ADFF8B41881F89C0A46E0DFF8A80824
:1026A000DFF8A41891F89D1A084490F8922A121D98
:1026B000DFF89418DFF8900890F89D3A0C20434317
:1026C00001EB030000F61A21200000F031FDDFF8D5
:1026D000780890F89D0A401CDFF86C1881F89D0A74
:1026E000DFF8640890F89D0A0A2804D10020DFF87A
:1026F000581881F89D0ADFF8500890F89C0ADFF816
:10270000481891F89D1A88420FD10020DFF8381838
:1027100081F89D0ADFF8300890F89D0ADFF8281844
:1027200081F89C0A0120FFF729F91FBDE0B5C0B26E
:1027300004280CDBC0B20190DFF81C080090DFF821
:10274000403700220321062000F09EFC09E0DFF85C
:10275000F8270300DBB248214B4302EB030181F869
:10276000240007BD19000020E0B5C0B204280CDB2E
:10277000C0B20190DFF8E4070090DFF804370022D0
:102780000321062000F080FC07E0DFF8BC37C0B270
:1027900048225043184480F8251007BDBCB40008F7
:1027A0000CB50008D4B4000889B2082291FBF2F3FA
:1027B00002FB1312002A0BD089B2082291FBF2F11E
:1027C000491CDFF88427C0B2104480F8921A09E04F
:1027D00089B2082291FBF2F1DFF86C27C0B21044F5
:1027E00080F8921A7047DFF86007DFF85C1791F8FD
:1027F0009D1A084490F8920A70470000C8B4000877
:10280000A4B40008C8B00008D0B20008B8AD0008F1
:10281000F8B3000864AF00082DE9FF4105000F0080
:1028200016001C00EDB2042D05DAB6B2412E02DA14
:10283000E4B2092C10DBE4B20394B6B20296EDB216
:102840000195DFF81C070090DFF8183700220321FC
:10285000062000F019FC95E0DFF8EC06EDB2482107
:1028600001FB05F10844C6842800C0B2FFF75EFFF3
:1028700001212800C0B2FFF777FFE4B2DFF8C806F5
:10288000EDB2482101FB05F1084410F128082200AF
:102890003900404600F04CFCDFF8AC0690F89C0A8A
:1028A0000A2805DADFF8A00690F89D0A0A280EDB50
:1028B000FFF74AF80020DFF8901681F89D0ADFF84C
:1028C000880690F89D0ADFF8801681F89C0ADFF8E8
:1028D000780690F89C0ADFF8701691F89D1A8842E5
:1028E0000DD10020DFF8601681F89D0ADFF8580648
:1028F00090F89D0ADFF8501681F89C0A06E0DFF890
:1029000068060078401CDFF860160870310089B254
:10291000DFF8340690F89C0AFFF746FFE4B2241D66
:10292000DFF82416EDB24820454301EB050010F115
:102930002401DFF81426DFF8100690F89C3A0C20EA
:10294000434302EB030000F61A252200280000F0A2
:10295000EFFBDFF8F40590F89C0A401CDFF8E8155F
:1029600081F89C0ADFF8E00590F89C0A0A2804D157
:102970000020DFF8D41581F89C0A0121DFF8C80592
:10298000FEF7D6FFBDE8FF81B01400203EB504007D
:102990001A00E4B2042C0CDBE4B20194DFF8CC059D
:1029A0000090DFF8DC3400220321062000F06CFBED
:1029B00055E00698DFF89035E4B2482505FB04F5AC
:1029C0002B4483F83040DFF88035E4B2482505FB1E
:1029D00004F52B4483F83100DFF86C05E4B248239A
:1029E00003FB04F3184480F83220DFF85C05E4B2FE
:1029F000482303FB04F3184480F82220D2B2DFF806
:102A00004805E4B2482303FB04F3184410F13305EE
:102A1000280000F08DFB4021DFF82C05FEF788FF31
:102A20004021DFF82425E4B24820444302EB0400AF
:102A30001E30FEF77DFFDFF8100590F89E0A401C5F
:102A4000DFF8041581F89E0ADFF8FC0490F89E0A6E
:102A5000042804D10020DFF8F01481F89E0A37BD65
:102A6000DFF8E424C0B248214843104490F8220023
:102A700070473EB504000D00E4B2042C0CDBE4B258
:102A80000194DFF8EC040090DFF8F4330022032116
:102A9000062000F0F9FA48E0DFF8AC04E4B248217F
:102AA00001FB04F1084490F82220D21CDFF89804BE
:102AB000E4B2482101FB04F1084410F13001280080
:102AC00000F036FB40212000C0B2FEF75FFFDFF8C8
:102AD000780490F89F0A401CDFF86C1481F89F0A74
:102AE000DFF8640490F89F0A042804D10020DFF87E
:102AF000581481F89F0ADFF8500490F89E0ADFF816
:102B0000481491F89F1A88420FD10020DFF838143A
:102B100081F89F0ADFF8300490F89F0ADFF8281444
:102B200081F89E0A4020FEF729FF37BD1CB5C0B2D0
:102B300004280CDBC0B20190DFF838040090DFF805
:102B4000403300220321062000F09EFA0CE00E2103
:102B50000022DFF8F443C0B248235843204410F168
:102B60005204200000F03CFB13BD3EB50400E4B26B
:102B7000042C0CDBE4B20194DFF8FC030090DFF8D6
:102B8000003300220321062000F07EFA1CE00E2212
:102B9000DFF8B403E4B2482303FB04F3184410F154
:102BA0005205280000F0C4FA0121DFF8D003FEF737
:102BB000BFFE0121DFF89023E4B24820444302EB3A
:102BC00004002030FEF7B4FE37BDDFF87C23C0B22E
:102BD00048214843104490F85500704768B20008F7
:102BE000F0AD0008DFF86023C0B24821484310442C
:102BF00090F8570070470000460100201CB5C0B295
:102C000004280BDBC0B20190DFF8740300909C4BEA
:102C100000220321062000F037FA0CE004210022F4
:102C2000DFF82443C0B248235843204410F14E0437
:102C3000200000F0D5FA13BD08B400083EB504002A
:102C4000E4B2042C0BDBE4B20194DFF8380300900B
:102C50008B4B00220321062000F016FA1CE0042210
:102C6000DFF8E402E4B2482303FB04F3184410F154
:102C70004E05280000F05CFA0221DFF80003FEF7A1
:102C800057FE0221DFF8C022E4B24820444302EBA1
:102C900004002030FEF74CFE37BD0000B1140020C8
:102CA00010B504210022DFF8E042200000F098FA7D
:102CB00010BD10B501000422B34C200000F038FA1A
:102CC0000421AE48FEF734FE10BD3EB5441EE4B20A
:102CD000042C0ADBE4B20194AC480090684B00225B
:102CE0000321062000F0D0F919E003229648E4B24F
:102CF000482303FB04F3184410F16205280000F098
:102D000017FA10219D48FEF713FE04218E4AE4B203
:102D10004820444302EB04002030FEF709FE37BD93
:102D2000894AC0B248214843104490F86200704775
:102D3000854AC0B248214843104490F86300704768
:102D4000000000000F0000207F4AC0B24821484325
:102D5000104490F86400704710B5102100228C4C8C
:102D6000200000F03DFA10BD38B50400FFF7F4FF75
:102D70001022874D2100280000F0DAF908217F4851
:102D8000FEF7D6FD31BD00001300002010B5040091
:102D900010227F49200000F0CBF90820FEF716FE34
:102DA00010BD80B500785349887120217348FEF723
:102DB000BFFD01BDE8B2000880B52020FEF706FE89
:102DC0006148807902BD80B540216C48FEF7B0FDB6
:102DD00001BD10B5052100226E4C200000F000FA64
:102DE00010BD000000B3000838B50400FFF7F1FF84
:102DF0000522684D2100280000F09AF95248D0F8C9
:102E0000D10A00F03FF8002804D080215B48FEF78B
:102E10008FFD04E000F055FB4B49C1F8D10A31BDEC
:102E20004948D0F8D10A7047B0B4000810B5040082
:102E300005225849200000F07BF910BD10B514217F
:102E40000022554C200000F0CBF910BD38B504002D
:102E5000FFF7F4FF1422504D2100280000F068F91C
:102E600000F024F831BD10B5040010224A492000BA
:102E700000F05EF900F01FF810BD000018B4000863
:102E80000CB0000801000020B1F5165F0BD0B1F5C1
:102E9000964F08D0B1F5164F05D0B1F5614F02D06D
:102EA000B1F5E13F00D10120C0B2704701202649B1
:102EB00081F8CC0A70470020234981F8CC0A70477A
:102EC000214890F8CC0A70471F48B0F8B60A7047FE
:102ED00000201D49A1F8B60A70471B48B0F8CE0A79
:102EE00070471949A1F8CE0A7047174890F8D50ADB
:102EF000704700000800002028B4000880B5FEF7E5
:102F000050FE012806D019D303280DD007D304287A
:102F10000FD013E00C200C4981F8D50A12E00920EB
:102F2000094981F8D50A0DE00620074981F8D50A3C
:102F300008E00920044981F8D50A03E00C20024981
:102F400081F8D50A01BD00000800002018B3000870
:102F500038B4000858AE000884B20008ACB30008CA
:102F600048B4000830AD0008B2140020C0B3000817
:102F700030B3000858B4000868B400080A00002004
:102F8000D4B3000878B40008AA0A002050B10008A1
:102F9000AE0A0020D80A0020C00A00207047002096
:102FA00003E00221354A1154401C0328F9DB704725
:102FB000324BC0B219543249C0B20A5470477CB582
:102FC00004000D001600300000F0A8FA0090330055
:102FD00001222900C9B22000C0B200F001F873BD7F
:102FE0002DE9F041B4B00700884615001E003A9C58
:102FF000652C02DBFFF7D2FF1CE0FEF7BBFC2000D4
:103000008DF868008DF86B808DF86A708DF86950C6
:103010001BAD22003100280000F08AF8221D1AA9F9
:103020006D46280000F084F86946241D2000C0B2D7
:10303000FEF7A3FE34B0BDE8F08118B599B00400E6
:1030400068461049642200F083F80020200000F058
:1030500065FA5F21814204D3200000F05FFA02008C
:1030600000E05F22D2B22100684600F072FA6422CA
:103070006946200000F082FA1AB010BD64140020E6
:1030800068140020CCAC0008F0B5CDB004000E00F0
:1030900017001D001AA8642100F0A8FA002052AB06
:1030A0002A0064211AA800F0A5FA1AA8FFF7C5FFA4
:1030B0001AA800F033FA0500EDB2652D02DBFFF728
:1030C0006DFF26E0E4B2002C02D0E4B2102C02DB4B
:1030D000FFF764FF1DE0FEF74DFC8DF8CC508DF836
:1030E000CD408DF8CE608DF8CF70EDB21AA934AC1A
:1030F0002A00200000F01CF8EDB22A1D33A96C460E
:10310000200000F015F869462D1D2800C0B2FEF71A
:1031100038FF4DB0F0BD8268521C8260426832B107
:103120000268531C036011704168491E416070477A
:1031300062B38B0708D0521E11F8013B00F8013B27
:1031400000F024808B07F6D1830740F0208000BF79
:10315000103A07D330B4B1E83810103AA0E838106C
:10316000F9D230BC530724BFB1E80810A0E808101A
:1031700044BF51F8043B40F8043BD20724BF31F868
:10318000022B20F8022B44BF0B7803707047121FEC
:1031900017D35B0009D151F8043B20F8023B1B0C0C
:1031A000121F20F8023BF6D20BE051F8043B00F866
:1031B000013B1B0A20F8023B1B0C121F00F8013BCD
:1031C000F3D238BF121D521E24BF11F8013B00F884
:1031D000013BF8D870470268531C036011707047B8
:1031E00062F30F2262F31F42401810F0030308D06D
:1031F000C91A1FD3DB0748BF00F8012D28BF20F8EC
:10320000022D130030B414461546103928BF20E9AA
:103210003C00FAD8490728BF20E90C0048BF40F815
:10322000042D890028BF20F8022D48BF00F8012D89
:1032300030BC7047C91818BF00F8012DCB0728BF54
:1032400000F8012D7047000080B590B018208DF86F
:1032500003004FF40070ADF8000003208DF8020069
:1032600069469E4800F0E4F904208DF803004FF40D
:103270008060ADF800006946984800F0D9F9102048
:103280008DF803004FF48050ADF8000003208DF856
:1032900002006946914800F0CBF900F012F9019064
:1032A0000020ADF808000020ADF80A000020ADF8BD
:1032B0000C000020ADF810000C20ADF80E0001A9A4
:1032C000874800F05FFA012240F22551844800F05F
:1032D000AFFA844800F026FB8348059083480690A7
:1032E000102007904FF480700890002009908020F3
:1032F0000A9000200B9000200C9000200D904FF4BD
:1033000040500E9000200F9005A9764800F087FBF2
:1033100001228021724800F0B0FA01220221714896
:1033200000F0A8FB01216E4800F074FA4FF48050C1
:103330006F49086011B000BD10B504004FF4805013
:103340006C490860012001F0A0F8A4B2A41C6A48EE
:1033500004606648694908600121624800F07DFB0D
:1033600010BD10B5040000F098F800280AD1644898
:103370000078012806D001206149087000206149C9
:10338000087088E000F088F85D480078012808D0CF
:10339000C0F08180032832D015D305285DD03DD3FD
:1033A00079E0E4B2532C0DD10220554908705648FB
:1033B00054490978084480F8844052480078401CF9
:1033C0005049087067E0FEF7D5FA2100C9B288427B
:1033D0000ED103204A4908704B484A4909780844ED
:1033E00080F8844047480078401C4649087005E052
:1033F0000120434908700020424908704BE0042036
:103400003F49087040483F490978084480F88440A3
:103410003C480078401C3B4908703CE00520384996
:103420000870394837490978084480F8844035489D
:103430000078401C334908703348B0F88600001FFC
:103440003249088031480088332805DB00202F49A5
:10345000088001202A4908701DE02B482949097875
:10346000084480F8844027480078401C25490870AB
:1034700026480088401E25490880244800880028E6
:1034800009D100F00CF800F015F801201C49087073
:1034900000201C49087010BD7047012070470120B2
:1034A0001B49087070470020194908707047184878
:1034B0000078704701201749087070471548007858
:1034C000704715480068704710B504002000FFF7EA
:1034D000D9FC002801D01048046010BD000801404C
:1034E000003801404400024004380140E41000204C
:1034F00014080140100801404800024050000240FA
:1035000004000020B5140020E01000208C140020DE
:10351000B3140020B41400200000002000F10103C7
:10352000810704D010F8011B89B18107FAD1026824
:10353000B2F10131914311F0803F04BF50F8042FE4
:10354000F6E710F8011B11B110F8011BFBE7C01AD8
:10355000704730B4054600E06D1C2C78002CFBD180
:103560003AB10B782BB111F8014B05F8014B521E03
:10357000F6E70021297030BC7047000001B58B07C9
:103580001AD1830724D1121F21D351F8043BA3F190
:10359000013C2CEA030C1CF0803C04BF40F8043BC7
:1035A000F1E79CFA8CFCBCFA8CF1C1F118018B405C
:1035B000CB4040F8043B13E0042A09D311F8013B47
:1035C000521E00F8013B5BB18B07F7D1D9E7121D02
:1035D0005AB111F8013B521E00F8013B03B1F8D17A
:1035E00011001CBF0022FFF7FFFD01BD002201F00A
:1035F000C7B9000008B584B00023039300290EBFAB
:1036000001930190491E0291009301A904AB074860
:103610007844183001F0CEF9019909B100220A70FE
:10362000002858BF039805B000BD00BFEBFAFFFFAC
:1036300070B4002200220022002200220022CB7857
:1036400013F00F03CA78D20601D58A7813430A789B
:10365000120621D0066800241BE0CA78482A17D138
:103660000122A240026113E00125A5400A882A40F8
:10367000AA420DD1A2000F259540AE4313FA02F2E3
:1036800032431600CA78282AE7D10122A2404261BB
:10369000641C082CE8D306600A88B2F5807F27DB1B
:1036A0004568002421E0012214F1080612FA06F60A
:1036B0000A883240B24217D1A2000F269640B54385
:1036C00013FA02F22A431500CA78282A04D10126E7
:1036D00014F1080296404661CA78482A04D10126AE
:1036E00014F1080296400661641C082CDBD3456087
:1036F00070BC70470022806889B2084201D0012066
:1037000000E00020C0B2704789B20161704789B201
:1037100041617047D2B2002A02D089B2016101E052
:1037200089B24161704710B400220F2311F00302E7
:10373000D2B2920013FA02F2114BC9B20C00A410DB
:1037400053F8243033EA02020D4BC9B20C00A41026
:1037500043F824200A4AC9B20B009B1052F82330C8
:10376000C0B211F00302D2B2920090401843044A52
:10377000C9B2891042F8210010BC70470000000057
:103780000800014030B585B004000D000020002085
:10379000002000200020218A4CF6FF700140E888BC
:1037A00001432182A1894EF6F3100140AA8828899D
:1037B0000243688902431143A181A18A4FF6FF4069
:1037C0000140A8890143A182684602F097F8104899
:1037D000844201D1039900E00299192041432868ED
:1037E0008000B1FBF0F26420B2FBF0F109010B00A4
:1037F0001B09642000FB1322100132306422B0FB4D
:10380000F2F010F00F000143218105B030BD00003F
:1038100000380140C9B2002904D0818951F4005117
:10382000818104E082894DF6FF710A4082817047F0
:1038300010B400230023002300230B00DBB25B093C
:10384000DBB289B211F01F01012414FA01F1012B3E
:1038500001D10C3004E0022B01D1103000E0143013
:10386000D2B2002A03D002681143016003E002686B
:1038700032EA0101016010BC7047D2B2002A03D0C5
:10388000828A1143818203E0828A32EA01018182C5
:103890007047C905C90D818070478088C005C00D7B
:1038A000704700220088084201D0012000E000207B
:1038B000C0B2704710B400220022002200220B0088
:1038C000DBB25B09DBB289B211F01F02012414FAEA
:1038D00002F2012B02D183891A4006E0022B02D1A9
:1038E000038A1A4001E0838A1A4089B2090A89B220
:1038F000012313FA01F100880140002A03D00029B6
:1039000001D0012000E00020C0B210BC70470022AE
:10391000002289B2090A012212FA01F189B2C943CF
:103920000180704701684908490001600021016079
:1039300000214160002181600021C1605F49401A7F
:1039400018D014381DD0143822D0143827D0143889
:103950002CD0143831D0143836D04FF46271401A5C
:1039600039D014383ED0143843D0143848D01438E5
:103970004DD053E05248006850F00F0050490860A5
:103980004CE04F48006850F0F0004D49086045E0B9
:103990004B48006850F47060494908603EE0484870
:1039A000006850F470404649086037E044480068B9
:1039B00050F470204249086030E04148006850F4FB
:1039C00070003F49086029E03D48006850F0706091
:1039D0003B49086022E03B48006850F00F0039493D
:1039E00008601BE03748006850F0F0003549086077
:1039F00014E03448006850F47060324908600DE00B
:103A00003048006850F470402E49086006E02D48A8
:103A1000006850F470202B490860FFE7704710B42D
:103A2000002203686FF30E138C680A6A14430A6954
:103A300014434A6914438A691443CA6914434A6A9D
:103A400014438A6A144323430360CA6842600A68C5
:103A500082604968C16010BC7047C9B2002904D0B7
:103A6000016851F00101016003E001684908490063
:103A700001607047D2B2002A03D00268114301608E
:103A800003E0026832EA0101016070470021002171
:103A9000C10002D50C49096801E00C4909680142DE
:103AA00001D0012000E00020C0B27047C10002D563
:103AB0000449086001E002490860704708000240BC
:103AC00004000240040402400004024000000240DE
:103AD00080B5DFF8740C006850F4C850DFF8681C3B
:103AE000086000F01FF802F011FC03F0E6F800F0A7
:103AF000E0FB03F0E3FA02F0D5FC00F0F4FD00F087
:103B000027FE03F073FC03F0ADFC03F096FF04F016
:103B100061F904F004FB03F0E9F903F059F804F04B
:103B20003FFBE0E710B500F054F804F050FA00F065
:103B3000B9FC00F0E2F900F013FD00F0BCF800F071
:103B4000ABFADFF85C0D0078012811D100240CE0FD
:103B5000DFF8F80BE4B2162101FB04F10844017D03
:103B60002000C0B200F0D7FA641CE4B2042CEFDBF2
:103B700000F093FB03F048FC03F040F903F00BFB6B
:103B8000DFF8201D0870DFF8180D0078022804D037
:103B9000DFF80C0D0078042801D103F003F903F0DD
:103BA00088FAFFF751FBDFF8FC0C0078FDF7CDFE3B
:103BB000FDF791FF04F06BFB03F0A2FEFEF773FB31
:103BC00003F09AFBFFF7EBF900F094FA00F06EFEB9
:103BD00010BD80B501F0DCFD5FF4803001F007FE20
:103BE00001F02FFEC0B2012827D1102005F06FF898
:103BF000022005F061F8802001F05BFE002001F05A
:103C00006AFE002001F05EFE4FF4804001F06DFE80
:103C10005FF4E0115FF4803001F02FFE012001F02D
:103C200036FE392001F0F7FE0028FAD0022001F01C
:103C300032FE01F039FE0828FBD10121012001F0FC
:103C4000BAFE0121DFF88C0C01F0D5FE012144F20F
:103C50003D2001F0C0FE01BD80B5C0B2002805D0F6
:103C600002280DD007D303280ED010E0DFF8682C0F
:103C70004FF480730BE0DFF8302C4FF4005306E074
:103C8000DFF8542C202302E0DFF84C2C0823C9B2C3
:103C9000002906D003208DF8020010208DF80300C3
:103CA00002E004208DF80300ADF8003069461000F2
:103CB000FFF7BEFC01BD1CB501A8DFF8201C0A6897
:103CC00002604FF44060ADF8000003208DF8020060
:103CD00014208DF803006946DFF8CC0BFFF7A8FC31
:103CE0004FF44060DFF8F81B08601C208DF80300DB
:103CF000C020ADF8000003208DF802006946DFF80F
:103D0000A80BFFF795FCDFF8980B0078012840F02E
:103D1000B4808020ADF8000003208DF80200102050
:103D20008DF803006946DFF8B00BFFF781FC4FF414
:103D30008050ADF800006946DFF86C0BFFF778FCA7
:103D40001020ADF800006946DFF88C0BFFF770FC1F
:103D50000120ADF800006946DFF8880BFFF768FC2A
:103D60000420ADF800006946DFF87C0BFFF760FC2B
:103D70004FF48050ADF800006946DFF85C0BFFF7A8
:103D800057FC4FF40060ADF800006946DFF8480BBF
:103D9000FFF74EFC4FF48060ADF800006946DFF895
:103DA000380BFFF745FCDFF8440B0078C0B2FF2862
:103DB0000AD1002405E001A92000C0B201F068FE8C
:103DC000641CE4B2042CF6DB00240CE02000C0B23A
:103DD00001F079FEDFF8180BE4B2015D2000C0B2FB
:103DE000FFF73AFF641CE4B2042CEFDB4FF40060F1
:103DF000ADF8000004208DF803006946DFF8E40AFE
:103E0000FFF716FC4FF48070ADF800006946DFF84C
:103E1000D40AFFF70DFC4020ADF800006946DFF83A
:103E2000C40AFFF705FC4FF40040ADF800006946F6
:103E3000DFF8740AFFF7FCFB0420ADF800006946C8
:103E4000DFF8A00AFFF7F4FB0220ADF80000694696
:103E5000DFF8900AFFF7ECFB0120ADF8000069469F
:103E6000DFF8740AFFF7E4FB1020ADF800006946A4
:103E7000DFF8700AFFF7DCFB3EE00120ADF8000040
:103E800003208DF8020010208DF803006946DFF84A
:103E9000480AFFF7CDFBDFF8080A0078022812D1A4
:103EA0008020ADF8000003208DF8020010208DF86E
:103EB00003006946DFF8200AFFF7BAFB8020DFF82D
:103EC000341A086018E0DFF8D8090078042813D104
:103ED0004FF48070ADF8000003208DF80200102030
:103EE0008DF803006946DFF8FC09FFF7A1FB4FF4EA
:103EF0008070DFF8041A086013BD80B54FF4C0511C
:103F00005FF0006004F0F7FF4FF4E06004F0A2FF00
:103F10001F208DF8000000208DF8010000208DF892
:103F2000020001208DF80300684604F098FF20206D
:103F30008DF8000000208DF8010000208DF80200AF
:103F4000684604F08CFFDFF858090078012871D129
:103F50004FF4806004F07EFF17208DF800000020F1
:103F60008DF8010000208DF8020001208DF803007B
:103F7000684604F074FF4FF4806004F06BFF282063
:103F80008DF8000000208DF8010000208DF802005F
:103F900001208DF80300684604F061FF4FF4806053
:103FA00004F058FF06208DF8000000208DF8010075
:103FB00000208DF8020001208DF80300684604F00F
:103FC0004EFF4FF4806004F045FF07208DF800009D
:103FD00000208DF8010000208DF8020001208DF8EE
:103FE0000300684604F03BFF4FF4806004F032FFAA
:103FF00008208DF8000000208DF8010000208DF8C9
:10400000020001208DF80300684604F028FF4FF4F9
:10401000806004F01FFF0A208DF8000000208DF85A
:10402000010000208DF8020001208DF80300684691
:1040300004F015FF4FF4806004F00CFF25208DF88C
:10404000000000208DF8010000208DF80200012002
:104050008DF80300684604F002FF25208DF800006B
:1040600000208DF8010000208DF8020001208DF85D
:104070000300684604F0F3FE0E208DF800000020D7
:104080008DF8010003208DF8020001208DF8030057
:10409000684604F0E4FE01BDF8B50121DFF85C08D4
:1040A00004F0A8FF0020ADF800004BF6FF70ADF85B
:1040B00002000020ADF804004FF48060ADF8060067
:1040C0004FF48040ADF80800DFF8340803906946EB
:1040D000DFF8280804F024FF0121DFF8200804F0AD
:1040E000B6FF01224FF4C061DFF8100804F090FF22
:1040F00005B000BD80B545F2555004F045F80420E8
:1041000004F046F84FF47A7004F046F804F048F8EA
:1041100004F04BF801BDE0B5C0B2002806D002287B
:1041200062D033D3032800F08B80B5E04FF40060F9
:10413000009000208DF804000C208DF80500C9B215
:10414000012903D100208DF8060002E001208DF83E
:104150000600684604F0CEFF0B210020FFF7E3FACB
:1041600008210020FFF7DFFA4FF480700090012053
:104170008DF80600684604F0BDFF4FF4006005F0BE
:1041800020F84FF4807005F01CF885E04020009086
:1041900000208DF804000C208DF80500C9B201291B
:1041A00003D100208DF8060002E001208DF8060002
:1041B000684604F09FFF06210020FFF7B4FA0F21A4
:1041C0000120FFF7B0FA4FF40040009001208DF875
:1041D0000600684604F08EFF402004F0F2FF4FF422
:1041E000004004F0EEFF57E00420009000208DF81E
:1041F00004000C208DF80500C9B2012903D100206C
:104200008DF8060002E001208DF80600684604F0F3
:1042100071FF02210020FFF786FA01210020FFF73D
:1042200082FA0220009001208DF80600684604F012
:1042300061FF042004F0C5FF022004F0C2FF2BE060
:104240000120009000208DF804000C208DF805005E
:10425000C9B2012903D100208DF8060002E0012037
:104260008DF80600684604F045FF04210020FFF7A2
:104270005AFA1020009001208DF80600684604F0DC
:1042800039FF00210220FFF74EFA012004F099FFC8
:10429000102004F096FFFFE707BD80B54AF6C8700E
:1042A00004F09CFF012004F0B3FF012004F099FF0B
:1042B00001BD2AE0DFF84C060088002806D0DFF8B0
:1042C00044060088401EDFF83C160880DFF83806F8
:1042D0000078002806D0DFF830060078401EDFF8AE
:1042E00028160870DFF824060078002806D0DFF8CA
:1042F0001C060078401EDFF814160870DFF8100660
:104300000088401EDFF808160880DFF804060088E1
:10431000002800F0B98000211BE0DFF83004C9B2AA
:10432000162202FB01F21044407C002810D0DFF876
:104330001C04C9B2162202FB01F21044407C401E4C
:10434000DFF80824C9B2162303FB01F31A445074A2
:10435000491CC9B20429E0DBDFF8B8050088002851
:1043600006D0DFF8B0050088401EDFF8A8150880E9
:10437000DFF8A4050078002806D0DFF89C05007857
:10438000401EDFF894150870DFF8900500880028BB
:1043900006D0DFF888050088401EDFF88015088009
:1043A000DFF87C050078002806D0DFF87405007877
:1043B000401EDFF86C150870DFF8680500880028DB
:1043C00006D0DFF860050088401EDFF85815088029
:1043D000DFF854050078002806D0DFF84C05007897
:1043E000401EDFF844150870DFF84005007800280B
:1043F00006D0DFF838050078401EDFF83015087069
:10440000DFF82C050078002806D0DFF824050078B6
:10441000401EDFF81C150870DFF81805007800282A
:1044200006D0DFF810050078401EDFF80815087088
:10443000002112E0DFF80005C9B230F811000028B1
:104440000AD0DFF8F404C9B230F81100401EDFF8DA
:10445000E824C9B222F81100491CC9B20429E9DBD9
:10446000DFF8D804007800283FF424AFDFF8CC044C
:104470000078401EDFF8C4140870DFF8C00400782C
:1044800000287FF417AFFEE77047DFF8841409882F
:10449000C0B24018DFF878140988020092B2914245
:1044A000F8D3704780B501215FF0804004F028FF09
:1044B0000220FFF7EBFA0028FAD00720FFF7F6FA00
:1044C00000215FF0804004F01BFFDFF87404808857
:1044D000B0F59B6F08DA0320DFF8C41308701020D2
:1044E000DFF8601408702FE0DFF85404808840F68D
:1044F000351188420CDA0120DFF8A4130870082077
:10450000DFF8401408700420DFF83C1408701BE04A
:10451000DFF82C04808840F69A41884208DA0220AD
:10452000DFF87C1308701020DFF81C1408700BE013
:104530000420DFF86C1308701020DFF808140870EE
:104540000820DFF804140870DFF854030078FDF742
:1045500024FBDFF84C030078DFF8F013087001BD8E
:1045600010B598B006A8DFF8E8131022FEF7F0FDAA
:104570000AA8DFF8E0131422FEF7EAFD0FA8DFF81F
:10458000D8132422FEF7E4FD18208DF803004FF421
:104590000070ADF8000003208DF802006946DFF8D6
:1045A0004403FFF745F804208DF803004FF48060C2
:1045B000ADF800006946CB48FFF73AF810208DF8B7
:1045C00003004FF48050ADF8000003208DF8020086
:1045D0006946C448FFF72CF84FF461400290002070
:1045E000ADF80C000020ADF80E000020ADF8100072
:1045F0000020ADF814000C20ADF8120002A9DFF87D
:104600005C03FFF7BFF80121DFF85003FFF702F961
:104610000322DFF84C1301A804F080FE022201A956
:104620000DF11F042000FEF783FD3622CC4901A8BE
:1046300004F074FE022201A90DF122042000FEF70D
:1046400077FD4FF48051A748FFF75EF800240DE096
:1046500006A8E4B2015D89B2C048FFF71AF98021CB
:10466000BE48FFF71EF90028F9D0641CE4B20D2CF7
:10467000EED300240DE00AA8E4B2015D89B2B74888
:10468000FFF707F98021B548FFF70BF90028F9D0AB
:10469000641CE4B2132CEED3002413E00FA980486D
:1046A00002780720424301EB0200E4B2015D89B2C7
:1046B000AA48FFF7EEF88021A848FFF7F2F8002893
:1046C000F9D0641CE4B2062CE8DB002000E0401CBA
:1046D00042F210718842FAD34FF480518148FFF7BB
:1046E00016F818B010BD80B56D480078012829D0A3
:1046F0009C48B0F90000002824D088480088002891
:1047000020D199480078002803D1012096490870EB
:1047100002E00020944908709348027801216E4815
:10472000FEF7F8FF28207D4908808E480088283849
:104730008C4908808B48B0F90000002802D5002081
:104740008849088001BD0000042004E0B412002064
:1047500038B584B0FEF7B2FE002800F09E80834892
:104760000078002805D101208149087055207F4933
:104770000870FDF74FF90400E00717D500250FE09A
:104780002800C0B2FDF74BF9C00708D52800C0B219
:1047900002F0E9F901212800C0B2FDF71FF96D1CF4
:1047A000EDB2042DECDB0120FDF710F9200708D550
:1047B0006846FEF7EBFA684602F086F90420FDF73A
:1047C00005F9E00640D5002538E02800C0B2FDF725
:1047D00026F9400731D52800C0B2FEF7A1FA8DF8BE
:1047E00000002800C0B2FEF7A3FA8DF801002800EF
:1047F000C0B2FEF7A9FA8DF8020069462800C0B2DF
:1048000001F046F92800C0B201F05DF93848EDB278
:10481000415D2800C0B2FFF71FFA5648EDB21621DD
:1048200001FB05F10844017D2800C0B2FFF773FCCD
:1048300010212800C0B2FDF7D1F86D1CEDB2042D97
:10484000C3DB1020FDF7C2F8A0060DD5FEF7B4FAC1
:10485000C0B2042803DAC0B202F038FF01E002F06F
:104860001EFF2020FDF7B2F8600605D50A20334967
:1048700008704020FDF7AAF820060CD53E480068D5
:10488000C00408D4FEF7CCFAFEF71EFEFEF7DCFCEF
:104890008020FDF79BF804F009FA05B030BD000058
:1048A000A0140020A5140020000C014080B533485E
:1048B000008880B24AF2A55188420AD0A5208DF81E
:1048C0000000A5208DF8010002222C49684604F062
:1048D00045FD01BD010020000010014020B5000889
:1048E000100C0140000801400014014000FC0008C9
:1048F0006C140020101001401008014000540040CA
:10490000801A060088140020AA140020AB1400208E
:104910007C140020861400209C14002084140020A5
:10492000A41400207E1400209D140020A114002057
:10493000A2140020A81400204C140020A914002068
:1049400044140020A6140020A7140020FC1300200B
:10495000E8B3000884B3000880B0000800380140C4
:1049600004B5000882140020AD140020AE1400200D
:10497000A3140020B41200200C080140FEFF000820
:1049800000B500BF130096469446103928BFA0E832
:104990000C50FAD85FEA417C28BF0CC048BF40F8F1
:1049A000042BC90728BF20F8022B48BF00F8012BB1
:1049B00000BD00002DE9F0439FB00FF28419269C42
:1049C000DFF8CC8A02918DF83B4000210B914FF02B
:1049D000FF37044616461D460AE016F8011B0298EA
:1049E000A0470028029000F099800B98401C0B9083
:1049F000307850B12528F0D1002000210590069193
:104A00000790089109900A9103E00B989CE041F00F
:104A1000010116F8010F2028F9D023280CD02B28EB
:104A200004D02D2805D0302809D079E041F00201CA
:104A3000EFE741F00401ECE741F00801E9E741F05C
:104A40001001E6E700200D9009E00D98404505DAD9
:104A500000EB800302EB4302303A0D92761C327871
:104A6000A2F130000A28F0D332782E2A18BF0C9712
:104A700023D116F8010F2A2807D128682860761C50
:104A800050F8042B28600C9217E02D280CBF16F864
:104A9000010B002000220C920AE040B90C9A42451A
:104AA00005DA02EB820203EB4203303B0C93761CE7
:104AB0003378A3F130020A2AEFD3ADF83810484614
:104AC000317804F089FC08B116F8010B8DF83A0032
:104AD0009DF83A00682804BF3178682903D1622024
:104AE0008DF83A0007E06C2804BF30786C2803D1B9
:104AF00071218DF83A10761C10A804902A4616F8F9
:104B0000013B6946204600F05FF838B910AA6946B3
:104B1000204600F08BF900287FF56AAF384613E095
:104B20002A288FD12A682A6052F8040B2A600028AC
:104B30000D9003D540420D9041F00401761C93E79F
:104B4000686A6C747A4C00001FB0BDE8F08362287C
:104B500020D0682811D06A2803D06C2827D071286B
:104B600025D10868C01D20F007000860D0E90023A7
:104B700008300860194610467047002A0A680A6023
:104B8000106803D0121D0A6000B217E0121D0A60FF
:104B900080B217E0002A0A680A60106803D0121D6C
:104BA0000A6040B20AE0121D0A60C0B20AE0002AA0
:104BB0000A680A60106803D0121D0A60C1177047A6
:104BC000121D0A600021704770B51C460D46B4F1F5
:104BD00025002E69114600F017811C386AD0001F8D
:104BE000022867D9133843D0093863D0801E16D005
:104BF000401E1ED0401E02285CD9001F19D0401F45
:104C000000F08380401E33D0401E00F0CD80C01ED7
:104C100000F0D880801E2BD0C01E29D0FAE0686931
:104C2000421C6A610A680A6052F8043B0A60335405
:104C3000FAE095F83A000122FFF789FFC5E9000183
:104C40000023994204DA6869411C69612D210DE055
:104C5000288F810704D56869411C69612B2105E013
:104C6000C00722D56869411C6961202131541CE0CC
:104C700095F83A000022FFF76AFFC5E9000195F8B0
:104C80003800010711D5D5E900230020834208BF71
:104C900082420AD044F02000782806D16869302189
:104CA0003154401C411C69613454214668693044C8
:104CB000E86083E00868C01D20F007000860D0E9C4
:104CC000002308300860C5E90023D5E90001C80FBA
:104CD00004D06869411C69612D210DE0288F81078E
:104CE00004D56869411C69612B2105E0C00704D522
:104CF0006869411C69612021315468693044E86069
:104D00002146284600F0C4F98EE005F13A025078B9
:104D100020B14FF0FF340FF618205EE010786228C3
:104D200008D0682824D06A2812D06C282ED0712888
:104D30000ED02BE00A680A6052F8040B0A6020B912
:104D40004FF0FF340FF6002047E0E96A01706BE096
:104D50000A680A6052F8040B0A6020B94FF0FF3469
:104D60000FF6E41039E0EA6AD317C0E900235BE0EC
:104D70000A680A6052F8040B0A6020B94FF0FF3449
:104D80000FF6C41029E0E96A01804DE00A680A6064
:104D900052F8040B0A6020B94FF0FF340FF6A81048
:104DA0001BE0E96A01603FE00A680A6052F8040B00
:104DB0000A600021C5E90001EE607821284600F074
:104DC000BBF831E00868086050F8044B0860EC60FC
:104DD0003CB94FF0FF340FF6881004F009FB201A9D
:104DE00070BD2E6B002E04D52046FEF797FB0446BF
:104DF00008E032460021204604F01CFB002814BFC6
:104E0000041B3446AC610FE06869411C69612521CF
:104E1000315409E06969481C6861252272542100F7
:104E200002D0411C69613454002070BD2DE9FC4161
:104E30000F460646796B7869BC6A091A386A091AFE
:104E4000B869091A786A091AF869091A97F83800CE
:104E50000C1B410790460FD42021002C8DF8001028
:104E60000ADD254601236A463946304600F049FCF2
:104E700000285DD16D1EF5D17B694246394630462A
:104E800000F03FFC002853D130208DF800003D6A2F
:104E9000002D09DD01236A463946304600F031FC19
:104EA000002845D16D1EF5D1BB69FA6839463046F8
:104EB00000F027FC00283BD130208DF800007D6AEF
:104EC000002D08DD01236A463946304600F019FC02
:104ED00070BB6D1EF6D1F868B969FB694218394696
:104EE000304600F00EFC18BB30208DF80000BD6A83
:104EF000002D08DD01236A463946304600F001FCEA
:104F0000B0B96D1EF6D197F8380041070DD52021B4
:104F1000002C8DF8001008DD01236A463946304622
:104F200000F0EFFB20B9641EF6D10020BDE8F68149
:104F30004FF0FF30BDE8F6812DE9FC4704468A4674
:104F40002569BAF16F0F08BF082605D04AF0200185
:104F5000782914BF0A2610263C27D4E90023BAF189
:104F6000640F18BFBAF1690F9046994606D1002127
:104F70008B4203DAD8F1000869EB4909002081452A
:104F800008BF80451FD1206BE8B9082E4CD194F89A
:104F90003800010748D530203B2785F83B0043E027
:104FA00000280ED594F8380000F01400102808D11D
:104FB000626B6069121A206A121A511A0029C8BF5E
:104FC0002162BDE8F3878DF800A04046494632468D
:104FD000F31704F05BFA3032D2B27F1E3A2A0197FF
:104FE00004DB9DF80000A0F151018A18EA55404603
:104FF00049463246F31704F049FA804689460020B4
:10500000814508BF804503D0E068E9198842DCD3B8
:10501000082E09D194F83800010705D5E95D30293B
:1050200002D07F1E3020E855C7F13C01A161E8198C
:10503000E060206B8142B3DA411A21624FF6EF70D3
:10504000218F01402187BDE8F3872DE9D043064633
:105050000F4614464FF00008DFF8389412E0E007DE
:1050600007D542464B463046394604F027FB0646F4
:105070000F464046494642464B4604F01FFB64102B
:1050800080468946002CEAD130463946BDE8D083B7
:105090002DE9F34F054641F020048DB0D5E9008994
:1050A000612C02AE09D0286B002848BF062003D42B
:1050B00008BF672C01D101202863D5E900235800DF
:1050C0004015401C0ED119030CD00320A8619DF897
:1050D000380061381A2802D20FF2A06111E00FF2F5
:1050E000A0610EE058004015401C0FD119030DD1EE
:1050F0000320A8619DF8380061381A2814D30FF2F4
:105100008861E8680322FEF713F8D3E1194621F01D
:105110000043B3F5801F10460DD20027BB4208BFE5
:10512000BA42019703D111E00FF25861E9E701AAF1
:1051300004F096FB0AE0DFF8607307EB1352DFF828
:105140005C3301921940DFF858331943C5E9000177
:10515000612C0ED1E86830210170811CE9609DF856
:10516000381061290CBF7821582141706869801C72
:105170006861D5E900AB2BF0004300202AF0000263
:10518000834204BF8242002300F05A81612C40F028
:10519000A980286B00284CBF2120401C009040466D
:1051A000009F7F1C49460022002304F091FBD94652
:1051B00001988DF8082038BF89F00049001F019040
:1051C000002FD0460DF1090040F3498140F2FF71F4
:1051D000DFF8D0B20C910646404649460022002333
:1051E00004F08EFB80F03A814800400D00F11C0273
:1051F00010D0002A0EDD0C98824205DB09F0004039
:1052000040EA0B01002013E0A448084040EA0251A4
:1052100040460DE029F00043002028F000028342C0
:1052200008BF82420FBF40461C22404604F080FB6C
:105230008046894604F01AFCFF1F002F044609DD52
:1052400004F032FC02460B464046494604F03EFC60
:1052500080468946F01D072104E004F00F0200F8A3
:10526000012D2411002C01DD491EF6D5491E5CBF1D
:10527000002200F8012DF9D5ECE00020194602AA21
:105280000A4400E05B1E12F80149491E8442F9D02D
:105290000F2804D10DF10900425C521C4254002930
:1052A00004D50198001D02AE5B1C0190591E12D45A
:1052B0009DF838007218A0F13A04177830375FFA79
:1052C00087F8B8F1390FC8BFA044491E02F8018918
:1052D000F3D58DF83800286B002840F1B080591EB6
:1052E0002963ACE0404649460022002304F0F0FA6E
:1052F000019938BF89F0004947F2975041436A4A03
:1053000091FBF2F20192D2F1070204DD40464946D8
:10531000FFF79BFE0AE0524200206449FFF795FE2A
:1053200002460B464046494604F042FC8046662C45
:10533000286BDFF87CB106BF019F0A3706273F18AC
:10534000142FC8BF142730208DF8080089460DF1AE
:10535000090000E03046002F34DD0646404649464D
:1053600004F04AFD01460A4606F1080304200A2615
:10537000B2FBF6F606EB860EA2EB4E02303203F8D5
:10538000012C0A22B6FBF2F202EB820EA6EB4E06CD
:105390003036401E03F8026DE9D1083F002F03F1BB
:1053A0000806D7DD084604F03BFD02460B464046A2
:1053B000494604F08BFB00225B4604F07FF98046EF
:1053C0008946CBE70DF10901401A0DF1090604E009
:1053D0000199491E401E0191761C31783029F7D081
:1053E000662C02D10199491C03E0652C0CBF0121F8
:1053F00000212B6BCB189842B8BF431E002B1ED444
:10540000834204DAF05C3528A8BF392000DA302066
:105410001946721E02EB010800E05B1E18F80199A4
:10542000491E8145F9D0392802D1705C401C705466
:10543000002904D50198401C16465B1C0190019878
:1054400000B200901BB29DF838103246284600F09A
:1054500034F82FE0C61D002F3FF7BEAE30460DF1E9
:105460000901401A009903468842C8BF0B46002B29
:105470000DF109063FF52FAF8342BFF6FEAE0DF1E9
:105480000900C05C07287FF7F8AE0F20F6E60000A1
:10549000CBCCCC0C0000244002FCFFFFFFFF0F80B0
:1054A0000000E03F0000F07FA08601000000F03F18
:1054B00084D797410FB0BDE8F08F2DE9FC46064632
:1054C00083B01C46376B002C914602DC01240FF29E
:1054D000BC298A46BDF930504AF02000662808BF32
:1054E0006D1C12D0672878D115F1040F7BDBBD420B
:1054F00079DA96F838006D1C010702D4BC42B8BFB7
:1055000027462DB27F1B48BF00272DB2F068B16936
:10551000002D23DC4A1C30234354002F03DC96F873
:105520003800010703D5F0682E218154521CEF4248
:10553000B8BF7D422DB26842ED19A542B8BF2C46D6
:10554000B261706224B2F461F068B36922464946E0
:105550001844FDF7EDFD281BB062BBE02A469442DB
:10556000084416DA22464946FDF7E2FDB0692018E4
:10557000B0612C1B002F746203DC96F838100A0708
:1055800005D5F1682E220A54F069401CF061B7621B
:10559000A0E04946FDF7CCFDB0692818641B002F38
:1055A00003DC96F838100A0703D5F1682E220A5456
:1055B000401CB06124B2A742B8BF3C46F068B36952
:1055C00024B2224609EB05011844FDF7B1FDB0698C
:1055D0002018B0613C1B74627CE0BAF1610F14D1F9
:1055E0004FF0700A16E0BC4204DA96F838100A0749
:1055F00058BF27467F1E48BF0027BAF1670F14BF68
:105600004FF0450A4FF0650A04E0BAF1410F08BFB8
:105610004FF0500AB169F368481CB061002F19F8C7
:10562000012B5A5403DC96F838100A0717D5F26894
:10563000431CB3612E211154002F10DD641E24B2CF
:10564000A742B8BF3C46F06824B2224649461844F7
:10565000FDF76EFDB0692018B0613F1B7762F068FE
:10566000B1690844002D80F800A003D42B214170BB
:10567000811C03E02D2141706D42811C00206A468F
:105680000AE02B460A2493FBF4F505EB8504A3EB13
:10569000440302F8013B401C2DB2002DF1DC01282F
:1056A00006DC4AF02002652A04BF302201F8012BF3
:1056B00048B9302001F8010B07E0401E1DF800201A
:1056C000303201F8012B0028F7DCF068B269104491
:1056D000091AF16196F8380000F0140010280DD175
:1056E0007169B0694118706A4118F0694118B06A6F
:1056F0004118706B8142BCBF411A316205B0BDE8F0
:10570000F086F8B505460E4617461C46002074B1D3
:1057100017F8011BB068A847B06030B1F06A401CB0
:10572000F0620020641EF3D1F2BD4FF0FF30F2BDF5
:105730007072696E74665F733A20256E20646973B7
:10574000616C6C6F776564007072696E74663A2084
:1057500062616420256E20617267756D656E7400EC
:105760007072696E74665F733A206261642025739B
:1057700020617267756D656E740000006E616E0069
:105780004E414E00696E6600494E460030000000F2
:10579000DFF8C002006850F00100DFF8B8120860BE
:1057A000DFF8B4020168DFF8B4020140DFF8A802B4
:1057B0000160DFF8A0020168DFF8A4020140DFF811
:1057C00094020160DFF88C02006830F48020DFF87A
:1057D00084120860DFF88002006830F4FE00DFF811
:1057E000781208600020DFF87C1208607047DFF84C
:1057F0006412096831F48031DFF858221160DFF853
:105800005412096831F48021DFF848221160B0F5A4
:10581000803F03D0B0F5802F09D011E0DFF83402CB
:10582000006850F48030DFF82C12086008E0DFF8E0
:105830002402006850F4A020DFF818120860FFE787
:10584000704780B50020009000200020312000F03B
:10585000E2F80099491C0091C0B2002803D10098D9
:10586000B0F5A06FF2D1312000F0D5F8002801D0BA
:10587000012000E00020C0B202BD0022764A12687A
:1058800032F47C1208431043734908607047C0B279
:1058900075490860704700216F49096889088900C7
:1058A00008436D49086070476B48006810F00C00B1
:1058B000704700216849096831F0F00108436649E2
:1058C0000860704700216449096831F4E0610843C9
:1058D00061490860704700215F49096831F46051EF
:1058E00051EAC0015C480160704700215A490968CB
:1058F00031F44041084358490860704700210021B5
:10590000002100215449096811F00C01002904D03C
:10591000042905D0082906D021E05549016020E07E
:10592000534901601DE04C490A6812F47012920C50
:10593000921C4949096811F48031002903D14D496D
:105940004A4302600AE044490968890303D549498A
:105950004A43026002E046494A43026001E044498A
:1059600001603D49096811F0F0010909424A515CA2
:105970000268CA4042603849096811F4E061090AC6
:105980003D4A515C4268CA4082603349096811F45B
:105990006051C90A384A515C4268CA40C2602E4907
:1059A000096811F44041890B344A515CC268B2FB6A
:1059B000F1F101617047C9B2002905D03049096889
:1059C00008432F49086005E02D49096831EA0000C5
:1059D0002B4908607047C9B2002905D029490968D8
:1059E00008432849086005E02649096831EA0000B3
:1059F000244908607047C9B2002905D022490968C6
:105A000008432149086005E01F49096831EA0000A0
:105A10001D49086070470021002100210100C9B222
:105A20004909C9B2012902D10A49096806E00229D7
:105A300002D10E49096801E014490968C0B210F0AA
:105A40001F00C140C80701D5012000E00020C0B2FE
:105A50007047000000100240041002400000FFF8F0
:105A6000FFFFF6FE08100240600042422010024094
:105A700000127A0000093D0088B4000824B500082F
:105A800014100240181002401C1002402410024062
:105A900038B5040004226D462800FDF749FB9DF847
:105AA0000000401E8DF800009DF80200401E8DF899
:105AB00002000422E4B2DFF8E81911EB8401684621
:105AC00003F04CFC31BD38B504000322DFF8D009E7
:105AD000E4B200EB84016D462800FDF729FB9DF838
:105AE0000000DFF8D41BE4B2162202FB04F21144DA
:105AF00008759DF80100DFF8C41BE4B208559DF855
:105B00000200DFF8BC1BE4B2085531BDDFF8A82B5A
:105B1000C0B2162148431044007D704780B5002173
:105B2000DFF8942BC0B2162303FB00F31A4411755F
:105B30000021C0B2FEF7EFFA01BD80B50121DFF808
:105B4000782BC0B2162303FB00F31A441175012110
:105B5000C0B2FEF7E0FA01BD30B4C9B2012930D1BC
:105B6000DFF8541BC0B2162202FB00F21144097C7C
:105B7000082291FBF2F1DFF8402BC0B2162303FBA1
:105B800000F31A44127C0823D2F1070492FBF3F2CB
:105B900003FB0242DFF8203BC0B2162404FB00F4F2
:105BA0002344C9B2DFF8104BC0B2162505FB00F53F
:105BB0002C440D00EDB2645D012515FA02F222437A
:105BC0005A54DFF8F41AC0B2162202FB00F2114454
:105BD0000A7C521CDFF8E03AC0B216214843184450
:105BE000027430BC7047F8B50500DFF8CC0AEDB29E
:105BF000162101FB05F10844007D012808D15F2032
:105C0000DFF8B41AEDB2162202FB05F21144087453
:105C1000DFF8A40AEDB2162101FB05F10844007C6F
:105C2000082190FBF1F6DFF8900AEDB2162101FB96
:105C300005F10844007CD0F18000082190FBF1F0D0
:105C4000DFF8741AEDB2162202FB05F21144097C4A
:105C5000D1F18001082291FBF2F402FB1414E4B2AA
:105C6000002C00D0761CF6B2DFF84C1AEDB21622EA
:105C700002FB05F21144DFF8402AEDB2162303FBC4
:105C800005F31A44C0B202EB00073200380004F0FA
:105C9000D5F8F6B2D6F110060022DFF81C0AEDB2F4
:105CA000162101FB05F100EB010731003800FDF77B
:105CB00097FA0020002139E0DFF8FC29EDB2162325
:105CC00003FB05F31A44C0B2DFF8EC39EDB2162637
:105CD00006FB05F63344C0B21B5CDBB25B08135411
:105CE000DFF8D429EDB2162303FB05F31A44C0B242
:105CF000024412F8012CD20713D5DFF8BC29EDB20B
:105D0000162303FB05F31A44C0B2DFF8AC39EDB239
:105D1000162606FB05F63344C0B21B5C53F0800325
:105D20001354401EC0B20028C6D1491C08002200EE
:105D3000C0B2D2B2904201D20F20F3E7F1BD38B524
:105D400004000020DFF87019E4B2162202FB04F20E
:105D50001144487510210022DFF85C09E4B21623D3
:105D600003FB04F300EB03052800FDF739FA0020DC
:105D7000DFF84419E4B2162202FB04F2114408745D
:105D80000021DFF83429E4B21620444302EB04007A
:105D9000C17431BD80B5C0B2002817D1DFF8240925
:105DA0000068C00504D40120DFF80C19C87441E074
:105DB000DFF81009006800053CD400210020FFF73F
:105DC000CBFE0220DFF8F018487433E0DFF8E80873
:105DD000007D002817D1DFF8EC080068000504D426
:105DE0000120DFF8D418C87424E0DFF8D808006870
:105DF000C0051FD401210020FFF7AEFE0220DFF80E
:105E0000B818487416E00220DFF8AC184874DFF8C0
:105E1000B4080068C0050DD4DFF8A80800680005C4
:105E200004D500210020FFF797FE03E001210020A8
:105E3000FFF792FE01BD80B5C0B2002819D1DFF88E
:105E400088080068000405D40120DFF86C1881F888
:105E5000290046E0DFF86C080068400641D40021C4
:105E60000120FFF779FE0220DFF84C1881F82700A7
:105E700037E0DFF8440890F82A00002819D1DFF84D
:105E800044080068400605D40120DFF82C1881F88A
:105E9000290026E0DFF830080068000421D4012141
:105EA0000120FFF759FE0220DFF80C1881F82700C7
:105EB00017E00220DFF8001881F82700DFF8080853
:105EC000006800040DD4DFF8FC070068400604D524
:105ED00000210120FFF740FE03E001210120FFF730
:105EE0003BFE01BD80B5C0B2002819D1DFF8D40750
:105EF0000068800705D40120DFF8BC1781F83F0057
:105F000046E0DFF8C0070068400741D400210220C6
:105F1000FFF722FE0220DFF8A01781F83D0037E0EE
:105F2000DFF8940790F84000002819D1DFF89407B3
:105F30000068400705D40120DFF87C1781F83F0096
:105F400026E0DFF880070068800721D401210220C5
:105F5000FFF702FE0220DFF8601781F83D0017E02E
:105F60000220DFF8541781F83D00DFF85807006879
:105F700080070DD4DFF84C070068400704D50021E6
:105F80000220FFF7E9FD03E001210220FFF7E4FD15
:105F900001BD80B5C0B2002819D1DFF8280700681C
:105FA000C00605D40120DFF8101781F8550046E03F
:105FB000DFF818070068C00741D400210320FFF76D
:105FC000CBFD0220DFF8F01681F8530037E0DFF850
:105FD000E80690F85600002819D1DFF8F0060068AE
:105FE000C00705D40120DFF8D01681F8550026E05F
:105FF000DFF8D0060068C00621D401210320FFF796
:10600000ABFD0220DFF8B01681F8530017E0022044
:10601000DFF8A41681F85300DFF8A8060068C00670
:106020000DD4DFF8A8060068C00704D500210320BE
:10603000FFF792FD03E001210320FFF78DFD01BD75
:1060400002000020DFF87436C9B2595C012917D16B
:10605000D2B2002A05D0D2B20A2A02DA30321000B7
:106060001DE0D2B20A2A01D1302018E0D2B20B2AA8
:1060700001D17F2013E0D2B20C2A10D10D200EE006
:10608000D2B20A2A02DA3032100008E0D2B20A2A6A
:1060900001D17F2003E0D2B20B2A00D10D20C0B283
:1060A000704770B504000B000020D2B2042A04D05F
:1060B000062A10D0082A42D05BE0DFF80016E4B2CE
:1060C000095D042906D12100C9B213F00F0318009D
:1060D000FFF7B6FF4DE0DFF8E415E4B2095D0129F2
:1060E00005D0DFF8D815E4B2095D022926D10022D7
:1060F000052107E001258D401E00F6B22E4200D09A
:10610000521C491E49B20329F4DAD50708D530E0FC
:1061100001258D401E00F6B22E4200D0521C491EB1
:1061200049B20029F4D5D10723D5DBB25B082100A1
:10613000C9B213F00F031800FFF782FF19E0DFF870
:106140007C15E4B2095D032913D113F00F011A0085
:10615000D2B21209D2B2D24313F00F02C9B2D2B2F4
:10616000914206D12100C9B213F00F031800FFF7C6
:1061700067FFC0B270BD0F2113E0C9B2425CD2B25A
:106180005208C9B24254C9B200EB010212F8012C04
:10619000D20705D5C9B2425C52F08002C9B242545E
:1061A000491EC9B20029E8D1704778B585B004000E
:1061B000112100226D462800FDF712F8002513E09A
:1061C000E07BC00708D56846EDB2405D0121B140D3
:1061D00008436946EDB248552000FFF7CCFF761C16
:1061E000F6B2052EECDB6D1CEDB2112D01D20026AE
:1061F000F6E7002009E030216A46C0B2115403E0FE
:1062000046216A46C0B21154401CC0B211286BD25C
:106210006946C0B2095C0129EDD002293FD00429AA
:1062200029D007294FD008291BD00B2941D00D298F
:106230002BD00E2951D010290ED0132934D0152976
:106240001ED0162944D0192910D01A2936D01C295D
:1062500020D01F29D4D045E031216A46C0B2115464
:10626000D2E732216A46C0B21154CDE733216A46E3
:10627000C0B21154C8E734216A46C0B21154C3E712
:1062800035216A46C0B21154BEE736216A46C0B213
:106290001154B9E737216A46C0B21154B4E7382126
:1062A0006A46C0B21154AFE739216A46C0B21154F0
:1062B000AAE741216A46C0B21154A5E742216A46C5
:1062C000C0B21154A0E743216A46C0B211549BE703
:1062D00044216A46C0B2115496E745216A46C0B2CD
:1062E000115491E701200FE011226946DFF8E033F5
:1062F000DFF8DC0344781320444303EB0400041D5F
:106300002000FCF715FF002006B070BD38B5DFF89F
:10631000C4030078012840F0C280002460E00B2212
:10632000DFF89403E4B2162101FB04F10844411D97
:10633000DFF89C33DFF8980345781320454303EBDF
:106340000500051D2800FCF7F3FEDFF88413DFF8D5
:10635000800342781320424301EB0200DFF8581318
:10636000E4B2162202FB04F21144097C8170DFF8CA
:106370006013DFF85C0342781320424301EB020014
:10638000211DC170DFF848034078401CDFF840133E
:106390004870DFF83C0340780A281CDB0020DFF857
:1063A0003013487017E0C448E4B2162101FB04F131
:1063B0000844007D0128B2D1DFF81C0300780128D1
:1063C000ADD1BD48E4B2162101FB04F10844FFF74A
:1063D000ECFE0028B9D02000C0B2FFF7B0FC641C6E
:1063E000E4B2042C5BDAB448E4B2162101FB04F1F8
:1063F0000844007C0028F2D0AF48E4B2162101FB2B
:1064000004F10844407C0028E9D1AB48E4B21621ED
:1064100001FB04F10844C07C0028DCD1A648E4B2AA
:10642000162101FB04F10844007C412808DBA24846
:10643000E4B2162101FB04F10844007D0028CAD013
:106440002000C0B2FFF7CFFB9B48E4B2162101FB4E
:1064500004F10844007C0928A5DA9F480078012847
:10646000A1D19548E4B2162101FB04F10844027C55
:106470009148E4B2162101FB04F10844C17B2000DD
:10648000C0B2FFF70EFEC0B20028A4D0904A9049D7
:106490004B7813214B4302EB0301087155E731BDE3
:1064A00000FC00087CB500218A480078012840F0F3
:1064B000018187480078864A5278904200F0FA803D
:1064C00085480078012816D084480078002840F0DC
:1064D000E2800D227E497E4803781320434301EB7E
:1064E0000300811C7E4C2000FCF722FE01210120CC
:1064F0007A4A1070CFE076497548027813204243FB
:1065000001EB0200C078041F714971480278132022
:10651000424301EB020080780928C0F2AE80664851
:10652000E4B2162101FB04F10844007D012810D1DA
:106530000020009011230E2265496548057813203C
:10654000454301EB0500011D2000C0B2FCF71EFA17
:10655000A0E05F495E4802781320424301EB02004D
:106560008078082190FBF1F55949594802781320A9
:10657000424301EB02008078082190FBF1F201FB1D
:106580001200002800D06D1CEDB25149504802782D
:106590001320424301EB0200EDB26942084410F1BE
:1065A0000F014B4A4A4803781320434302EB030090
:1065B000061D2A003000FCF7BBFD4549444802781F
:1065C0001320424301EB02008078C0B20822D0F1D0
:1065D000080390FBF2F102FB0131C9B2082934D063
:1065E0003B4A3B4803781320434302EB0300021D60
:1065F0000800411EC0B2002827D01078400010705B
:106600000020C0B20728F3DAC0B202EB00035B78C7
:106610001B0609D4C0B202EB00035B785B00C0B27A
:1066200002EB000673700EE0C0B202EB00035B7871
:106630005B00C0B202EB00067370C0B2135C53F093
:106640000103C0B21354401CDBE72B00DBB220492E
:106650001F4802781320424301EB0200827892B275
:106660001B491B4805781320454301EB0500011D1C
:106670002000C0B2FCF7D0F80CE001221449144805
:1066800003781320434301EB0300011D2000C0B237
:10669000FBF7C8FE0121C9B200290BD00C480078D5
:1066A000401C0B4908700A4800780A2802DB0020C9
:1066B0000749087073BD0000B41200207414002054
:1066C0006C14002008080140080C0140081001402B
:1066D000F4110020A0140020A3140020AC1400200A
:1066E0000614002080B50A00C0B2012806D023D3CA
:1066F000032812D009D3042817D01DE0D2B20421F8
:10670000DFF84806FDF706F816E0D2B24FF48051E4
:10671000DFF83C06FCF7FEFF0EE0D2B24FF400615A
:10672000DFF82C06FCF7F6FF06E0D2B24FF48061EA
:10673000DFF81C06FCF7EEFF01BDDFF81826127823
:10674000022A6AD1C0B2002817D002281FD019D35C
:10675000042826D020D306282DD027D3082834D0CB
:106760002ED30A283BD035D30C2842D03CD30E2858
:1067700049D043D30F284BD055E0088850F0800013
:10678000088050E0088850F0010008804BE008883D
:1067900050F48070088046E0088850F002000880BD
:1067A00041E0088850F4007008803CE0088850F010
:1067B0000400088037E0088850F48060088032E0E8
:1067C000088850F0080008802DE0088850F4006028
:1067D000088028E0088850F01000088023E008882E
:1067E00050F4805008801EE0088850F02000088097
:1067F00019E0088850F40050088014E0088850F030
:10680000400008800FE0088850F4804008800AE0CB
:10681000088850F40040088005E00A88012313FA34
:1068200000F010430880704738B504000020ADF830
:106830000000DFF824050088210089B288422AD0B0
:10684000DFF81405048000250BE00120A84021009A
:1068500089B2014204D069462800C0B2FFF76DFF3B
:106860006D1CEDB2102DF0DB032003F03DFB422048
:1068700003F0B9FB022003F0B6FBBDF80000C0B284
:1068800003F0B1FBBDF8000080B2000AC0B203F013
:10689000AAFB03F04DFB31BDC10604D58021DFF812
:1068A000BC24116003E08021DFF8B424116081066C
:1068B00005D54FF48051DFF8AC24116004E04FF4AB
:1068C0008051DFF8A4241160410604D51021DFF8BF
:1068D0008C24116003E01021DFF88424116000068D
:1068E00004D50120DFF88414086003E00120DFF8FC
:1068F00080140860704780B5DFF878048078C0079E
:106900001DD5DFF874040078002807D1012100208C
:10691000FDF7A2F90120DFF860140870DFF85404D5
:106920008078C00605D54FF48070DFF83014086019
:1069300012E04FF48070DFF8281408600CE0DFF8F4
:1069400038040078012807D100210020FDF784F9E0
:106950000020DFF824140870DFF81804807880071E
:106960001DD5DFF814044078002807D1012101204B
:10697000FDF772F90120DFF800144870DFF8F40326
:106980008078800605D54FF40050DFF8D8130860F2
:1069900012E04FF40050DFF8D01308600CE0DFF88D
:1069A000D8034078012807D100210120FDF754F9D0
:1069B0000020DFF8C4134870DFF8B8038078400780
:1069C0001BD5DFF8B4038078002807D1012102200D
:1069D000FDF742F90120DFF8A0138870DFF8940377
:1069E0008078400604D52020DFF87013086011E09D
:1069F0002020DFF86C1308600CE0DFF87C0380785F
:106A0000012807D100210220FDF726F90020DFF838
:106A100068138870DFF85C03807800071BD5DFF807
:106A20005803C078002807D101210320FDF714F98D
:106A30000120DFF84413C870DFF8380380780006BF
:106A400004D50820DFF81413086011E00820DFF8EF
:106A5000101308600CE0DFF82003C078012807D18C
:106A600000210320FDF7F8F80020DFF80C13C870B0
:106A700001BD10B5B7480078012813D10024E4B255
:106A8000042C20DABB4840780121A140084201D102
:106A9000002100E00121C9B2601CC0B2FFF722FE54
:106AA000641CECE7AB480078022803D0A9480078C2
:106AB000042808D1AF480078AE49497850EA01204F
:106AC00080B2FFF7B1FE10BD38B50400A1480078D0
:106AD000012811D10025EDB2042D43DAEDB2605D3D
:106AE000002807D0EDB2605D411EC9B2681CC0B27B
:106AF000FFF7F8FD6D1CEEE796480078022803D0FA
:106B00009448007804282DD1934801889148007852
:106B1000022801D1102300E00823002218E0012000
:106B20009040814313E0D2B2A05C012803D0D2B2DE
:106B3000A05C02280BD1D2B2A05C401ED2B2A054FD
:106B4000D2B2A05C0028EAD0012090400143521C40
:106B500010001D00C0B2EDB2A842E4D3080080B21C
:106B6000FFF762FE31BD10B504002000C0B2FCF793
:106B700039F8C0B2401E002807D0804800781021A4
:106B8000A14008437D49087006E07C480078102148
:106B9000A14088437949087078480078FFF77CFE67
:106BA00000207749E4B221F814002000C0B2FCF7BD
:106BB0000CF87349E4B221F814007148E4B230F8DB
:106BC00014100A2041436E48E4B220F8141010BD9E
:106BD00010B5002417E06A48E4B230F81400002829
:106BE00010D1664800781021A14008420AD06348BD
:106BF00000781021A1408843604908705F48007800
:106C0000FFF74AFE641CE4B2042CE4DB10BD80B53F
:106C100058480078C00708D50020FEF777FF002805
:106C20000BD10020FEF789FF07E00020FEF76EFF82
:106C3000012802D10020FEF771FF4E48007880073E
:106C400008D50120FEF762FF00280BD10120FEF7D6
:106C500074FF07E00120FEF759FF012802D101204F
:106C6000FEF75CFF43480078400708D50220FEF796
:106C70004DFF00280BD10220FEF75FFF07E0022046
:106C8000FEF744FF012802D10220FEF747FF3948F2
:106C90000078000708D50320FEF738FF00280BD145
:106CA0000320FEF74AFF07E00320FEF72FFF01282D
:106CB00002D10320FEF732FF01BD10B53148007844
:106CC000002815D000202F49087001212E4802F01D
:106CD000B1F900212C4802F0ADF9FDF7DDF90020F3
:106CE0002A49087000202A490870012029490870A3
:106CF00028480078002827D0002026490870154829
:106D0000007801280AD1002023490870FFF77FFF8F
:106D100018480078FFF7C0FDFFF7EDFDFFF7A9FE6B
:106D200003210022134C2000FCF75AFA19210022FB
:106D30001A4C2000FCF754FA00F017FA00F05EF845
:106D40004FF4C8701649088010BD000000140140BF
:106D500000100140A01400208A14002010100140EF
:106D600014100140100C0140140C014010080140A7
:106D700014080140381400206C140020AF140020C7
:106D80004C1400209B140020005400409914002053
:106D9000981400209A140020AC140020FD13002049
:106DA0008214002080B5032003F09EF8422003F0F7
:106DB0001AF9022003F017F9002003F014F900205B
:106DC00003F011F903F0B4F8002000E0401C80B299
:106DD00042F210718842F9DB032003F085F842206B
:106DE00003F001F9062003F0FEF8002003F0FBF8A1
:106DF000002003F0F8F803F09BF801BDDFF8200451
:106E00000078012871D1DFF81C040078002815D122
:106E1000DFF814040068800508D5DFF81004007856
:106E200050F00100DFF80414087007E0DFF8FC03FD
:106E3000007810F0FE00DFF8F4130870DFF8E403C8
:106E40004078002815D1DFF8E8030068400408D531
:106E5000DFF8D803007850F00200DFF8D013087094
:106E600007E0DFF8C803007810F0FD00DFF8BC137E
:106E70000870DFF8B0038078002815D1DFF8B4037C
:106E80000068000708D5DFF8A403007850F004007C
:106E9000DFF89813087007E0DFF89003007810F02F
:106EA000FB00DFF888130870DFF87803C07800284B
:106EB00015D1DFF874030068400708D5DFF86C03CC
:106EC000007850F00800DFF86413087007E0DFF87E
:106ED0005C03007810F0F700DFF850130870DFF85B
:106EE0004C030078DFF85013487270471CB5DFF888
:106EF0004C030078012864D1DFF8440300780028AF
:106F00005FD1FFF77BFFDFF824030078DFF834134D
:106F10000978884250D0002100222AE0DFF82803B7
:106F2000D2B2805C002823D00020DFF81C33D2B21C
:106F300098541DE0BD480078012393401840DFF8C5
:106F400004331B780124944023409842E6D0BE4885
:106F5000D2B2805C401CBC4BD2B29854BA48D2B278
:106F6000805C032804DB0020B749D2B28854012199
:106F7000521CD2B2042ADDDBC9B200291CD0AB48B6
:106F80000078B0490870042100226C462000FCF70C
:106F900027F900200AE0AB4909780122824011421A
:106FA00003D001216A46C0B21154401CC0B204286B
:106FB000F1DB6846FBF7B2F9A4480088401DA04900
:106FC000087013BD38B50021A1480068401CA04AD4
:106FD0001060002259E09F48D2B250F822309E48FB
:106FE000D2B250F82200181A3AE09C48D2B2835C20
:106FF0004B249B4805689748D2B250F8220045437D
:1070000004FB03534FF4807093FBF0F0914BD2B22A
:1070100043F822008F48D2B250F82200914BD2B2EE
:10702000985405208A4B1B68894C2468B4FBF0F403
:1070300000FB143000281ED18648D2B250F822300E
:107040008548D2B250F822001B1A002BC3D58248C3
:10705000D2B250F822307F48D2B250F82200181A2B
:10706000152800DB01217B48D2B250F822007A4B70
:10707000D2B243F822007B48D2B2805C002803D110
:107080000120784BD2B29854521C1000764B1B78DA
:10709000C0B29842A9D3C9B2002903D1734800886D
:1070A000002805D16F491020FBF76BF800F001F8BC
:1070B00031BD4FF496706D490880704780B56C48BB
:1070C0000078002850D1022069490870544800789F
:1070D000022849D06149002000F04BFF654901209A
:1070E00000F047FF6449022000F043FF634903209A
:1070F00000F03FFF6249042000F03BFF614905209A
:1071000000F037FF6049062000F033FF5F49072099
:1071100000F02FFF4248007801281FD05C4908206A
:1071200000F027FF5B49092000F023FF5A490A209D
:1071300000F01FFF59490B2000F01BFF58490C209D
:1071400000F017FF57490D2000F013FF56490E209D
:1071500000F00FFF55490F2000F00BFF3748007873
:10716000012801D1FFF72EFF01BD10B52C48007892
:1071700002280FD0082239494D4C2000FBF7D8FFD8
:1071800027480078012805D008224149494C2000B1
:10719000FBF7CEFF10BD10B5002421480078012870
:1071A00019D120214448FCF7A5FA54EAC0044FF451
:1071B00000714248FCF79EFA54EA80044FF4807153
:1071C0003E48FCF797FA54EA400420213B48FCF77C
:1071D00091FA04431AE04FF400413848FCF78AFA68
:1071E00054EAC0044FF480413448FCF783FA54EA6F
:1071F00080044FF400513148FCF77CFA54EA400413
:107200004FF480512D48FCF775FA0443E4B2E4438F
:1072100014F00F04641C2000C0B210BD1148704768
:10722000A01400206C1400200810014096140020C7
:10723000080C014008080140FC130020A3140020A2
:10724000A8140020971400205C1400207C14002057
:10725000601400209C1300205C13002018140020F0
:107260001CB5000828140020A61400208614002055
:10727000A4140020191400201A1400201B1400204C
:107280001C1400201D1400201E1400201F140020B8
:107290002014002021140020221400202314002098
:1072A0002414002025140020261400202714002078
:1072B000FD1300200514002000080140000C0140CF
:1072C000354A42F82010704780B50100086814283C
:1072D00005D2081D304A096852F82110884701BDBF
